{
  "_format": "hh3-artifact-1",
  "contractName": "RogueChain",
  "sourceName": "contracts/RogueChain.sol",
  "abi": [
    {
      "inputs": [
        {
          "internalType": "address",
          "name": "_pyth",
          "type": "address"
        },
        {
          "internalType": "address",
          "name": "_pythEntropy",
          "type": "address"
        },
        {
          "internalType": "bytes32",
          "name": "_ethPriceId",
          "type": "bytes32"
        },
        {
          "internalType": "bytes32",
          "name": "_btcPriceId",
          "type": "bytes32"
        }
      ],
      "stateMutability": "nonpayable",
      "type": "constructor"
    },
    {
      "inputs": [],
      "name": "ERC721EnumerableForbiddenBatchMint",
      "type": "error"
    },
    {
      "inputs": [
        {
          "internalType": "address",
          "name": "sender",
          "type": "address"
        },
        {
          "internalType": "uint256",
          "name": "tokenId",
          "type": "uint256"
        },
        {
          "internalType": "address",
          "name": "owner",
          "type": "address"
        }
      ],
      "name": "ERC721IncorrectOwner",
      "type": "error"
    },
    {
      "inputs": [
        {
          "internalType": "address",
          "name": "operator",
          "type": "address"
        },
        {
          "internalType": "uint256",
          "name": "tokenId",
          "type": "uint256"
        }
      ],
      "name": "ERC721InsufficientApproval",
      "type": "error"
    },
    {
      "inputs": [
        {
          "internalType": "address",
          "name": "approver",
          "type": "address"
        }
      ],
      "name": "ERC721InvalidApprover",
      "type": "error"
    },
    {
      "inputs": [
        {
          "internalType": "address",
          "name": "operator",
          "type": "address"
        }
      ],
      "name": "ERC721InvalidOperator",
      "type": "error"
    },
    {
      "inputs": [
        {
          "internalType": "address",
          "name": "owner",
          "type": "address"
        }
      ],
      "name": "ERC721InvalidOwner",
      "type": "error"
    },
    {
      "inputs": [
        {
          "internalType": "address",
          "name": "receiver",
          "type": "address"
        }
      ],
      "name": "ERC721InvalidReceiver",
      "type": "error"
    },
    {
      "inputs": [
        {
          "internalType": "address",
          "name": "sender",
          "type": "address"
        }
      ],
      "name": "ERC721InvalidSender",
      "type": "error"
    },
    {
      "inputs": [
        {
          "internalType": "uint256",
          "name": "tokenId",
          "type": "uint256"
        }
      ],
      "name": "ERC721NonexistentToken",
      "type": "error"
    },
    {
      "inputs": [
        {
          "internalType": "address",
          "name": "owner",
          "type": "address"
        },
        {
          "internalType": "uint256",
          "name": "index",
          "type": "uint256"
        }
      ],
      "name": "ERC721OutOfBoundsIndex",
      "type": "error"
    },
    {
      "inputs": [
        {
          "internalType": "address",
          "name": "owner",
          "type": "address"
        }
      ],
      "name": "OwnableInvalidOwner",
      "type": "error"
    },
    {
      "inputs": [
        {
          "internalType": "address",
          "name": "account",
          "type": "address"
        }
      ],
      "name": "OwnableUnauthorizedAccount",
      "type": "error"
    },
    {
      "inputs": [],
      "name": "ReentrancyGuardReentrantCall",
      "type": "error"
    },
    {
      "anonymous": false,
      "inputs": [
        {
          "indexed": true,
          "internalType": "address",
          "name": "owner",
          "type": "address"
        },
        {
          "indexed": true,
          "internalType": "address",
          "name": "approved",
          "type": "address"
        },
        {
          "indexed": true,
          "internalType": "uint256",
          "name": "tokenId",
          "type": "uint256"
        }
      ],
      "name": "Approval",
      "type": "event"
    },
    {
      "anonymous": false,
      "inputs": [
        {
          "indexed": true,
          "internalType": "address",
          "name": "owner",
          "type": "address"
        },
        {
          "indexed": true,
          "internalType": "address",
          "name": "operator",
          "type": "address"
        },
        {
          "indexed": false,
          "internalType": "bool",
          "name": "approved",
          "type": "bool"
        }
      ],
      "name": "ApprovalForAll",
      "type": "event"
    },
    {
      "anonymous": false,
      "inputs": [
        {
          "indexed": true,
          "internalType": "uint256",
          "name": "heroId",
          "type": "uint256"
        },
        {
          "indexed": false,
          "internalType": "uint256",
          "name": "victoryChance",
          "type": "uint256"
        },
        {
          "indexed": false,
          "internalType": "uint8",
          "name": "marketState",
          "type": "uint8"
        }
      ],
      "name": "DungeonDefeat",
      "type": "event"
    },
    {
      "anonymous": false,
      "inputs": [
        {
          "indexed": true,
          "internalType": "uint256",
          "name": "heroId",
          "type": "uint256"
        },
        {
          "indexed": false,
          "internalType": "uint256",
          "name": "victoryChance",
          "type": "uint256"
        },
        {
          "indexed": false,
          "internalType": "uint8",
          "name": "marketState",
          "type": "uint8"
        }
      ],
      "name": "DungeonVictory",
      "type": "event"
    },
    {
      "anonymous": false,
      "inputs": [
        {
          "indexed": true,
          "internalType": "uint256",
          "name": "heroId",
          "type": "uint256"
        },
        {
          "indexed": false,
          "internalType": "uint256",
          "name": "newLevel",
          "type": "uint256"
        }
      ],
      "name": "HeroLeveledUp",
      "type": "event"
    },
    {
      "anonymous": false,
      "inputs": [
        {
          "indexed": true,
          "internalType": "uint256",
          "name": "heroId",
          "type": "uint256"
        },
        {
          "indexed": true,
          "internalType": "address",
          "name": "owner",
          "type": "address"
        },
        {
          "indexed": false,
          "internalType": "uint256",
          "name": "level",
          "type": "uint256"
        }
      ],
      "name": "HeroMinted",
      "type": "event"
    },
    {
      "anonymous": false,
      "inputs": [
        {
          "indexed": false,
          "internalType": "string",
          "name": "eventName",
          "type": "string"
        },
        {
          "indexed": false,
          "internalType": "string",
          "name": "description",
          "type": "string"
        }
      ],
      "name": "MarketEventTriggered",
      "type": "event"
    },
    {
      "anonymous": false,
      "inputs": [
        {
          "indexed": true,
          "internalType": "address",
          "name": "previousOwner",
          "type": "address"
        },
        {
          "indexed": true,
          "internalType": "address",
          "name": "newOwner",
          "type": "address"
        }
      ],
      "name": "OwnershipTransferred",
      "type": "event"
    },
    {
      "anonymous": false,
      "inputs": [
        {
          "indexed": true,
          "internalType": "bytes32",
          "name": "requestId",
          "type": "bytes32"
        },
        {
          "indexed": false,
          "internalType": "uint64",
          "name": "randomNumber",
          "type": "uint64"
        }
      ],
      "name": "RandomnessFulfilled",
      "type": "event"
    },
    {
      "anonymous": false,
      "inputs": [
        {
          "indexed": true,
          "internalType": "bytes32",
          "name": "requestId",
          "type": "bytes32"
        },
        {
          "indexed": true,
          "internalType": "address",
          "name": "requester",
          "type": "address"
        }
      ],
      "name": "RandomnessRequested",
      "type": "event"
    },
    {
      "anonymous": false,
      "inputs": [
        {
          "indexed": true,
          "internalType": "uint256",
          "name": "heroId",
          "type": "uint256"
        },
        {
          "indexed": false,
          "internalType": "uint256",
          "name": "amount",
          "type": "uint256"
        },
        {
          "indexed": false,
          "internalType": "string",
          "name": "marketName",
          "type": "string"
        }
      ],
      "name": "RewardEarned",
      "type": "event"
    },
    {
      "anonymous": false,
      "inputs": [
        {
          "indexed": true,
          "internalType": "address",
          "name": "from",
          "type": "address"
        },
        {
          "indexed": true,
          "internalType": "address",
          "name": "to",
          "type": "address"
        },
        {
          "indexed": true,
          "internalType": "uint256",
          "name": "tokenId",
          "type": "uint256"
        }
      ],
      "name": "Transfer",
      "type": "event"
    },
    {
      "inputs": [],
      "name": "BASE_EXPERIENCE",
      "outputs": [
        {
          "internalType": "uint256",
          "name": "",
          "type": "uint256"
        }
      ],
      "stateMutability": "view",
      "type": "function"
    },
    {
      "inputs": [],
      "name": "MAX_LEVEL",
      "outputs": [
        {
          "internalType": "uint256",
          "name": "",
          "type": "uint256"
        }
      ],
      "stateMutability": "view",
      "type": "function"
    },
    {
      "inputs": [
        {
          "internalType": "address",
          "name": "to",
          "type": "address"
        },
        {
          "internalType": "uint256",
          "name": "tokenId",
          "type": "uint256"
        }
      ],
      "name": "approve",
      "outputs": [],
      "stateMutability": "nonpayable",
      "type": "function"
    },
    {
      "inputs": [
        {
          "internalType": "address",
          "name": "owner",
          "type": "address"
        }
      ],
      "name": "balanceOf",
      "outputs": [
        {
          "internalType": "uint256",
          "name": "",
          "type": "uint256"
        }
      ],
      "stateMutability": "view",
      "type": "function"
    },
    {
      "inputs": [],
      "name": "btcPriceId",
      "outputs": [
        {
          "internalType": "bytes32",
          "name": "",
          "type": "bytes32"
        }
      ],
      "stateMutability": "view",
      "type": "function"
    },
    {
      "inputs": [
        {
          "internalType": "uint256",
          "name": "heroId",
          "type": "uint256"
        },
        {
          "internalType": "uint64",
          "name": "randomNumber",
          "type": "uint64"
        }
      ],
      "name": "calculateVictoryChance",
      "outputs": [
        {
          "internalType": "uint256",
          "name": "",
          "type": "uint256"
        }
      ],
      "stateMutability": "view",
      "type": "function"
    },
    {
      "inputs": [
        {
          "internalType": "uint256",
          "name": "heroId",
          "type": "uint256"
        }
      ],
      "name": "endGameSession",
      "outputs": [],
      "stateMutability": "nonpayable",
      "type": "function"
    },
    {
      "inputs": [
        {
          "internalType": "uint256",
          "name": "heroId",
          "type": "uint256"
        },
        {
          "internalType": "bytes[]",
          "name": "priceUpdateData",
          "type": "bytes[]"
        }
      ],
      "name": "enterDungeon",
      "outputs": [],
      "stateMutability": "payable",
      "type": "function"
    },
    {
      "inputs": [],
      "name": "ethPriceId",
      "outputs": [
        {
          "internalType": "bytes32",
          "name": "",
          "type": "bytes32"
        }
      ],
      "stateMutability": "view",
      "type": "function"
    },
    {
      "inputs": [
        {
          "internalType": "bytes32",
          "name": "requestId",
          "type": "bytes32"
        },
        {
          "internalType": "uint64",
          "name": "randomNumber",
          "type": "uint64"
        }
      ],
      "name": "fulfillRandomness",
      "outputs": [],
      "stateMutability": "nonpayable",
      "type": "function"
    },
    {
      "inputs": [
        {
          "internalType": "uint256",
          "name": "",
          "type": "uint256"
        }
      ],
      "name": "gameSessions",
      "outputs": [
        {
          "internalType": "uint256",
          "name": "heroId",
          "type": "uint256"
        },
        {
          "internalType": "uint256",
          "name": "startTime",
          "type": "uint256"
        },
        {
          "internalType": "bool",
          "name": "isActive",
          "type": "bool"
        },
        {
          "internalType": "uint256",
          "name": "currentFloor",
          "type": "uint256"
        },
        {
          "internalType": "uint256",
          "name": "monstersDefeated",
          "type": "uint256"
        }
      ],
      "stateMutability": "view",
      "type": "function"
    },
    {
      "inputs": [
        {
          "internalType": "uint256",
          "name": "tokenId",
          "type": "uint256"
        }
      ],
      "name": "getApproved",
      "outputs": [
        {
          "internalType": "address",
          "name": "",
          "type": "address"
        }
      ],
      "stateMutability": "view",
      "type": "function"
    },
    {
      "inputs": [
        {
          "internalType": "uint256",
          "name": "heroId",
          "type": "uint256"
        }
      ],
      "name": "getGameSession",
      "outputs": [
        {
          "components": [
            {
              "internalType": "uint256",
              "name": "heroId",
              "type": "uint256"
            },
            {
              "internalType": "uint256",
              "name": "startTime",
              "type": "uint256"
            },
            {
              "internalType": "bool",
              "name": "isActive",
              "type": "bool"
            },
            {
              "internalType": "uint256",
              "name": "currentFloor",
              "type": "uint256"
            },
            {
              "internalType": "uint256",
              "name": "monstersDefeated",
              "type": "uint256"
            }
          ],
          "internalType": "struct RogueChain.GameSession",
          "name": "",
          "type": "tuple"
        }
      ],
      "stateMutability": "view",
      "type": "function"
    },
    {
      "inputs": [
        {
          "internalType": "uint256",
          "name": "heroId",
          "type": "uint256"
        }
      ],
      "name": "getHero",
      "outputs": [
        {
          "components": [
            {
              "internalType": "uint256",
              "name": "id",
              "type": "uint256"
            },
            {
              "internalType": "address",
              "name": "owner",
              "type": "address"
            },
            {
              "internalType": "uint256",
              "name": "level",
              "type": "uint256"
            },
            {
              "internalType": "uint256",
              "name": "experience",
              "type": "uint256"
            },
            {
              "internalType": "uint256",
              "name": "strength",
              "type": "uint256"
            },
            {
              "internalType": "uint256",
              "name": "agility",
              "type": "uint256"
            },
            {
              "internalType": "uint256",
              "name": "intelligence",
              "type": "uint256"
            },
            {
              "internalType": "uint256",
              "name": "vitality",
              "type": "uint256"
            },
            {
              "internalType": "uint256",
              "name": "luck",
              "type": "uint256"
            }
          ],
          "internalType": "struct RogueChain.Hero",
          "name": "",
          "type": "tuple"
        }
      ],
      "stateMutability": "view",
      "type": "function"
    },
    {
      "inputs": [
        {
          "internalType": "uint256",
          "name": "heroId",
          "type": "uint256"
        }
      ],
      "name": "getHeroStats",
      "outputs": [
        {
          "internalType": "uint256",
          "name": "level",
          "type": "uint256"
        },
        {
          "internalType": "uint256",
          "name": "experience",
          "type": "uint256"
        },
        {
          "internalType": "uint256",
          "name": "strength",
          "type": "uint256"
        },
        {
          "internalType": "uint256",
          "name": "agility",
          "type": "uint256"
        },
        {
          "internalType": "uint256",
          "name": "intelligence",
          "type": "uint256"
        },
        {
          "internalType": "uint256",
          "name": "vitality",
          "type": "uint256"
        },
        {
          "internalType": "uint256",
          "name": "luck",
          "type": "uint256"
        }
      ],
      "stateMutability": "view",
      "type": "function"
    },
    {
      "inputs": [],
      "name": "getMarketState",
      "outputs": [
        {
          "internalType": "enum RogueChain.MarketState",
          "name": "",
          "type": "uint8"
        }
      ],
      "stateMutability": "view",
      "type": "function"
    },
    {
      "inputs": [
        {
          "internalType": "address",
          "name": "user",
          "type": "address"
        }
      ],
      "name": "getUserHeroes",
      "outputs": [
        {
          "internalType": "uint256[]",
          "name": "",
          "type": "uint256[]"
        }
      ],
      "stateMutability": "view",
      "type": "function"
    },
    {
      "inputs": [
        {
          "internalType": "uint256",
          "name": "",
          "type": "uint256"
        }
      ],
      "name": "heroes",
      "outputs": [
        {
          "internalType": "uint256",
          "name": "id",
          "type": "uint256"
        },
        {
          "internalType": "address",
          "name": "owner",
          "type": "address"
        },
        {
          "internalType": "uint256",
          "name": "level",
          "type": "uint256"
        },
        {
          "internalType": "uint256",
          "name": "experience",
          "type": "uint256"
        },
        {
          "internalType": "uint256",
          "name": "strength",
          "type": "uint256"
        },
        {
          "internalType": "uint256",
          "name": "agility",
          "type": "uint256"
        },
        {
          "internalType": "uint256",
          "name": "intelligence",
          "type": "uint256"
        },
        {
          "internalType": "uint256",
          "name": "vitality",
          "type": "uint256"
        },
        {
          "internalType": "uint256",
          "name": "luck",
          "type": "uint256"
        }
      ],
      "stateMutability": "view",
      "type": "function"
    },
    {
      "inputs": [
        {
          "internalType": "address",
          "name": "owner",
          "type": "address"
        },
        {
          "internalType": "address",
          "name": "operator",
          "type": "address"
        }
      ],
      "name": "isApprovedForAll",
      "outputs": [
        {
          "internalType": "bool",
          "name": "",
          "type": "bool"
        }
      ],
      "stateMutability": "view",
      "type": "function"
    },
    {
      "inputs": [],
      "name": "mintHero",
      "outputs": [],
      "stateMutability": "nonpayable",
      "type": "function"
    },
    {
      "inputs": [],
      "name": "name",
      "outputs": [
        {
          "internalType": "string",
          "name": "",
          "type": "string"
        }
      ],
      "stateMutability": "view",
      "type": "function"
    },
    {
      "inputs": [],
      "name": "owner",
      "outputs": [
        {
          "internalType": "address",
          "name": "",
          "type": "address"
        }
      ],
      "stateMutability": "view",
      "type": "function"
    },
    {
      "inputs": [
        {
          "internalType": "uint256",
          "name": "tokenId",
          "type": "uint256"
        }
      ],
      "name": "ownerOf",
      "outputs": [
        {
          "internalType": "address",
          "name": "",
          "type": "address"
        }
      ],
      "stateMutability": "view",
      "type": "function"
    },
    {
      "inputs": [
        {
          "internalType": "bytes32",
          "name": "",
          "type": "bytes32"
        }
      ],
      "name": "pendingRequests",
      "outputs": [
        {
          "internalType": "uint256",
          "name": "heroId",
          "type": "uint256"
        },
        {
          "internalType": "uint256",
          "name": "timestamp",
          "type": "uint256"
        }
      ],
      "stateMutability": "view",
      "type": "function"
    },
    {
      "inputs": [],
      "name": "pyth",
      "outputs": [
        {
          "internalType": "contract IPyth",
          "name": "",
          "type": "address"
        }
      ],
      "stateMutability": "view",
      "type": "function"
    },
    {
      "inputs": [],
      "name": "pythEntropy",
      "outputs": [
        {
          "internalType": "address",
          "name": "",
          "type": "address"
        }
      ],
      "stateMutability": "view",
      "type": "function"
    },
    {
      "inputs": [
        {
          "internalType": "bytes32",
          "name": "",
          "type": "bytes32"
        }
      ],
      "name": "randomnessRequests",
      "outputs": [
        {
          "internalType": "address",
          "name": "",
          "type": "address"
        }
      ],
      "stateMutability": "view",
      "type": "function"
    },
    {
      "inputs": [],
      "name": "renounceOwnership",
      "outputs": [],
      "stateMutability": "nonpayable",
      "type": "function"
    },
    {
      "inputs": [],
      "name": "requestRandomness",
      "outputs": [],
      "stateMutability": "payable",
      "type": "function"
    },
    {
      "inputs": [
        {
          "internalType": "address",
          "name": "from",
          "type": "address"
        },
        {
          "internalType": "address",
          "name": "to",
          "type": "address"
        },
        {
          "internalType": "uint256",
          "name": "tokenId",
          "type": "uint256"
        }
      ],
      "name": "safeTransferFrom",
      "outputs": [],
      "stateMutability": "nonpayable",
      "type": "function"
    },
    {
      "inputs": [
        {
          "internalType": "address",
          "name": "from",
          "type": "address"
        },
        {
          "internalType": "address",
          "name": "to",
          "type": "address"
        },
        {
          "internalType": "uint256",
          "name": "tokenId",
          "type": "uint256"
        },
        {
          "internalType": "bytes",
          "name": "data",
          "type": "bytes"
        }
      ],
      "name": "safeTransferFrom",
      "outputs": [],
      "stateMutability": "nonpayable",
      "type": "function"
    },
    {
      "inputs": [
        {
          "internalType": "address",
          "name": "operator",
          "type": "address"
        },
        {
          "internalType": "bool",
          "name": "approved",
          "type": "bool"
        }
      ],
      "name": "setApprovalForAll",
      "outputs": [],
      "stateMutability": "nonpayable",
      "type": "function"
    },
    {
      "inputs": [
        {
          "internalType": "address",
          "name": "_pyth",
          "type": "address"
        }
      ],
      "name": "setPyth",
      "outputs": [],
      "stateMutability": "nonpayable",
      "type": "function"
    },
    {
      "inputs": [
        {
          "internalType": "uint256",
          "name": "heroId",
          "type": "uint256"
        }
      ],
      "name": "startGameSession",
      "outputs": [],
      "stateMutability": "nonpayable",
      "type": "function"
    },
    {
      "inputs": [
        {
          "internalType": "bytes4",
          "name": "interfaceId",
          "type": "bytes4"
        }
      ],
      "name": "supportsInterface",
      "outputs": [
        {
          "internalType": "bool",
          "name": "",
          "type": "bool"
        }
      ],
      "stateMutability": "view",
      "type": "function"
    },
    {
      "inputs": [],
      "name": "symbol",
      "outputs": [
        {
          "internalType": "string",
          "name": "",
          "type": "string"
        }
      ],
      "stateMutability": "view",
      "type": "function"
    },
    {
      "inputs": [
        {
          "internalType": "uint256",
          "name": "index",
          "type": "uint256"
        }
      ],
      "name": "tokenByIndex",
      "outputs": [
        {
          "internalType": "uint256",
          "name": "",
          "type": "uint256"
        }
      ],
      "stateMutability": "view",
      "type": "function"
    },
    {
      "inputs": [
        {
          "internalType": "address",
          "name": "owner",
          "type": "address"
        },
        {
          "internalType": "uint256",
          "name": "index",
          "type": "uint256"
        }
      ],
      "name": "tokenOfOwnerByIndex",
      "outputs": [
        {
          "internalType": "uint256",
          "name": "",
          "type": "uint256"
        }
      ],
      "stateMutability": "view",
      "type": "function"
    },
    {
      "inputs": [
        {
          "internalType": "uint256",
          "name": "tokenId",
          "type": "uint256"
        }
      ],
      "name": "tokenURI",
      "outputs": [
        {
          "internalType": "string",
          "name": "",
          "type": "string"
        }
      ],
      "stateMutability": "view",
      "type": "function"
    },
    {
      "inputs": [],
      "name": "totalSupply",
      "outputs": [
        {
          "internalType": "uint256",
          "name": "",
          "type": "uint256"
        }
      ],
      "stateMutability": "view",
      "type": "function"
    },
    {
      "inputs": [
        {
          "internalType": "address",
          "name": "from",
          "type": "address"
        },
        {
          "internalType": "address",
          "name": "to",
          "type": "address"
        },
        {
          "internalType": "uint256",
          "name": "tokenId",
          "type": "uint256"
        }
      ],
      "name": "transferFrom",
      "outputs": [],
      "stateMutability": "nonpayable",
      "type": "function"
    },
    {
      "inputs": [
        {
          "internalType": "address",
          "name": "newOwner",
          "type": "address"
        }
      ],
      "name": "transferOwnership",
      "outputs": [],
      "stateMutability": "nonpayable",
      "type": "function"
    },
    {
      "inputs": [
        {
          "internalType": "address",
          "name": "",
          "type": "address"
        },
        {
          "internalType": "uint256",
          "name": "",
          "type": "uint256"
        }
      ],
      "name": "userHeroes",
      "outputs": [
        {
          "internalType": "uint256",
          "name": "",
          "type": "uint256"
        }
      ],
      "stateMutability": "view",
      "type": "function"
    },
    {
      "inputs": [],
      "name": "withdraw",
      "outputs": [],
      "stateMutability": "nonpayable",
      "type": "function"
    }
  ],
  "bytecode": "0x608060405234801561000f575f5ffd5b506040516162e13803806162e183398181016040528101906100319190610332565b336040518060400160405280601181526020017f526f677565436861696e204865726f65730000000000000000000000000000008152506040518060400160405280600381526020017f5243480000000000000000000000000000000000000000000000000000000000815250815f90816100ac91906105d3565b5080600190816100bc91906105d3565b5050505f73ffffffffffffffffffffffffffffffffffffffff168173ffffffffffffffffffffffffffffffffffffffff160361012f575f6040517f1e4fbdf700000000000000000000000000000000000000000000000000000000815260040161012691906106b1565b60405180910390fd5b61013e816101de60201b60201c565b506001600b819055508360105f6101000a81548173ffffffffffffffffffffffffffffffffffffffff021916908373ffffffffffffffffffffffffffffffffffffffff1602179055508260115f6101000a81548173ffffffffffffffffffffffffffffffffffffffff021916908373ffffffffffffffffffffffffffffffffffffffff1602179055508160128190555080601381905550505050506106ca565b5f600a5f9054906101000a900473ffffffffffffffffffffffffffffffffffffffff16905081600a5f6101000a81548173ffffffffffffffffffffffffffffffffffffffff021916908373ffffffffffffffffffffffffffffffffffffffff1602179055508173ffffffffffffffffffffffffffffffffffffffff168173ffffffffffffffffffffffffffffffffffffffff167f8be0079c531659141344cd1fd0a4f28419497f9722a3daafe3b4186f6b6457e060405160405180910390a35050565b5f5ffd5b5f73ffffffffffffffffffffffffffffffffffffffff82169050919050565b5f6102ce826102a5565b9050919050565b6102de816102c4565b81146102e8575f5ffd5b50565b5f815190506102f9816102d5565b92915050565b5f819050919050565b610311816102ff565b811461031b575f5ffd5b50565b5f8151905061032c81610308565b92915050565b5f5f5f5f6080858703121561034a576103496102a1565b5b5f610357878288016102eb565b9450506020610368878288016102eb565b93505060406103798782880161031e565b925050606061038a8782880161031e565b91505092959194509250565b5f81519050919050565b7f4e487b71000000000000000000000000000000000000000000000000000000005f52604160045260245ffd5b7f4e487b71000000000000000000000000000000000000000000000000000000005f52602260045260245ffd5b5f600282049050600182168061041157607f821691505b602082108103610424576104236103cd565b5b50919050565b5f819050815f5260205f209050919050565b5f6020601f8301049050919050565b5f82821b905092915050565b5f600883026104867fffffffffffffffffffffffffffffffffffffffffffffffffffffffffffffffff8261044b565b610490868361044b565b95508019841693508086168417925050509392505050565b5f819050919050565b5f819050919050565b5f6104d46104cf6104ca846104a8565b6104b1565b6104a8565b9050919050565b5f819050919050565b6104ed836104ba565b6105016104f9826104db565b848454610457565b825550505050565b5f5f905090565b610518610509565b6105238184846104e4565b505050565b5b818110156105465761053b5f82610510565b600181019050610529565b5050565b601f82111561058b5761055c8161042a565b6105658461043c565b81016020851015610574578190505b6105886105808561043c565b830182610528565b50505b505050565b5f82821c905092915050565b5f6105ab5f1984600802610590565b1980831691505092915050565b5f6105c3838361059c565b9150826002028217905092915050565b6105dc82610396565b67ffffffffffffffff8111156105f5576105f46103a0565b5b6105ff82546103fa565b61060a82828561054a565b5f60209050601f83116001811461063b575f8415610629578287015190505b61063385826105b8565b86555061069a565b601f1984166106498661042a565b5f5b828110156106705784890151825560018201915060208501945060208101905061064b565b8683101561068d5784890151610689601f89168261059c565b8355505b6001600288020188555050505b505050505050565b6106ab816102c4565b82525050565b5f6020820190506106c45f8301846106a2565b92915050565b615c0a806106d75f395ff3fe608060405260043610610266575f3560e01c8063835a439811610143578063cfe68a4e116100b5578063e985e9c511610079578063e985e9c514610991578063ee22fd6f146109cd578063f2fde38b146109f5578063f8413b0714610a1d578063f98d06f014610a27578063fbb0ab0014610a5157610266565b8063cfe68a4e146108d5578063d2e65a7c146108ff578063d7129b4314610927578063d816574314610951578063e92003371461097b57610266565b8063a22cb46511610107578063a22cb4651461079f578063a49062d4146107c7578063a8d4a03b146107f1578063b88d4fde14610835578063c87b56dd1461085d578063cdf7d8561461089957610266565b8063835a4398146106a357806389cea22a146106e55780638ab06fea1461070f5780638da5cb5b1461074b57806395d89b411461077557610266565b806334a8014b116101dc5780634f6ccce7116101a05780634f6ccce7146105755780635e619b78146105b15780636107ac13146105ed5780636352211e1461061557806370a0823114610651578063715018a61461068d57610266565b806334a8014b1461049f57806335b36771146104df5780633ccfd60b1461051b5780634105f8d71461053157806342842e0e1461054d57610266565b80631c00d3bf1161022e5780631c00d3bf1461035e57806321d801111461038657806323b872dd146103c25780632795ad20146103ea5780632d55f737146104275780632f745c591461046357610266565b806301ffc9a71461026a57806306fdde03146102a6578063081812fc146102d0578063095ea7b31461030c57806318160ddd14610334575b5f5ffd5b348015610275575f5ffd5b50610290600480360381019061028b91906142ff565b610a7b565b60405161029d9190614344565b60405180910390f35b3480156102b1575f5ffd5b506102ba610a8c565b6040516102c791906143cd565b60405180910390f35b3480156102db575f5ffd5b506102f660048036038101906102f19190614420565b610b1b565b604051610303919061448a565b60405180910390f35b348015610317575f5ffd5b50610332600480360381019061032d91906144cd565b610b36565b005b34801561033f575f5ffd5b50610348610b4c565b604051610355919061451a565b60405180910390f35b348015610369575f5ffd5b50610384600480360381019061037f9190614420565b610b58565b005b348015610391575f5ffd5b506103ac60048036038101906103a79190614420565b610d30565b6040516103b99190614606565b60405180910390f35b3480156103cd575f5ffd5b506103e860048036038101906103e39190614620565b610e78565b005b3480156103f5575f5ffd5b50610410600480360381019061040b91906146a3565b610f77565b60405161041e9291906146ce565b60405180910390f35b348015610432575f5ffd5b5061044d600480360381019061044891906144cd565b610f97565b60405161045a919061451a565b60405180910390f35b34801561046e575f5ffd5b50610489600480360381019061048491906144cd565b610fc2565b604051610496919061451a565b60405180910390f35b3480156104aa575f5ffd5b506104c560048036038101906104c09190614420565b611066565b6040516104d69594939291906146f5565b60405180910390f35b3480156104ea575f5ffd5b5061050560048036038101906105009190614783565b6110a4565b604051610512919061451a565b60405180910390f35b348015610526575f5ffd5b5061052f611289565b005b61054b600480360381019061054691906149cf565b6112de565b005b348015610558575f5ffd5b50610573600480360381019061056e9190614620565b611673565b005b348015610580575f5ffd5b5061059b60048036038101906105969190614420565b611692565b6040516105a8919061451a565b60405180910390f35b3480156105bc575f5ffd5b506105d760048036038101906105d291906146a3565b611704565b6040516105e4919061448a565b60405180910390f35b3480156105f8575f5ffd5b50610613600480360381019061060e9190614a29565b611734565b005b348015610620575f5ffd5b5061063b60048036038101906106369190614420565b6118a5565b604051610648919061448a565b60405180910390f35b34801561065c575f5ffd5b5061067760048036038101906106729190614a67565b6118b6565b604051610684919061451a565b60405180910390f35b348015610698575f5ffd5b506106a161196c565b005b3480156106ae575f5ffd5b506106c960048036038101906106c49190614420565b61197f565b6040516106dc9796959493929190614a92565b60405180910390f35b3480156106f0575f5ffd5b506106f9611b00565b604051610706919061448a565b60405180910390f35b34801561071a575f5ffd5b5061073560048036038101906107309190614420565b611b25565b6040516107429190614b74565b60405180910390f35b348015610756575f5ffd5b5061075f611c09565b60405161076c919061448a565b60405180910390f35b348015610780575f5ffd5b50610789611c31565b60405161079691906143cd565b60405180910390f35b3480156107aa575f5ffd5b506107c560048036038101906107c09190614bb7565b611cc1565b005b3480156107d2575f5ffd5b506107db611cd7565b6040516107e8919061451a565b60405180910390f35b3480156107fc575f5ffd5b5061081760048036038101906108129190614420565b611cdc565b60405161082c99989796959493929190614bf5565b60405180910390f35b348015610840575f5ffd5b5061085b60048036038101906108569190614c80565b611d45565b005b348015610868575f5ffd5b50610883600480360381019061087e9190614420565b611d6a565b60405161089091906143cd565b60405180910390f35b3480156108a4575f5ffd5b506108bf60048036038101906108ba9190614a67565b611dd0565b6040516108cc9190614da8565b60405180910390f35b3480156108e0575f5ffd5b506108e9611e63565b6040516108f69190614dd7565b60405180910390f35b34801561090a575f5ffd5b5061092560048036038101906109209190614420565b611e69565b005b348015610932575f5ffd5b5061093b612034565b604051610948919061451a565b60405180910390f35b34801561095c575f5ffd5b50610965612039565b6040516109729190614e63565b60405180910390f35b348015610986575f5ffd5b5061098f612140565b005b34801561099c575f5ffd5b506109b760048036038101906109b29190614e7c565b61234e565b6040516109c49190614344565b60405180910390f35b3480156109d8575f5ffd5b506109f360048036038101906109ee9190614a67565b6123dc565b005b348015610a00575f5ffd5b50610a1b6004803603810190610a169190614a67565b612427565b005b610a256124ab565b005b348015610a32575f5ffd5b50610a3b612578565b604051610a489190614f15565b60405180910390f35b348015610a5c575f5ffd5b50610a6561259d565b604051610a729190614dd7565b60405180910390f35b5f610a85826125a3565b9050919050565b60605f8054610a9a90614f5b565b80601f0160208091040260200160405190810160405280929190818152602001828054610ac690614f5b565b8015610b115780601f10610ae857610100808354040283529160200191610b11565b820191905f5260205f20905b815481529060010190602001808311610af457829003601f168201915b5050505050905090565b5f610b258261261c565b50610b2f826126a2565b9050919050565b610b488282610b436126db565b6126e2565b5050565b5f600880549050905090565b803373ffffffffffffffffffffffffffffffffffffffff16610b79826118a5565b73ffffffffffffffffffffffffffffffffffffffff1614610bcf576040517f08c379a0000000000000000000000000000000000000000000000000000000008152600401610bc690614fd5565b60405180910390fd5b815f73ffffffffffffffffffffffffffffffffffffffff16610bf0826126f4565b73ffffffffffffffffffffffffffffffffffffffff1603610c46576040517f08c379a0000000000000000000000000000000000000000000000000000000008152600401610c3d9061503d565b60405180910390fd5b600f5f8481526020019081526020015f206002015f9054906101000a900460ff1615610ca7576040517f08c379a0000000000000000000000000000000000000000000000000000000008152600401610c9e906150a5565b60405180910390fd5b6040518060a00160405280848152602001428152602001600115158152602001600181526020015f815250600f5f8581526020019081526020015f205f820151815f0155602082015181600101556040820151816002015f6101000a81548160ff0219169083151502179055506060820151816003015560808201518160040155905050505050565b610d38614214565b815f73ffffffffffffffffffffffffffffffffffffffff16610d59826126f4565b73ffffffffffffffffffffffffffffffffffffffff1603610daf576040517f08c379a0000000000000000000000000000000000000000000000000000000008152600401610da69061503d565b60405180910390fd5b600c5f8481526020019081526020015f20604051806101200160405290815f8201548152602001600182015f9054906101000a900473ffffffffffffffffffffffffffffffffffffffff1673ffffffffffffffffffffffffffffffffffffffff1673ffffffffffffffffffffffffffffffffffffffff168152602001600282015481526020016003820154815260200160048201548152602001600582015481526020016006820154815260200160078201548152602001600882015481525050915050919050565b5f73ffffffffffffffffffffffffffffffffffffffff168273ffffffffffffffffffffffffffffffffffffffff1603610ee8575f6040517f64a0ae92000000000000000000000000000000000000000000000000000000008152600401610edf919061448a565b60405180910390fd5b5f610efb8383610ef66126db565b61272d565b90508373ffffffffffffffffffffffffffffffffffffffff168173ffffffffffffffffffffffffffffffffffffffff1614610f71578382826040517f64283d7b000000000000000000000000000000000000000000000000000000008152600401610f68939291906150c3565b60405180910390fd5b50505050565b6015602052805f5260405f205f91509050805f0154908060010154905082565b600d602052815f5260405f208181548110610fb0575f80fd5b905f5260205f20015f91509150505481565b5f610fcc836118b6565b82106110115782826040517fa57d13dc0000000000000000000000000000000000000000000000000000000081526004016110089291906150f8565b60405180910390fd5b60065f8473ffffffffffffffffffffffffffffffffffffffff1673ffffffffffffffffffffffffffffffffffffffff1681526020019081526020015f205f8381526020019081526020015f2054905092915050565b600f602052805f5260405f205f91509050805f015490806001015490806002015f9054906101000a900460ff16908060030154908060040154905085565b5f5f6110ae612039565b90505f600c5f8681526020019081526020015f20604051806101200160405290815f8201548152602001600182015f9054906101000a900473ffffffffffffffffffffffffffffffffffffffff1673ffffffffffffffffffffffffffffffffffffffff1673ffffffffffffffffffffffffffffffffffffffff16815260200160028201548152602001600382015481526020016004820154815260200160058201548152602001600682015481526020016007820154815260200160088201548152505090505f602890505f6111838461290e565b90505f60038460400151611197919061514c565b9050601e8111156111a757601e90505b5f60058561010001518660e001518760c001518860a0015189608001516111ce919061518d565b6111d8919061518d565b6111e2919061518d565b6111ec919061518d565b6111f691906151ed565b9050601481111561120657601490505b5f600f601f8a611216919061521d565b67ffffffffffffffff1661122a9190615256565b90505f818385878961123c9190615296565b6112469190615296565b6112509190615296565b61125a9190615296565b9050600581121561126a57600590505b605f81131561127857605f90505b809850505050505050505092915050565b6112916129d5565b611299611c09565b73ffffffffffffffffffffffffffffffffffffffff166108fc4790811502906040515f60405180830381858888f193505050501580156112db573d5f5f3e3d5ffd5b50565b813373ffffffffffffffffffffffffffffffffffffffff166112ff826118a5565b73ffffffffffffffffffffffffffffffffffffffff1614611355576040517f08c379a000000000000000000000000000000000000000000000000000000000815260040161134c90614fd5565b60405180910390fd5b61135d612a5c565b5f600c5f8581526020019081526020015f2060020154116113b3576040517f08c379a00000000000000000000000000000000000000000000000000000000081526004016113aa9061503d565b60405180910390fd5b66038d7ea4c680003410156113fd576040517f08c379a00000000000000000000000000000000000000000000000000000000081526004016113f490615321565b60405180910390fd5b60105f9054906101000a900473ffffffffffffffffffffffffffffffffffffffff1673ffffffffffffffffffffffffffffffffffffffff1663ef9e5e28836040518263ffffffff1660e01b8152600401611457919061544c565b5f604051808303815f87803b15801561146e575f5ffd5b505af1158015611480573d5f5f3e3d5ffd5b505050505f4244853360405160200161149c94939291906154d1565b60405160208183030381529060405280519060200120905060405180604001604052808581526020014281525060155f8381526020019081526020015f205f820151815f0155602082015181600101559050503373ffffffffffffffffffffffffffffffffffffffff16817f24824956716588cf18c3cb557ee25fa952255246eb51235316882371d343c35560405160405180910390a35f61154060016064612aa2565b90505f5f600283611551919061551e565b14905080156115fd576001600c5f8881526020019081526020015f206002015f82825461157e919061518d565b925050819055506064600c5f8881526020019081526020015f206003015f8282546115a9919061518d565b92505081905550857f893dc3a1c121cdc44e6a41bff8d799deb7e50f9ad20e93c637f082cfaacd153c600c5f8981526020019081526020015f20600201546040516115f4919061451a565b60405180910390a25b66038d7ea4c68000341115611663573373ffffffffffffffffffffffffffffffffffffffff166108fc66038d7ea4c6800034611639919061554e565b90811502906040515f60405180830381858888f19350505050158015611661573d5f5f3e3d5ffd5b505b50505061166e612b0a565b505050565b61168d83838360405180602001604052805f815250611d45565b505050565b5f61169b610b4c565b82106116e0575f826040517fa57d13dc0000000000000000000000000000000000000000000000000000000081526004016116d79291906150f8565b60405180910390fd5b600882815481106116f4576116f3615581565b5b905f5260205f2001549050919050565b600e602052805f5260405f205f915054906101000a900473ffffffffffffffffffffffffffffffffffffffff1681565b60115f9054906101000a900473ffffffffffffffffffffffffffffffffffffffff1673ffffffffffffffffffffffffffffffffffffffff163373ffffffffffffffffffffffffffffffffffffffff16146117c3576040517f08c379a00000000000000000000000000000000000000000000000000000000081526004016117ba906155f8565b60405180910390fd5b5f60155f8481526020019081526020015f206040518060400160405290815f820154815260200160018201548152505090505f815f01511161183a576040517f08c379a000000000000000000000000000000000000000000000000000000000815260040161183190615660565b60405180910390fd5b611847815f015183612b14565b60155f8481526020019081526020015f205f5f82015f9055600182015f90555050827f3aee0db1a8da737d79e238c3eb48db0b31bf4748dd5c42f52c3625f00ad06ce783604051611898919061568d565b60405180910390a2505050565b5f6118af8261261c565b9050919050565b5f5f73ffffffffffffffffffffffffffffffffffffffff168273ffffffffffffffffffffffffffffffffffffffff1603611927575f6040517f89c62b6400000000000000000000000000000000000000000000000000000000815260040161191e919061448a565b60405180910390fd5b60035f8373ffffffffffffffffffffffffffffffffffffffff1673ffffffffffffffffffffffffffffffffffffffff1681526020019081526020015f20549050919050565b6119746129d5565b61197d5f612bff565b565b5f5f5f5f5f5f5f875f73ffffffffffffffffffffffffffffffffffffffff166119a7826126f4565b73ffffffffffffffffffffffffffffffffffffffff16036119fd576040517f08c379a00000000000000000000000000000000000000000000000000000000081526004016119f49061503d565b60405180910390fd5b5f600c5f8b81526020019081526020015f20604051806101200160405290815f8201548152602001600182015f9054906101000a900473ffffffffffffffffffffffffffffffffffffffff1673ffffffffffffffffffffffffffffffffffffffff1673ffffffffffffffffffffffffffffffffffffffff16815260200160028201548152602001600382015481526020016004820154815260200160058201548152602001600682015481526020016007820154815260200160088201548152505090508060400151816060015182608001518360a001518460c001518560e0015186610100015198509850985098509850985098505050919395979092949650565b60115f9054906101000a900473ffffffffffffffffffffffffffffffffffffffff1681565b611b2d61426d565b815f73ffffffffffffffffffffffffffffffffffffffff16611b4e826126f4565b73ffffffffffffffffffffffffffffffffffffffff1603611ba4576040517f08c379a0000000000000000000000000000000000000000000000000000000008152600401611b9b9061503d565b60405180910390fd5b600f5f8481526020019081526020015f206040518060a00160405290815f820154815260200160018201548152602001600282015f9054906101000a900460ff1615151515815260200160038201548152602001600482015481525050915050919050565b5f600a5f9054906101000a900473ffffffffffffffffffffffffffffffffffffffff16905090565b606060018054611c4090614f5b565b80601f0160208091040260200160405190810160405280929190818152602001828054611c6c90614f5b565b8015611cb75780601f10611c8e57610100808354040283529160200191611cb7565b820191905f5260205f20905b815481529060010190602001808311611c9a57829003601f168201915b5050505050905090565b611cd3611ccc6126db565b8383612cc2565b5050565b606481565b600c602052805f5260405f205f91509050805f015490806001015f9054906101000a900473ffffffffffffffffffffffffffffffffffffffff16908060020154908060030154908060040154908060050154908060060154908060070154908060080154905089565b611d50848484610e78565b611d64611d5b6126db565b85858585612e2b565b50505050565b6060611d758261261c565b505f611d7f612fd7565b90505f815111611d9d5760405180602001604052805f815250611dc8565b80611da784612fed565b604051602001611db89291906156e0565b6040516020818303038152906040525b915050919050565b6060600d5f8373ffffffffffffffffffffffffffffffffffffffff1673ffffffffffffffffffffffffffffffffffffffff1681526020019081526020015f20805480602002602001604051908101604052809291908181526020018280548015611e5757602002820191905f5260205f20905b815481526020019060010190808311611e43575b50505050509050919050565b60125481565b803373ffffffffffffffffffffffffffffffffffffffff16611e8a826118a5565b73ffffffffffffffffffffffffffffffffffffffff1614611ee0576040517f08c379a0000000000000000000000000000000000000000000000000000000008152600401611ed790614fd5565b60405180910390fd5b815f73ffffffffffffffffffffffffffffffffffffffff16611f01826126f4565b73ffffffffffffffffffffffffffffffffffffffff1603611f57576040517f08c379a0000000000000000000000000000000000000000000000000000000008152600401611f4e9061503d565b60405180910390fd5b600f5f8481526020019081526020015f206002015f9054906101000a900460ff16611fb7576040517f08c379a0000000000000000000000000000000000000000000000000000000008152600401611fae9061574d565b60405180910390fd5b5f600f5f8581526020019081526020015f2090505f816002015f6101000a81548160ff0219169083151502179055505f600a8260040154611ff8919061514c565b905080600c5f8781526020019081526020015f206003015f82825461201d919061518d565b9250508190555061202d856130b7565b5050505050565b606481565b5f60105f9054906101000a900473ffffffffffffffffffffffffffffffffffffffff1673ffffffffffffffffffffffffffffffffffffffff1663a4ae35e0601254610e106040518363ffffffff1660e01b815260040161209a9291906157a4565b608060405180830381865afa9250505080156120d457506040513d601f19601f820116820180604052508101906120d191906158d8565b60015b6120e1576001905061213d565b642e90edd000815f015160070b12156120fd575f91505061213d565b6445d964b800815f015160070b121561211a57600191505061213d565b645d21dba000815f015160070b121561213757600291505061213d565b60039150505b90565b5f60145f81548092919061215390615903565b919050559050612163338261320f565b6040518061012001604052808281526020013373ffffffffffffffffffffffffffffffffffffffff168152602001600181526020015f81526020016121aa600a6014612aa2565b81526020016121bb600a6014612aa2565b81526020016121cc600a6014612aa2565b81526020016121dd600a6014612aa2565b81526020016121ee6005600f612aa2565b815250600c5f8381526020019081526020015f205f820151815f01556020820151816001015f6101000a81548173ffffffffffffffffffffffffffffffffffffffff021916908373ffffffffffffffffffffffffffffffffffffffff16021790555060408201518160020155606082015181600301556080820151816004015560a0820151816005015560c0820151816006015560e082015181600701556101008201518160080155905050600d5f3373ffffffffffffffffffffffffffffffffffffffff1673ffffffffffffffffffffffffffffffffffffffff1681526020019081526020015f2081908060018154018082558091505060019003905f5260205f20015f90919091909150553373ffffffffffffffffffffffffffffffffffffffff16817f1ff83751d356c48789f84e073266f617fdfe6d8a24b572efe194288e748acce060016040516123439190615983565b60405180910390a350565b5f60055f8473ffffffffffffffffffffffffffffffffffffffff1673ffffffffffffffffffffffffffffffffffffffff1681526020019081526020015f205f8373ffffffffffffffffffffffffffffffffffffffff1673ffffffffffffffffffffffffffffffffffffffff1681526020019081526020015f205f9054906101000a900460ff16905092915050565b6123e46129d5565b8060105f6101000a81548173ffffffffffffffffffffffffffffffffffffffff021916908373ffffffffffffffffffffffffffffffffffffffff16021790555050565b61242f6129d5565b5f73ffffffffffffffffffffffffffffffffffffffff168173ffffffffffffffffffffffffffffffffffffffff160361249f575f6040517f1e4fbdf7000000000000000000000000000000000000000000000000000000008152600401612496919061448a565b60405180910390fd5b6124a881612bff565b50565b66038d7ea4c680003410156124f5576040517f08c379a00000000000000000000000000000000000000000000000000000000081526004016124ec90615a0c565b60405180910390fd5b5f42443360405160200161250b93929190615a2a565b604051602081830303815290604052805190602001205f1c90503373ffffffffffffffffffffffffffffffffffffffff16815f1b7f24824956716588cf18c3cb557ee25fa952255246eb51235316882371d343c35560405160405180910390a3612575338261322c565b50565b60105f9054906101000a900473ffffffffffffffffffffffffffffffffffffffff1681565b60135481565b5f7f780e9d63000000000000000000000000000000000000000000000000000000007bffffffffffffffffffffffffffffffffffffffffffffffffffffffff1916827bffffffffffffffffffffffffffffffffffffffffffffffffffffffff19161480612615575061261482613230565b5b9050919050565b5f5f612627836126f4565b90505f73ffffffffffffffffffffffffffffffffffffffff168173ffffffffffffffffffffffffffffffffffffffff160361269957826040517f7e273289000000000000000000000000000000000000000000000000000000008152600401612690919061451a565b60405180910390fd5b80915050919050565b5f60045f8381526020019081526020015f205f9054906101000a900473ffffffffffffffffffffffffffffffffffffffff169050919050565b5f33905090565b6126ef8383836001613311565b505050565b5f60025f8381526020019081526020015f205f9054906101000a900473ffffffffffffffffffffffffffffffffffffffff169050919050565b5f5f612738846126f4565b90505f73ffffffffffffffffffffffffffffffffffffffff168173ffffffffffffffffffffffffffffffffffffffff1614612864575f600d5f8373ffffffffffffffffffffffffffffffffffffffff1673ffffffffffffffffffffffffffffffffffffffff1681526020019081526020015f2090505f5f90505b818054905081101561286157858282815481106127d2576127d1615581565b5b905f5260205f200154036128545781600183805490506127f2919061554e565b8154811061280357612802615581565b5b905f5260205f20015482828154811061281f5761281e615581565b5b905f5260205f2001819055508180548061283c5761283b615a66565b5b600190038181905f5260205f20015f90559055612861565b80806001019150506127b2565b50505b5f73ffffffffffffffffffffffffffffffffffffffff168573ffffffffffffffffffffffffffffffffffffffff16146128f957600d5f8673ffffffffffffffffffffffffffffffffffffffff1673ffffffffffffffffffffffffffffffffffffffff1681526020019081526020015f2084908060018154018082558091505060019003905f5260205f20015f90919091909150555b6129048585856134d0565b9150509392505050565b5f5f600381111561292257612921614df0565b5b82600381111561293557612934614df0565b5b03612962577fffffffffffffffffffffffffffffffffffffffffffffffffffffffffffffffe790506129d0565b6001600381111561297657612975614df0565b5b82600381111561298957612988614df0565b5b03612996575f90506129d0565b600260038111156129aa576129a9614df0565b5b8260038111156129bd576129bc614df0565b5b036129cb57601990506129d0565b602890505b919050565b6129dd6126db565b73ffffffffffffffffffffffffffffffffffffffff166129fb611c09565b73ffffffffffffffffffffffffffffffffffffffff1614612a5a57612a1e6126db565b6040517f118cdaa7000000000000000000000000000000000000000000000000000000008152600401612a51919061448a565b60405180910390fd5b565b6002600b5403612a98576040517f3ee5aeb500000000000000000000000000000000000000000000000000000000815260040160405180910390fd5b6002600b81905550565b5f5f424433604051602001612ab993929190615a2a565b604051602081830303815290604052805190602001205f1c905060018484612ae1919061554e565b612aeb919061518d565b81612af6919061551e565b84612b01919061518d565b91505092915050565b6001600b81905550565b5f612b1f83836110a4565b90505f612b2a612039565b90505f82606485612b3b919061521d565b67ffffffffffffffff161090508015612bab57612b5a856001846135ea565b847f3b43f363a2b7a22058b5ccc4932884dd959e821525241e3c50b6f580945bcfb784846003811115612b9057612b8f614df0565b5b604051612b9e929190615aae565b60405180910390a2612bf8565b847fff378e65c32bfe98e4d53c9edcf30cbfca7da718a1c415f869f9193e55ea414884846003811115612be157612be0614df0565b5b604051612bef929190615aae565b60405180910390a25b5050505050565b5f600a5f9054906101000a900473ffffffffffffffffffffffffffffffffffffffff16905081600a5f6101000a81548173ffffffffffffffffffffffffffffffffffffffff021916908373ffffffffffffffffffffffffffffffffffffffff1602179055508173ffffffffffffffffffffffffffffffffffffffff168173ffffffffffffffffffffffffffffffffffffffff167f8be0079c531659141344cd1fd0a4f28419497f9722a3daafe3b4186f6b6457e060405160405180910390a35050565b5f73ffffffffffffffffffffffffffffffffffffffff168273ffffffffffffffffffffffffffffffffffffffff1603612d3257816040517f5b08ba18000000000000000000000000000000000000000000000000000000008152600401612d29919061448a565b60405180910390fd5b8060055f8573ffffffffffffffffffffffffffffffffffffffff1673ffffffffffffffffffffffffffffffffffffffff1681526020019081526020015f205f8473ffffffffffffffffffffffffffffffffffffffff1673ffffffffffffffffffffffffffffffffffffffff1681526020019081526020015f205f6101000a81548160ff0219169083151502179055508173ffffffffffffffffffffffffffffffffffffffff168373ffffffffffffffffffffffffffffffffffffffff167f17307eab39ab6107e8899845ad3d59bd9653f200f220920489ca2b5937696c3183604051612e1e9190614344565b60405180910390a3505050565b5f8373ffffffffffffffffffffffffffffffffffffffff163b1115612fd0578273ffffffffffffffffffffffffffffffffffffffff1663150b7a02868685856040518563ffffffff1660e01b8152600401612e899493929190615b1d565b6020604051808303815f875af1925050508015612ec457506040513d601f19601f82011682018060405250810190612ec19190615b7b565b60015b612f45573d805f8114612ef2576040519150601f19603f3d011682016040523d82523d5f602084013e612ef7565b606091505b505f815103612f3d57836040517f64a0ae92000000000000000000000000000000000000000000000000000000008152600401612f34919061448a565b60405180910390fd5b805160208201fd5b63150b7a0260e01b7bffffffffffffffffffffffffffffffffffffffffffffffffffffffff1916817bffffffffffffffffffffffffffffffffffffffffffffffffffffffff191614612fce57836040517f64a0ae92000000000000000000000000000000000000000000000000000000008152600401612fc5919061448a565b60405180910390fd5b505b5050505050565b606060405180602001604052805f815250905090565b60605f6001612ffb84613712565b0190505f8167ffffffffffffffff811115613019576130186147c5565b5b6040519080825280601f01601f19166020018201604052801561304b5781602001600182028036833780820191505090505b5090505f82602083010190505b6001156130ac578080600190039150507f3031323334353637383961626364656600000000000000000000000000000000600a86061a8153600a85816130a1576130a06151c0565b5b0494505f8503613058575b819350505050919050565b5f600c5f8381526020019081526020015f2090505f606482600201546130dd919061514c565b9050808260030154101580156130f7575060648260020154105b1561320a57816002015f81548092919061311090615903565b919050555061312160016003612aa2565b826004015f828254613133919061518d565b9250508190555061314660016003612aa2565b826005015f828254613158919061518d565b9250508190555061316b60016003612aa2565b826006015f82825461317d919061518d565b9250508190555061319060016003612aa2565b826007015f8282546131a2919061518d565b925050819055506131b45f6002612aa2565b826008015f8282546131c6919061518d565b92505081905550827f893dc3a1c121cdc44e6a41bff8d799deb7e50f9ad20e93c637f082cfaacd153c8360020154604051613201919061451a565b60405180910390a25b505050565b613228828260405180602001604052805f815250613863565b5050565b5050565b5f7f80ac58cd000000000000000000000000000000000000000000000000000000007bffffffffffffffffffffffffffffffffffffffffffffffffffffffff1916827bffffffffffffffffffffffffffffffffffffffffffffffffffffffff191614806132fa57507f5b5e139f000000000000000000000000000000000000000000000000000000007bffffffffffffffffffffffffffffffffffffffffffffffffffffffff1916827bffffffffffffffffffffffffffffffffffffffffffffffffffffffff1916145b8061330a575061330982613886565b5b9050919050565b808061334957505f73ffffffffffffffffffffffffffffffffffffffff168273ffffffffffffffffffffffffffffffffffffffff1614155b1561347b575f6133588461261c565b90505f73ffffffffffffffffffffffffffffffffffffffff168373ffffffffffffffffffffffffffffffffffffffff16141580156133c257508273ffffffffffffffffffffffffffffffffffffffff168173ffffffffffffffffffffffffffffffffffffffff1614155b80156133d557506133d3818461234e565b155b1561341757826040517fa9fbf51f00000000000000000000000000000000000000000000000000000000815260040161340e919061448a565b60405180910390fd5b811561347957838573ffffffffffffffffffffffffffffffffffffffff168273ffffffffffffffffffffffffffffffffffffffff167f8c5be1e5ebec7d5bd14f71427d1e84f3dd0314c0f7b2291e5b200ac8c7c3b92560405160405180910390a45b505b8360045f8581526020019081526020015f205f6101000a81548173ffffffffffffffffffffffffffffffffffffffff021916908373ffffffffffffffffffffffffffffffffffffffff16021790555050505050565b5f5f6134dd8585856138ef565b90505f73ffffffffffffffffffffffffffffffffffffffff168173ffffffffffffffffffffffffffffffffffffffff16036135205761351b84613afa565b61355f565b8473ffffffffffffffffffffffffffffffffffffffff168173ffffffffffffffffffffffffffffffffffffffff161461355e5761355d8185613b3e565b5b5b5f73ffffffffffffffffffffffffffffffffffffffff168573ffffffffffffffffffffffffffffffffffffffff16036135a05761359b84613c15565b6135df565b8473ffffffffffffffffffffffffffffffffffffffff168173ffffffffffffffffffffffffffffffffffffffff16146135de576135dd8585613cd5565b5b5b809150509392505050565b811561370d575f606490505f6135ff83613d59565b90505f60648284613610919061514c565b61361a91906151ed565b905080600c5f8881526020019081526020015f206003015f82825461363f919061518d565b92505081905550613663600c5f8881526020019081526020015f2060030154613e03565b600c5f8881526020019081526020015f2060020181905550857f893dc3a1c121cdc44e6a41bff8d799deb7e50f9ad20e93c637f082cfaacd153c600c5f8981526020019081526020015f20600201546040516136bf919061451a565b60405180910390a2857f99e98b5ebdbbb637f7b71effb4d8524e9d51047520f1780f0eb644625cd02897826136f387613e24565b604051613701929190615ba6565b60405180910390a25050505b505050565b5f5f5f90507a184f03e93ff9f4daa797ed6e38ed64bf6a1f010000000000000000831061376e577a184f03e93ff9f4daa797ed6e38ed64bf6a1f0100000000000000008381613764576137636151c0565b5b0492506040810190505b6d04ee2d6d415b85acef810000000083106137ab576d04ee2d6d415b85acef810000000083816137a1576137a06151c0565b5b0492506020810190505b662386f26fc1000083106137da57662386f26fc1000083816137d0576137cf6151c0565b5b0492506010810190505b6305f5e1008310613803576305f5e10083816137f9576137f86151c0565b5b0492506008810190505b612710831061382857612710838161381e5761381d6151c0565b5b0492506004810190505b6064831061384b5760648381613841576138406151c0565b5b0492506002810190505b600a831061385a576001810190505b80915050919050565b61386d8383613f9e565b6138816138786126db565b5f858585612e2b565b505050565b5f7f01ffc9a7000000000000000000000000000000000000000000000000000000007bffffffffffffffffffffffffffffffffffffffffffffffffffffffff1916827bffffffffffffffffffffffffffffffffffffffffffffffffffffffff1916149050919050565b5f5f6138fa846126f4565b90505f73ffffffffffffffffffffffffffffffffffffffff168373ffffffffffffffffffffffffffffffffffffffff161461393b5761393a818486614091565b5b5f73ffffffffffffffffffffffffffffffffffffffff168173ffffffffffffffffffffffffffffffffffffffff16146139c65761397a5f855f5f613311565b600160035f8373ffffffffffffffffffffffffffffffffffffffff1673ffffffffffffffffffffffffffffffffffffffff1681526020019081526020015f205f82825403925050819055505b5f73ffffffffffffffffffffffffffffffffffffffff168573ffffffffffffffffffffffffffffffffffffffff1614613a4557600160035f8773ffffffffffffffffffffffffffffffffffffffff1673ffffffffffffffffffffffffffffffffffffffff1681526020019081526020015f205f82825401925050819055505b8460025f8681526020019081526020015f205f6101000a81548173ffffffffffffffffffffffffffffffffffffffff021916908373ffffffffffffffffffffffffffffffffffffffff160217905550838573ffffffffffffffffffffffffffffffffffffffff168273ffffffffffffffffffffffffffffffffffffffff167fddf252ad1be2c89b69c2b068fc378daa952ba7f163c4a11628f55a4df523b3ef60405160405180910390a4809150509392505050565b60088054905060095f8381526020019081526020015f2081905550600881908060018154018082558091505060019003905f5260205f20015f909190919091505550565b5f613b48836118b6565b90505f60075f8481526020019081526020015f205490505f60065f8673ffffffffffffffffffffffffffffffffffffffff1673ffffffffffffffffffffffffffffffffffffffff1681526020019081526020015f209050828214613be7575f815f8581526020019081526020015f2054905080825f8581526020019081526020015f20819055508260075f8381526020019081526020015f2081905550505b60075f8581526020019081526020015f205f9055805f8481526020019081526020015f205f90555050505050565b5f6001600880549050613c28919061554e565b90505f60095f8481526020019081526020015f205490505f60088381548110613c5457613c53615581565b5b905f5260205f20015490508060088381548110613c7457613c73615581565b5b905f5260205f2001819055508160095f8381526020019081526020015f208190555060095f8581526020019081526020015f205f90556008805480613cbc57613cbb615a66565b5b600190038181905f5260205f20015f9055905550505050565b5f6001613ce1846118b6565b613ceb919061554e565b90508160065f8573ffffffffffffffffffffffffffffffffffffffff1673ffffffffffffffffffffffffffffffffffffffff1681526020019081526020015f205f8381526020019081526020015f20819055508060075f8481526020019081526020015f2081905550505050565b5f5f6003811115613d6d57613d6c614df0565b5b826003811115613d8057613d7f614df0565b5b03613d8e5760329050613dfe565b60016003811115613da257613da1614df0565b5b826003811115613db557613db4614df0565b5b03613dc35760649050613dfe565b60026003811115613dd757613dd6614df0565b5b826003811115613dea57613de9614df0565b5b03613df85760c89050613dfe565b61012c90505b919050565b5f6001606483613e1391906151ed565b613e1d919061518d565b9050919050565b60605f6003811115613e3957613e38614df0565b5b826003811115613e4c57613e4b614df0565b5b03613e8e576040518060400160405280600b81526020017f42656172204d61726b65740000000000000000000000000000000000000000008152509050613f99565b60016003811115613ea257613ea1614df0565b5b826003811115613eb557613eb4614df0565b5b03613ef7576040518060400160405280600d81526020017f4e6f726d616c204d61726b6574000000000000000000000000000000000000008152509050613f99565b60026003811115613f0b57613f0a614df0565b5b826003811115613f1e57613f1d614df0565b5b03613f60576040518060400160405280600b81526020017f42756c6c204d61726b65740000000000000000000000000000000000000000008152509050613f99565b6040518060400160405280600e81526020017f45787472656d65204d61726b657400000000000000000000000000000000000081525090505b919050565b5f73ffffffffffffffffffffffffffffffffffffffff168273ffffffffffffffffffffffffffffffffffffffff160361400e575f6040517f64a0ae92000000000000000000000000000000000000000000000000000000008152600401614005919061448a565b60405180910390fd5b5f61401a83835f61272d565b90505f73ffffffffffffffffffffffffffffffffffffffff168173ffffffffffffffffffffffffffffffffffffffff161461408c575f6040517f73c6ac6e000000000000000000000000000000000000000000000000000000008152600401614083919061448a565b60405180910390fd5b505050565b61409c838383614154565b61414f575f73ffffffffffffffffffffffffffffffffffffffff168373ffffffffffffffffffffffffffffffffffffffff160361411057806040517f7e273289000000000000000000000000000000000000000000000000000000008152600401614107919061451a565b60405180910390fd5b81816040517f177e802f0000000000000000000000000000000000000000000000000000000081526004016141469291906150f8565b60405180910390fd5b505050565b5f5f73ffffffffffffffffffffffffffffffffffffffff168373ffffffffffffffffffffffffffffffffffffffff161415801561420b57508273ffffffffffffffffffffffffffffffffffffffff168473ffffffffffffffffffffffffffffffffffffffff1614806141cc57506141cb848461234e565b5b8061420a57508273ffffffffffffffffffffffffffffffffffffffff166141f2836126a2565b73ffffffffffffffffffffffffffffffffffffffff16145b5b90509392505050565b6040518061012001604052805f81526020015f73ffffffffffffffffffffffffffffffffffffffff1681526020015f81526020015f81526020015f81526020015f81526020015f81526020015f81526020015f81525090565b6040518060a001604052805f81526020015f81526020015f151581526020015f81526020015f81525090565b5f604051905090565b5f5ffd5b5f5ffd5b5f7fffffffff0000000000000000000000000000000000000000000000000000000082169050919050565b6142de816142aa565b81146142e8575f5ffd5b50565b5f813590506142f9816142d5565b92915050565b5f60208284031215614314576143136142a2565b5b5f614321848285016142eb565b91505092915050565b5f8115159050919050565b61433e8161432a565b82525050565b5f6020820190506143575f830184614335565b92915050565b5f81519050919050565b5f82825260208201905092915050565b8281835e5f83830152505050565b5f601f19601f8301169050919050565b5f61439f8261435d565b6143a98185614367565b93506143b9818560208601614377565b6143c281614385565b840191505092915050565b5f6020820190508181035f8301526143e58184614395565b905092915050565b5f819050919050565b6143ff816143ed565b8114614409575f5ffd5b50565b5f8135905061441a816143f6565b92915050565b5f60208284031215614435576144346142a2565b5b5f6144428482850161440c565b91505092915050565b5f73ffffffffffffffffffffffffffffffffffffffff82169050919050565b5f6144748261444b565b9050919050565b6144848161446a565b82525050565b5f60208201905061449d5f83018461447b565b92915050565b6144ac8161446a565b81146144b6575f5ffd5b50565b5f813590506144c7816144a3565b92915050565b5f5f604083850312156144e3576144e26142a2565b5b5f6144f0858286016144b9565b92505060206145018582860161440c565b9150509250929050565b614514816143ed565b82525050565b5f60208201905061452d5f83018461450b565b92915050565b61453c816143ed565b82525050565b61454b8161446a565b82525050565b61012082015f8201516145665f850182614533565b5060208201516145796020850182614542565b50604082015161458c6040850182614533565b50606082015161459f6060850182614533565b5060808201516145b26080850182614533565b5060a08201516145c560a0850182614533565b5060c08201516145d860c0850182614533565b5060e08201516145eb60e0850182614533565b50610100820151614600610100850182614533565b50505050565b5f6101208201905061461a5f830184614551565b92915050565b5f5f5f60608486031215614637576146366142a2565b5b5f614644868287016144b9565b9350506020614655868287016144b9565b92505060406146668682870161440c565b9150509250925092565b5f819050919050565b61468281614670565b811461468c575f5ffd5b50565b5f8135905061469d81614679565b92915050565b5f602082840312156146b8576146b76142a2565b5b5f6146c58482850161468f565b91505092915050565b5f6040820190506146e15f83018561450b565b6146ee602083018461450b565b9392505050565b5f60a0820190506147085f83018861450b565b614715602083018761450b565b6147226040830186614335565b61472f606083018561450b565b61473c608083018461450b565b9695505050505050565b5f67ffffffffffffffff82169050919050565b61476281614746565b811461476c575f5ffd5b50565b5f8135905061477d81614759565b92915050565b5f5f60408385031215614799576147986142a2565b5b5f6147a68582860161440c565b92505060206147b78582860161476f565b9150509250929050565b5f5ffd5b7f4e487b71000000000000000000000000000000000000000000000000000000005f52604160045260245ffd5b6147fb82614385565b810181811067ffffffffffffffff8211171561481a576148196147c5565b5b80604052505050565b5f61482c614299565b905061483882826147f2565b919050565b5f67ffffffffffffffff821115614857576148566147c5565b5b602082029050602081019050919050565b5f5ffd5b5f5ffd5b5f67ffffffffffffffff82111561488a576148896147c5565b5b61489382614385565b9050602081019050919050565b828183375f83830152505050565b5f6148c06148bb84614870565b614823565b9050828152602081018484840111156148dc576148db61486c565b5b6148e78482856148a0565b509392505050565b5f82601f830112614903576149026147c1565b5b81356149138482602086016148ae565b91505092915050565b5f61492e6149298461483d565b614823565b9050808382526020820190506020840283018581111561495157614950614868565b5b835b8181101561499857803567ffffffffffffffff811115614976576149756147c1565b5b80860161498389826148ef565b85526020850194505050602081019050614953565b5050509392505050565b5f82601f8301126149b6576149b56147c1565b5b81356149c684826020860161491c565b91505092915050565b5f5f604083850312156149e5576149e46142a2565b5b5f6149f28582860161440c565b925050602083013567ffffffffffffffff811115614a1357614a126142a6565b5b614a1f858286016149a2565b9150509250929050565b5f5f60408385031215614a3f57614a3e6142a2565b5b5f614a4c8582860161468f565b9250506020614a5d8582860161476f565b9150509250929050565b5f60208284031215614a7c57614a7b6142a2565b5b5f614a89848285016144b9565b91505092915050565b5f60e082019050614aa55f83018a61450b565b614ab2602083018961450b565b614abf604083018861450b565b614acc606083018761450b565b614ad9608083018661450b565b614ae660a083018561450b565b614af360c083018461450b565b98975050505050505050565b614b088161432a565b82525050565b60a082015f820151614b225f850182614533565b506020820151614b356020850182614533565b506040820151614b486040850182614aff565b506060820151614b5b6060850182614533565b506080820151614b6e6080850182614533565b50505050565b5f60a082019050614b875f830184614b0e565b92915050565b614b968161432a565b8114614ba0575f5ffd5b50565b5f81359050614bb181614b8d565b92915050565b5f5f60408385031215614bcd57614bcc6142a2565b5b5f614bda858286016144b9565b9250506020614beb85828601614ba3565b9150509250929050565b5f61012082019050614c095f83018c61450b565b614c16602083018b61447b565b614c23604083018a61450b565b614c30606083018961450b565b614c3d608083018861450b565b614c4a60a083018761450b565b614c5760c083018661450b565b614c6460e083018561450b565b614c7261010083018461450b565b9a9950505050505050505050565b5f5f5f5f60808587031215614c9857614c976142a2565b5b5f614ca5878288016144b9565b9450506020614cb6878288016144b9565b9350506040614cc78782880161440c565b925050606085013567ffffffffffffffff811115614ce857614ce76142a6565b5b614cf4878288016148ef565b91505092959194509250565b5f81519050919050565b5f82825260208201905092915050565b5f819050602082019050919050565b5f614d348383614533565b60208301905092915050565b5f602082019050919050565b5f614d5682614d00565b614d608185614d0a565b9350614d6b83614d1a565b805f5b83811015614d9b578151614d828882614d29565b9750614d8d83614d40565b925050600181019050614d6e565b5085935050505092915050565b5f6020820190508181035f830152614dc08184614d4c565b905092915050565b614dd181614670565b82525050565b5f602082019050614dea5f830184614dc8565b92915050565b7f4e487b71000000000000000000000000000000000000000000000000000000005f52602160045260245ffd5b60048110614e2e57614e2d614df0565b5b50565b5f819050614e3e82614e1d565b919050565b5f614e4d82614e31565b9050919050565b614e5d81614e43565b82525050565b5f602082019050614e765f830184614e54565b92915050565b5f5f60408385031215614e9257614e916142a2565b5b5f614e9f858286016144b9565b9250506020614eb0858286016144b9565b9150509250929050565b5f819050919050565b5f614edd614ed8614ed38461444b565b614eba565b61444b565b9050919050565b5f614eee82614ec3565b9050919050565b5f614eff82614ee4565b9050919050565b614f0f81614ef5565b82525050565b5f602082019050614f285f830184614f06565b92915050565b7f4e487b71000000000000000000000000000000000000000000000000000000005f52602260045260245ffd5b5f6002820490506001821680614f7257607f821691505b602082108103614f8557614f84614f2e565b5b50919050565b7f4e6f7420746865206f776e6572206f662074686973206865726f0000000000005f82015250565b5f614fbf601a83614367565b9150614fca82614f8b565b602082019050919050565b5f6020820190508181035f830152614fec81614fb3565b9050919050565b7f4865726f20646f6573206e6f74206578697374000000000000000000000000005f82015250565b5f615027601383614367565b915061503282614ff3565b602082019050919050565b5f6020820190508181035f8301526150548161501b565b9050919050565b7f47616d652073657373696f6e20616c72656164792061637469766500000000005f82015250565b5f61508f601b83614367565b915061509a8261505b565b602082019050919050565b5f6020820190508181035f8301526150bc81615083565b9050919050565b5f6060820190506150d65f83018661447b565b6150e3602083018561450b565b6150f0604083018461447b565b949350505050565b5f60408201905061510b5f83018561447b565b615118602083018461450b565b9392505050565b7f4e487b71000000000000000000000000000000000000000000000000000000005f52601160045260245ffd5b5f615156826143ed565b9150615161836143ed565b925082820261516f816143ed565b915082820484148315176151865761518561511f565b5b5092915050565b5f615197826143ed565b91506151a2836143ed565b92508282019050808211156151ba576151b961511f565b5b92915050565b7f4e487b71000000000000000000000000000000000000000000000000000000005f52601260045260245ffd5b5f6151f7826143ed565b9150615202836143ed565b925082615212576152116151c0565b5b828204905092915050565b5f61522782614746565b915061523283614746565b925082615242576152416151c0565b5b828206905092915050565b5f819050919050565b5f6152608261524d565b915061526b8361524d565b925082820390508181125f8412168282135f8512151617156152905761528f61511f565b5b92915050565b5f6152a08261524d565b91506152ab8361524d565b92508282019050828112155f8312168382125f8412151617156152d1576152d061511f565b5b92915050565b7f496e73756666696369656e7420666565000000000000000000000000000000005f82015250565b5f61530b601083614367565b9150615316826152d7565b602082019050919050565b5f6020820190508181035f830152615338816152ff565b9050919050565b5f81519050919050565b5f82825260208201905092915050565b5f819050602082019050919050565b5f81519050919050565b5f82825260208201905092915050565b5f61538c82615368565b6153968185615372565b93506153a6818560208601614377565b6153af81614385565b840191505092915050565b5f6153c58383615382565b905092915050565b5f602082019050919050565b5f6153e38261533f565b6153ed8185615349565b9350836020820285016153ff85615359565b805f5b8581101561543a578484038952815161541b85826153ba565b9450615426836153cd565b925060208a01995050600181019050615402565b50829750879550505050505092915050565b5f6020820190508181035f83015261546481846153d9565b905092915050565b5f819050919050565b615486615481826143ed565b61546c565b82525050565b5f8160601b9050919050565b5f6154a28261548c565b9050919050565b5f6154b382615498565b9050919050565b6154cb6154c68261446a565b6154a9565b82525050565b5f6154dc8287615475565b6020820191506154ec8286615475565b6020820191506154fc8285615475565b60208201915061550c82846154ba565b60148201915081905095945050505050565b5f615528826143ed565b9150615533836143ed565b925082615543576155426151c0565b5b828206905092915050565b5f615558826143ed565b9150615563836143ed565b925082820390508181111561557b5761557a61511f565b5b92915050565b7f4e487b71000000000000000000000000000000000000000000000000000000005f52603260045260245ffd5b7f4f6e6c792050797468456e74726f70792063616e2063616c6c000000000000005f82015250565b5f6155e2601983614367565b91506155ed826155ae565b602082019050919050565b5f6020820190508181035f83015261560f816155d6565b9050919050565b7f496e76616c6964207265717565737400000000000000000000000000000000005f82015250565b5f61564a600f83614367565b915061565582615616565b602082019050919050565b5f6020820190508181035f8301526156778161563e565b9050919050565b61568781614746565b82525050565b5f6020820190506156a05f83018461567e565b92915050565b5f81905092915050565b5f6156ba8261435d565b6156c481856156a6565b93506156d4818560208601614377565b80840191505092915050565b5f6156eb82856156b0565b91506156f782846156b0565b91508190509392505050565b7f4e6f206163746976652067616d652073657373696f6e000000000000000000005f82015250565b5f615737601683614367565b915061574282615703565b602082019050919050565b5f6020820190508181035f8301526157648161572b565b9050919050565b5f819050919050565b5f61578e6157896157848461576b565b614eba565b6143ed565b9050919050565b61579e81615774565b82525050565b5f6040820190506157b75f830185614dc8565b6157c46020830184615795565b9392505050565b5f5ffd5b5f8160070b9050919050565b6157e4816157cf565b81146157ee575f5ffd5b50565b5f815190506157ff816157db565b92915050565b5f8151905061581381614759565b92915050565b5f8160030b9050919050565b61582e81615819565b8114615838575f5ffd5b50565b5f8151905061584981615825565b92915050565b5f8151905061585d816143f6565b92915050565b5f60808284031215615878576158776157cb565b5b6158826080614823565b90505f615891848285016157f1565b5f8301525060206158a484828501615805565b60208301525060406158b88482850161583b565b60408301525060606158cc8482850161584f565b60608301525092915050565b5f608082840312156158ed576158ec6142a2565b5b5f6158fa84828501615863565b91505092915050565b5f61590d826143ed565b91507fffffffffffffffffffffffffffffffffffffffffffffffffffffffffffffffff820361593f5761593e61511f565b5b600182019050919050565b5f819050919050565b5f61596d6159686159638461594a565b614eba565b6143ed565b9050919050565b61597d81615953565b82525050565b5f6020820190506159965f830184615974565b92915050565b7f496e73756666696369656e74207061796d656e7420666f722072616e646f6d6e5f8201527f6573730000000000000000000000000000000000000000000000000000000000602082015250565b5f6159f6602383614367565b9150615a018261599c565b604082019050919050565b5f6020820190508181035f830152615a23816159ea565b9050919050565b5f615a358286615475565b602082019150615a458285615475565b602082019150615a5582846154ba565b601482019150819050949350505050565b7f4e487b71000000000000000000000000000000000000000000000000000000005f52603160045260245ffd5b5f60ff82169050919050565b615aa881615a93565b82525050565b5f604082019050615ac15f83018561450b565b615ace6020830184615a9f565b9392505050565b5f82825260208201905092915050565b5f615aef82615368565b615af98185615ad5565b9350615b09818560208601614377565b615b1281614385565b840191505092915050565b5f608082019050615b305f83018761447b565b615b3d602083018661447b565b615b4a604083018561450b565b8181036060830152615b5c8184615ae5565b905095945050505050565b5f81519050615b75816142d5565b92915050565b5f60208284031215615b9057615b8f6142a2565b5b5f615b9d84828501615b67565b91505092915050565b5f604082019050615bb95f83018561450b565b8181036020830152615bcb8184614395565b9050939250505056fea26469706673582212203ae3b199164e3a7e57269320e0d89af33ef13939acb46ca20bf70db57ae24c0664736f6c634300081c0033",
  "linkReferences": {},
  "deployedLinkReferences": {},
  "immutableReferences": {},
  "inputSourceName": "project/contracts/RogueChain.sol",
  "buildInfoId": "solc-0_8_28-8ea7805b401ac69d174c7cf513a1460ffcebf224"
}