{
  "_format": "hh3-artifact-1",
  "contractName": "RogueChain",
  "sourceName": "contracts/RogueChain.sol",
  "abi": [
    {
      "inputs": [
        {
          "internalType": "address",
          "name": "_pyth",
          "type": "address"
        },
        {
          "internalType": "address",
          "name": "_pythEntropy",
          "type": "address"
        },
        {
          "internalType": "bytes32",
          "name": "_ethPriceId",
          "type": "bytes32"
        },
        {
          "internalType": "bytes32",
          "name": "_btcPriceId",
          "type": "bytes32"
        }
      ],
      "stateMutability": "nonpayable",
      "type": "constructor"
    },
    {
      "inputs": [],
      "name": "ERC721EnumerableForbiddenBatchMint",
      "type": "error"
    },
    {
      "inputs": [
        {
          "internalType": "address",
          "name": "sender",
          "type": "address"
        },
        {
          "internalType": "uint256",
          "name": "tokenId",
          "type": "uint256"
        },
        {
          "internalType": "address",
          "name": "owner",
          "type": "address"
        }
      ],
      "name": "ERC721IncorrectOwner",
      "type": "error"
    },
    {
      "inputs": [
        {
          "internalType": "address",
          "name": "operator",
          "type": "address"
        },
        {
          "internalType": "uint256",
          "name": "tokenId",
          "type": "uint256"
        }
      ],
      "name": "ERC721InsufficientApproval",
      "type": "error"
    },
    {
      "inputs": [
        {
          "internalType": "address",
          "name": "approver",
          "type": "address"
        }
      ],
      "name": "ERC721InvalidApprover",
      "type": "error"
    },
    {
      "inputs": [
        {
          "internalType": "address",
          "name": "operator",
          "type": "address"
        }
      ],
      "name": "ERC721InvalidOperator",
      "type": "error"
    },
    {
      "inputs": [
        {
          "internalType": "address",
          "name": "owner",
          "type": "address"
        }
      ],
      "name": "ERC721InvalidOwner",
      "type": "error"
    },
    {
      "inputs": [
        {
          "internalType": "address",
          "name": "receiver",
          "type": "address"
        }
      ],
      "name": "ERC721InvalidReceiver",
      "type": "error"
    },
    {
      "inputs": [
        {
          "internalType": "address",
          "name": "sender",
          "type": "address"
        }
      ],
      "name": "ERC721InvalidSender",
      "type": "error"
    },
    {
      "inputs": [
        {
          "internalType": "uint256",
          "name": "tokenId",
          "type": "uint256"
        }
      ],
      "name": "ERC721NonexistentToken",
      "type": "error"
    },
    {
      "inputs": [
        {
          "internalType": "address",
          "name": "owner",
          "type": "address"
        },
        {
          "internalType": "uint256",
          "name": "index",
          "type": "uint256"
        }
      ],
      "name": "ERC721OutOfBoundsIndex",
      "type": "error"
    },
    {
      "inputs": [
        {
          "internalType": "address",
          "name": "owner",
          "type": "address"
        }
      ],
      "name": "OwnableInvalidOwner",
      "type": "error"
    },
    {
      "inputs": [
        {
          "internalType": "address",
          "name": "account",
          "type": "address"
        }
      ],
      "name": "OwnableUnauthorizedAccount",
      "type": "error"
    },
    {
      "inputs": [],
      "name": "ReentrancyGuardReentrantCall",
      "type": "error"
    },
    {
      "anonymous": false,
      "inputs": [
        {
          "indexed": true,
          "internalType": "address",
          "name": "owner",
          "type": "address"
        },
        {
          "indexed": true,
          "internalType": "address",
          "name": "approved",
          "type": "address"
        },
        {
          "indexed": true,
          "internalType": "uint256",
          "name": "tokenId",
          "type": "uint256"
        }
      ],
      "name": "Approval",
      "type": "event"
    },
    {
      "anonymous": false,
      "inputs": [
        {
          "indexed": true,
          "internalType": "address",
          "name": "owner",
          "type": "address"
        },
        {
          "indexed": true,
          "internalType": "address",
          "name": "operator",
          "type": "address"
        },
        {
          "indexed": false,
          "internalType": "bool",
          "name": "approved",
          "type": "bool"
        }
      ],
      "name": "ApprovalForAll",
      "type": "event"
    },
    {
      "anonymous": false,
      "inputs": [
        {
          "indexed": true,
          "internalType": "uint256",
          "name": "heroId",
          "type": "uint256"
        },
        {
          "indexed": false,
          "internalType": "uint256",
          "name": "victoryChance",
          "type": "uint256"
        },
        {
          "indexed": false,
          "internalType": "uint8",
          "name": "marketState",
          "type": "uint8"
        }
      ],
      "name": "DungeonDefeat",
      "type": "event"
    },
    {
      "anonymous": false,
      "inputs": [
        {
          "indexed": true,
          "internalType": "uint256",
          "name": "heroId",
          "type": "uint256"
        },
        {
          "indexed": false,
          "internalType": "uint256",
          "name": "victoryChance",
          "type": "uint256"
        },
        {
          "indexed": false,
          "internalType": "uint8",
          "name": "marketState",
          "type": "uint8"
        }
      ],
      "name": "DungeonVictory",
      "type": "event"
    },
    {
      "anonymous": false,
      "inputs": [
        {
          "indexed": true,
          "internalType": "uint256",
          "name": "heroId",
          "type": "uint256"
        },
        {
          "indexed": false,
          "internalType": "uint256",
          "name": "newLevel",
          "type": "uint256"
        }
      ],
      "name": "HeroLeveledUp",
      "type": "event"
    },
    {
      "anonymous": false,
      "inputs": [
        {
          "indexed": true,
          "internalType": "uint256",
          "name": "heroId",
          "type": "uint256"
        },
        {
          "indexed": true,
          "internalType": "address",
          "name": "owner",
          "type": "address"
        },
        {
          "indexed": false,
          "internalType": "uint256",
          "name": "level",
          "type": "uint256"
        }
      ],
      "name": "HeroMinted",
      "type": "event"
    },
    {
      "anonymous": false,
      "inputs": [
        {
          "indexed": false,
          "internalType": "string",
          "name": "eventName",
          "type": "string"
        },
        {
          "indexed": false,
          "internalType": "string",
          "name": "description",
          "type": "string"
        }
      ],
      "name": "MarketEventTriggered",
      "type": "event"
    },
    {
      "anonymous": false,
      "inputs": [
        {
          "indexed": true,
          "internalType": "address",
          "name": "previousOwner",
          "type": "address"
        },
        {
          "indexed": true,
          "internalType": "address",
          "name": "newOwner",
          "type": "address"
        }
      ],
      "name": "OwnershipTransferred",
      "type": "event"
    },
    {
      "anonymous": false,
      "inputs": [
        {
          "indexed": true,
          "internalType": "bytes32",
          "name": "requestId",
          "type": "bytes32"
        },
        {
          "indexed": false,
          "internalType": "uint64",
          "name": "randomNumber",
          "type": "uint64"
        }
      ],
      "name": "RandomnessFulfilled",
      "type": "event"
    },
    {
      "anonymous": false,
      "inputs": [
        {
          "indexed": true,
          "internalType": "bytes32",
          "name": "requestId",
          "type": "bytes32"
        },
        {
          "indexed": true,
          "internalType": "address",
          "name": "requester",
          "type": "address"
        }
      ],
      "name": "RandomnessRequested",
      "type": "event"
    },
    {
      "anonymous": false,
      "inputs": [
        {
          "indexed": true,
          "internalType": "uint256",
          "name": "heroId",
          "type": "uint256"
        },
        {
          "indexed": false,
          "internalType": "uint256",
          "name": "amount",
          "type": "uint256"
        },
        {
          "indexed": false,
          "internalType": "string",
          "name": "marketName",
          "type": "string"
        }
      ],
      "name": "RewardEarned",
      "type": "event"
    },
    {
      "anonymous": false,
      "inputs": [
        {
          "indexed": true,
          "internalType": "address",
          "name": "from",
          "type": "address"
        },
        {
          "indexed": true,
          "internalType": "address",
          "name": "to",
          "type": "address"
        },
        {
          "indexed": true,
          "internalType": "uint256",
          "name": "tokenId",
          "type": "uint256"
        }
      ],
      "name": "Transfer",
      "type": "event"
    },
    {
      "inputs": [],
      "name": "BASE_EXPERIENCE",
      "outputs": [
        {
          "internalType": "uint256",
          "name": "",
          "type": "uint256"
        }
      ],
      "stateMutability": "view",
      "type": "function"
    },
    {
      "inputs": [],
      "name": "MAX_LEVEL",
      "outputs": [
        {
          "internalType": "uint256",
          "name": "",
          "type": "uint256"
        }
      ],
      "stateMutability": "view",
      "type": "function"
    },
    {
      "inputs": [
        {
          "internalType": "address",
          "name": "to",
          "type": "address"
        },
        {
          "internalType": "uint256",
          "name": "tokenId",
          "type": "uint256"
        }
      ],
      "name": "approve",
      "outputs": [],
      "stateMutability": "nonpayable",
      "type": "function"
    },
    {
      "inputs": [
        {
          "internalType": "address",
          "name": "owner",
          "type": "address"
        }
      ],
      "name": "balanceOf",
      "outputs": [
        {
          "internalType": "uint256",
          "name": "",
          "type": "uint256"
        }
      ],
      "stateMutability": "view",
      "type": "function"
    },
    {
      "inputs": [],
      "name": "btcPriceId",
      "outputs": [
        {
          "internalType": "bytes32",
          "name": "",
          "type": "bytes32"
        }
      ],
      "stateMutability": "view",
      "type": "function"
    },
    {
      "inputs": [
        {
          "internalType": "uint256",
          "name": "heroId",
          "type": "uint256"
        },
        {
          "internalType": "uint64",
          "name": "randomNumber",
          "type": "uint64"
        }
      ],
      "name": "calculateVictoryChance",
      "outputs": [
        {
          "internalType": "uint256",
          "name": "",
          "type": "uint256"
        }
      ],
      "stateMutability": "view",
      "type": "function"
    },
    {
      "inputs": [
        {
          "internalType": "uint256",
          "name": "heroId",
          "type": "uint256"
        }
      ],
      "name": "endGameSession",
      "outputs": [],
      "stateMutability": "nonpayable",
      "type": "function"
    },
    {
      "inputs": [
        {
          "internalType": "uint256",
          "name": "heroId",
          "type": "uint256"
        },
        {
          "internalType": "bytes[]",
          "name": "priceUpdateData",
          "type": "bytes[]"
        }
      ],
      "name": "enterDungeon",
      "outputs": [],
      "stateMutability": "payable",
      "type": "function"
    },
    {
      "inputs": [],
      "name": "ethPriceId",
      "outputs": [
        {
          "internalType": "bytes32",
          "name": "",
          "type": "bytes32"
        }
      ],
      "stateMutability": "view",
      "type": "function"
    },
    {
      "inputs": [
        {
          "internalType": "bytes32",
          "name": "requestId",
          "type": "bytes32"
        },
        {
          "internalType": "uint64",
          "name": "randomNumber",
          "type": "uint64"
        }
      ],
      "name": "fulfillRandomness",
      "outputs": [],
      "stateMutability": "nonpayable",
      "type": "function"
    },
    {
      "inputs": [
        {
          "internalType": "uint256",
          "name": "",
          "type": "uint256"
        }
      ],
      "name": "gameSessions",
      "outputs": [
        {
          "internalType": "uint256",
          "name": "heroId",
          "type": "uint256"
        },
        {
          "internalType": "uint256",
          "name": "startTime",
          "type": "uint256"
        },
        {
          "internalType": "bool",
          "name": "isActive",
          "type": "bool"
        },
        {
          "internalType": "uint256",
          "name": "currentFloor",
          "type": "uint256"
        },
        {
          "internalType": "uint256",
          "name": "monstersDefeated",
          "type": "uint256"
        }
      ],
      "stateMutability": "view",
      "type": "function"
    },
    {
      "inputs": [
        {
          "internalType": "uint256",
          "name": "tokenId",
          "type": "uint256"
        }
      ],
      "name": "getApproved",
      "outputs": [
        {
          "internalType": "address",
          "name": "",
          "type": "address"
        }
      ],
      "stateMutability": "view",
      "type": "function"
    },
    {
      "inputs": [
        {
          "internalType": "uint256",
          "name": "heroId",
          "type": "uint256"
        }
      ],
      "name": "getGameSession",
      "outputs": [
        {
          "components": [
            {
              "internalType": "uint256",
              "name": "heroId",
              "type": "uint256"
            },
            {
              "internalType": "uint256",
              "name": "startTime",
              "type": "uint256"
            },
            {
              "internalType": "bool",
              "name": "isActive",
              "type": "bool"
            },
            {
              "internalType": "uint256",
              "name": "currentFloor",
              "type": "uint256"
            },
            {
              "internalType": "uint256",
              "name": "monstersDefeated",
              "type": "uint256"
            }
          ],
          "internalType": "struct RogueChain.GameSession",
          "name": "",
          "type": "tuple"
        }
      ],
      "stateMutability": "view",
      "type": "function"
    },
    {
      "inputs": [
        {
          "internalType": "uint256",
          "name": "heroId",
          "type": "uint256"
        }
      ],
      "name": "getHero",
      "outputs": [
        {
          "components": [
            {
              "internalType": "uint256",
              "name": "id",
              "type": "uint256"
            },
            {
              "internalType": "address",
              "name": "owner",
              "type": "address"
            },
            {
              "internalType": "uint256",
              "name": "level",
              "type": "uint256"
            },
            {
              "internalType": "uint256",
              "name": "experience",
              "type": "uint256"
            },
            {
              "internalType": "uint256",
              "name": "strength",
              "type": "uint256"
            },
            {
              "internalType": "uint256",
              "name": "agility",
              "type": "uint256"
            },
            {
              "internalType": "uint256",
              "name": "intelligence",
              "type": "uint256"
            },
            {
              "internalType": "uint256",
              "name": "vitality",
              "type": "uint256"
            },
            {
              "internalType": "uint256",
              "name": "luck",
              "type": "uint256"
            }
          ],
          "internalType": "struct RogueChain.Hero",
          "name": "",
          "type": "tuple"
        }
      ],
      "stateMutability": "view",
      "type": "function"
    },
    {
      "inputs": [
        {
          "internalType": "uint256",
          "name": "heroId",
          "type": "uint256"
        }
      ],
      "name": "getHeroStats",
      "outputs": [
        {
          "internalType": "uint256",
          "name": "level",
          "type": "uint256"
        },
        {
          "internalType": "uint256",
          "name": "experience",
          "type": "uint256"
        },
        {
          "internalType": "uint256",
          "name": "strength",
          "type": "uint256"
        },
        {
          "internalType": "uint256",
          "name": "agility",
          "type": "uint256"
        },
        {
          "internalType": "uint256",
          "name": "intelligence",
          "type": "uint256"
        },
        {
          "internalType": "uint256",
          "name": "vitality",
          "type": "uint256"
        },
        {
          "internalType": "uint256",
          "name": "luck",
          "type": "uint256"
        }
      ],
      "stateMutability": "view",
      "type": "function"
    },
    {
      "inputs": [],
      "name": "getMarketState",
      "outputs": [
        {
          "internalType": "enum RogueChain.MarketState",
          "name": "",
          "type": "uint8"
        }
      ],
      "stateMutability": "view",
      "type": "function"
    },
    {
      "inputs": [
        {
          "internalType": "address",
          "name": "user",
          "type": "address"
        }
      ],
      "name": "getUserHeroes",
      "outputs": [
        {
          "internalType": "uint256[]",
          "name": "",
          "type": "uint256[]"
        }
      ],
      "stateMutability": "view",
      "type": "function"
    },
    {
      "inputs": [
        {
          "internalType": "uint256",
          "name": "",
          "type": "uint256"
        }
      ],
      "name": "heroes",
      "outputs": [
        {
          "internalType": "uint256",
          "name": "id",
          "type": "uint256"
        },
        {
          "internalType": "address",
          "name": "owner",
          "type": "address"
        },
        {
          "internalType": "uint256",
          "name": "level",
          "type": "uint256"
        },
        {
          "internalType": "uint256",
          "name": "experience",
          "type": "uint256"
        },
        {
          "internalType": "uint256",
          "name": "strength",
          "type": "uint256"
        },
        {
          "internalType": "uint256",
          "name": "agility",
          "type": "uint256"
        },
        {
          "internalType": "uint256",
          "name": "intelligence",
          "type": "uint256"
        },
        {
          "internalType": "uint256",
          "name": "vitality",
          "type": "uint256"
        },
        {
          "internalType": "uint256",
          "name": "luck",
          "type": "uint256"
        }
      ],
      "stateMutability": "view",
      "type": "function"
    },
    {
      "inputs": [
        {
          "internalType": "address",
          "name": "owner",
          "type": "address"
        },
        {
          "internalType": "address",
          "name": "operator",
          "type": "address"
        }
      ],
      "name": "isApprovedForAll",
      "outputs": [
        {
          "internalType": "bool",
          "name": "",
          "type": "bool"
        }
      ],
      "stateMutability": "view",
      "type": "function"
    },
    {
      "inputs": [],
      "name": "mintHero",
      "outputs": [],
      "stateMutability": "nonpayable",
      "type": "function"
    },
    {
      "inputs": [],
      "name": "name",
      "outputs": [
        {
          "internalType": "string",
          "name": "",
          "type": "string"
        }
      ],
      "stateMutability": "view",
      "type": "function"
    },
    {
      "inputs": [],
      "name": "owner",
      "outputs": [
        {
          "internalType": "address",
          "name": "",
          "type": "address"
        }
      ],
      "stateMutability": "view",
      "type": "function"
    },
    {
      "inputs": [
        {
          "internalType": "uint256",
          "name": "tokenId",
          "type": "uint256"
        }
      ],
      "name": "ownerOf",
      "outputs": [
        {
          "internalType": "address",
          "name": "",
          "type": "address"
        }
      ],
      "stateMutability": "view",
      "type": "function"
    },
    {
      "inputs": [
        {
          "internalType": "bytes32",
          "name": "",
          "type": "bytes32"
        }
      ],
      "name": "pendingRequests",
      "outputs": [
        {
          "internalType": "uint256",
          "name": "heroId",
          "type": "uint256"
        },
        {
          "internalType": "uint256",
          "name": "timestamp",
          "type": "uint256"
        }
      ],
      "stateMutability": "view",
      "type": "function"
    },
    {
      "inputs": [],
      "name": "pyth",
      "outputs": [
        {
          "internalType": "contract IPyth",
          "name": "",
          "type": "address"
        }
      ],
      "stateMutability": "view",
      "type": "function"
    },
    {
      "inputs": [],
      "name": "pythEntropy",
      "outputs": [
        {
          "internalType": "address",
          "name": "",
          "type": "address"
        }
      ],
      "stateMutability": "view",
      "type": "function"
    },
    {
      "inputs": [
        {
          "internalType": "bytes32",
          "name": "",
          "type": "bytes32"
        }
      ],
      "name": "randomnessRequests",
      "outputs": [
        {
          "internalType": "address",
          "name": "",
          "type": "address"
        }
      ],
      "stateMutability": "view",
      "type": "function"
    },
    {
      "inputs": [],
      "name": "renounceOwnership",
      "outputs": [],
      "stateMutability": "nonpayable",
      "type": "function"
    },
    {
      "inputs": [],
      "name": "requestRandomness",
      "outputs": [],
      "stateMutability": "payable",
      "type": "function"
    },
    {
      "inputs": [
        {
          "internalType": "address",
          "name": "from",
          "type": "address"
        },
        {
          "internalType": "address",
          "name": "to",
          "type": "address"
        },
        {
          "internalType": "uint256",
          "name": "tokenId",
          "type": "uint256"
        }
      ],
      "name": "safeTransferFrom",
      "outputs": [],
      "stateMutability": "nonpayable",
      "type": "function"
    },
    {
      "inputs": [
        {
          "internalType": "address",
          "name": "from",
          "type": "address"
        },
        {
          "internalType": "address",
          "name": "to",
          "type": "address"
        },
        {
          "internalType": "uint256",
          "name": "tokenId",
          "type": "uint256"
        },
        {
          "internalType": "bytes",
          "name": "data",
          "type": "bytes"
        }
      ],
      "name": "safeTransferFrom",
      "outputs": [],
      "stateMutability": "nonpayable",
      "type": "function"
    },
    {
      "inputs": [
        {
          "internalType": "address",
          "name": "operator",
          "type": "address"
        },
        {
          "internalType": "bool",
          "name": "approved",
          "type": "bool"
        }
      ],
      "name": "setApprovalForAll",
      "outputs": [],
      "stateMutability": "nonpayable",
      "type": "function"
    },
    {
      "inputs": [
        {
          "internalType": "address",
          "name": "_pyth",
          "type": "address"
        }
      ],
      "name": "setPyth",
      "outputs": [],
      "stateMutability": "nonpayable",
      "type": "function"
    },
    {
      "inputs": [
        {
          "internalType": "uint256",
          "name": "heroId",
          "type": "uint256"
        }
      ],
      "name": "startGameSession",
      "outputs": [],
      "stateMutability": "nonpayable",
      "type": "function"
    },
    {
      "inputs": [
        {
          "internalType": "bytes4",
          "name": "interfaceId",
          "type": "bytes4"
        }
      ],
      "name": "supportsInterface",
      "outputs": [
        {
          "internalType": "bool",
          "name": "",
          "type": "bool"
        }
      ],
      "stateMutability": "view",
      "type": "function"
    },
    {
      "inputs": [],
      "name": "symbol",
      "outputs": [
        {
          "internalType": "string",
          "name": "",
          "type": "string"
        }
      ],
      "stateMutability": "view",
      "type": "function"
    },
    {
      "inputs": [
        {
          "internalType": "uint256",
          "name": "index",
          "type": "uint256"
        }
      ],
      "name": "tokenByIndex",
      "outputs": [
        {
          "internalType": "uint256",
          "name": "",
          "type": "uint256"
        }
      ],
      "stateMutability": "view",
      "type": "function"
    },
    {
      "inputs": [
        {
          "internalType": "address",
          "name": "owner",
          "type": "address"
        },
        {
          "internalType": "uint256",
          "name": "index",
          "type": "uint256"
        }
      ],
      "name": "tokenOfOwnerByIndex",
      "outputs": [
        {
          "internalType": "uint256",
          "name": "",
          "type": "uint256"
        }
      ],
      "stateMutability": "view",
      "type": "function"
    },
    {
      "inputs": [
        {
          "internalType": "uint256",
          "name": "tokenId",
          "type": "uint256"
        }
      ],
      "name": "tokenURI",
      "outputs": [
        {
          "internalType": "string",
          "name": "",
          "type": "string"
        }
      ],
      "stateMutability": "view",
      "type": "function"
    },
    {
      "inputs": [],
      "name": "totalSupply",
      "outputs": [
        {
          "internalType": "uint256",
          "name": "",
          "type": "uint256"
        }
      ],
      "stateMutability": "view",
      "type": "function"
    },
    {
      "inputs": [
        {
          "internalType": "address",
          "name": "from",
          "type": "address"
        },
        {
          "internalType": "address",
          "name": "to",
          "type": "address"
        },
        {
          "internalType": "uint256",
          "name": "tokenId",
          "type": "uint256"
        }
      ],
      "name": "transferFrom",
      "outputs": [],
      "stateMutability": "nonpayable",
      "type": "function"
    },
    {
      "inputs": [
        {
          "internalType": "address",
          "name": "newOwner",
          "type": "address"
        }
      ],
      "name": "transferOwnership",
      "outputs": [],
      "stateMutability": "nonpayable",
      "type": "function"
    },
    {
      "inputs": [
        {
          "internalType": "bytes[]",
          "name": "priceUpdateData",
          "type": "bytes[]"
        }
      ],
      "name": "updatePriceFeedsAndGetMarketState",
      "outputs": [
        {
          "internalType": "enum RogueChain.MarketState",
          "name": "",
          "type": "uint8"
        }
      ],
      "stateMutability": "payable",
      "type": "function"
    },
    {
      "inputs": [
        {
          "internalType": "address",
          "name": "",
          "type": "address"
        },
        {
          "internalType": "uint256",
          "name": "",
          "type": "uint256"
        }
      ],
      "name": "userHeroes",
      "outputs": [
        {
          "internalType": "uint256",
          "name": "",
          "type": "uint256"
        }
      ],
      "stateMutability": "view",
      "type": "function"
    },
    {
      "inputs": [],
      "name": "withdraw",
      "outputs": [],
      "stateMutability": "nonpayable",
      "type": "function"
    }
  ],
  "bytecode": "0x608060405234801561000f575f5ffd5b5060405161387338038061387383398101604081905261002e91610179565b3360405180604001604052806011815260200170526f677565436861696e204865726f657360781b815250604051806040016040528060038152602001620a486960eb1b815250815f90816100839190610251565b5060016100908282610251565b5050506001600160a01b0381166100c057604051631e4fbdf760e01b81525f600482015260240160405180910390fd5b6100c98161010d565b506001600b55601080546001600160a01b039586166001600160a01b031991821617909155601180549490951693169290921790925560129190915560135561030b565b600a80546001600160a01b038381166001600160a01b0319831681179093556040519116919082907f8be0079c531659141344cd1fd0a4f28419497f9722a3daafe3b4186f6b6457e0905f90a35050565b80516001600160a01b0381168114610174575f5ffd5b919050565b5f5f5f5f6080858703121561018c575f5ffd5b6101958561015e565b93506101a36020860161015e565b6040860151606090960151949790965092505050565b634e487b7160e01b5f52604160045260245ffd5b600181811c908216806101e157607f821691505b6020821081036101ff57634e487b7160e01b5f52602260045260245ffd5b50919050565b601f82111561024c57805f5260205f20601f840160051c8101602085101561022a5750805b601f840160051c820191505b81811015610249575f8155600101610236565b50505b505050565b81516001600160401b0381111561026a5761026a6101b9565b61027e8161027884546101cd565b84610205565b6020601f8211600181146102b0575f83156102995750848201515b5f19600385901b1c1916600184901b178455610249565b5f84815260208120601f198516915b828110156102df57878501518255602094850194600190920191016102bf565b50848210156102fc57868401515f19600387901b60f8161c191681555b50505050600190811b01905550565b61355b806103185f395ff3fe60806040526004361061026a575f3560e01c8063835a43981161014a578063cfe68a4e116100be578063ee22fd6f11610078578063ee22fd6f14610913578063f2fde38b14610932578063f351325514610951578063f8413b0714610964578063f98d06f01461096c578063fbb0ab001461098b575f5ffd5b8063cfe68a4e14610890578063d2e65a7c146108a5578063d7129b4314610758578063d8165743146108c4578063e9200337146108e0578063e985e9c5146108f4575f5ffd5b8063a22cb4651161010f578063a22cb46514610739578063a49062d414610758578063a8d4a03b1461076c578063b88d4fde14610826578063c87b56dd14610845578063cdf7d85614610864575f5ffd5b8063835a43981461063357806389cea22a146106875780638ab06fea146106a65780638da5cb5b1461070857806395d89b4114610725575f5ffd5b806334a8014b116101e15780634f6ccce7116101a65780634f6ccce71461056f5780635e619b781461058e5780636107ac13146105c25780636352211e146105e157806370a0823114610600578063715018a61461061f575f5ffd5b806334a8014b1461048f57806335b367711461050a5780633ccfd60b146105295780634105f8d71461053d57806342842e0e14610550575f5ffd5b80631c00d3bf116102325780631c00d3bf1461033957806321d801111461035857806323b872dd146103eb5780632795ad201461040a5780632d55f737146104515780632f745c5914610470575f5ffd5b806301ffc9a71461026e57806306fdde03146102a2578063081812fc146102c3578063095ea7b3146102fa57806318160ddd1461031b575b5f5ffd5b348015610279575f5ffd5b5061028d610288366004612d4a565b6109a0565b60405190151581526020015b60405180910390f35b3480156102ad575f5ffd5b506102b66109b0565b6040516102999190612d93565b3480156102ce575f5ffd5b506102e26102dd366004612da5565b610a3f565b6040516001600160a01b039091168152602001610299565b348015610305575f5ffd5b50610319610314366004612dd2565b610a66565b005b348015610326575f5ffd5b506008545b604051908152602001610299565b348015610344575f5ffd5b50610319610353366004612da5565b610a75565b348015610363575f5ffd5b50610377610372366004612da5565b610bae565b60405161029991905f610120820190508251825260018060a01b03602084015116602083015260408301516040830152606083015160608301526080830151608083015260a083015160a083015260c083015160c083015260e083015160e083015261010083015161010083015292915050565b3480156103f6575f5ffd5b50610319610405366004612dfa565b610cb4565b348015610415575f5ffd5b5061043c610424366004612da5565b60156020525f90815260409020805460019091015482565b60408051928352602083019190915201610299565b34801561045c575f5ffd5b5061032b61046b366004612dd2565b610d3d565b34801561047b575f5ffd5b5061032b61048a366004612dd2565b610d68565b34801561049a575f5ffd5b506104db6104a9366004612da5565b600f6020525f9081526040902080546001820154600283015460038401546004909401549293919260ff909116919085565b604051610299959493929190948552602085019390935290151560408401526060830152608082015260a00190565b348015610515575f5ffd5b5061032b610524366004612e4a565b610dcb565b348015610534575f5ffd5b50610319610f4c565b61031961054b366004612fc5565b610f8d565b34801561055b575f5ffd5b5061031961056a366004612dfa565b611254565b34801561057a575f5ffd5b5061032b610589366004612da5565b61126e565b348015610599575f5ffd5b506102e26105a8366004612da5565b600e6020525f90815260409020546001600160a01b031681565b3480156105cd575f5ffd5b506103196105dc366004612e4a565b6112c3565b3480156105ec575f5ffd5b506102e26105fb366004612da5565b6113ed565b34801561060b575f5ffd5b5061032b61061a366004613008565b6113f7565b34801561062a575f5ffd5b5061031961143c565b34801561063e575f5ffd5b5061065261064d366004612da5565b61144f565b604080519788526020880196909652948601939093526060850191909152608084015260a083015260c082015260e001610299565b348015610692575f5ffd5b506011546102e2906001600160a01b031681565b3480156106b1575f5ffd5b506106c56106c0366004612da5565b611525565b60405161029991905f60a0820190508251825260208301516020830152604083015115156040830152606083015160608301526080830151608083015292915050565b348015610713575f5ffd5b50600a546001600160a01b03166102e2565b348015610730575f5ffd5b506102b66115d9565b348015610744575f5ffd5b50610319610753366004613021565b6115e8565b348015610763575f5ffd5b5061032b606481565b348015610777575f5ffd5b506107da610786366004612da5565b600c6020525f908152604090208054600182015460028301546003840154600485015460058601546006870154600788015460089098015496976001600160a01b0390961696949593949293919290919089565b60408051998a526001600160a01b0390981660208a0152968801959095526060870193909352608086019190915260a085015260c084015260e083015261010082015261012001610299565b348015610831575f5ffd5b5061031961084036600461305a565b6115f3565b348015610850575f5ffd5b506102b661085f366004612da5565b61160b565b34801561086f575f5ffd5b5061088361087e366004613008565b61167c565b60405161029991906130bd565b34801561089b575f5ffd5b5061032b60125481565b3480156108b0575f5ffd5b506103196108bf366004612da5565b6116e5565b3480156108cf575f5ffd5b5060015b6040516102999190613113565b3480156108eb575f5ffd5b50610319611807565b3480156108ff575f5ffd5b5061028d61090e366004613139565b61197f565b34801561091e575f5ffd5b5061031961092d366004613008565b6119ac565b34801561093d575f5ffd5b5061031961094c366004613008565b6119d6565b6108d361095f366004613161565b611a10565b610319611b7d565b348015610977575f5ffd5b506010546102e2906001600160a01b031681565b348015610996575f5ffd5b5061032b60135481565b5f6109aa82611c5b565b92915050565b60605f80546109be90613192565b80601f01602080910402602001604051908101604052809291908181526020018280546109ea90613192565b8015610a355780601f10610a0c57610100808354040283529160200191610a35565b820191905f5260205f20905b815481529060010190602001808311610a1857829003601f168201915b5050505050905090565b5f610a4982611c7f565b505f828152600460205260409020546001600160a01b03166109aa565b610a71828233611cb6565b5050565b8033610a80826113ed565b6001600160a01b031614610aaf5760405162461bcd60e51b8152600401610aa6906131c4565b60405180910390fd5b815f610aba82611cc3565b6001600160a01b031603610ae05760405162461bcd60e51b8152600401610aa6906131fb565b5f838152600f602052604090206002015460ff1615610b415760405162461bcd60e51b815260206004820152601b60248201527f47616d652073657373696f6e20616c72656164792061637469766500000000006044820152606401610aa6565b50506040805160a0810182528281524260208083019182526001838501818152606085018281525f60808701818152988152600f90945295909220935184559151918301919091555160028201805460ff1916911515919091179055905160038201559051600490910155565b610bfd6040518061012001604052805f81526020015f6001600160a01b031681526020015f81526020015f81526020015f81526020015f81526020015f81526020015f81526020015f81525090565b815f610c0882611cc3565b6001600160a01b031603610c2e5760405162461bcd60e51b8152600401610aa6906131fb565b5f838152600c60209081526040918290208251610120810184528154815260018201546001600160a01b0316928101929092526002810154928201929092526003820154606082015260048201546080820152600582015460a0820152600682015460c0820152600782015460e082015260089091015461010082015291505b50919050565b6001600160a01b038216610cdd57604051633250574960e11b81525f6004820152602401610aa6565b5f610ce9838333611cdd565b9050836001600160a01b0316816001600160a01b031614610d37576040516364283d7b60e01b81526001600160a01b0380861660048301526024820184905282166044820152606401610aa6565b50505050565b600d602052815f5260405f208181548110610d56575f80fd5b905f5260205f20015f91509150505481565b5f610d72836113f7565b8210610da35760405163295f44f760e21b81526001600160a01b038416600482015260248101839052604401610aa6565b506001600160a01b03919091165f908152600660209081526040808320938352929052205490565b5f828152600c60209081526040808320815161012081018352815481526001828101546001600160a01b0316948201949094526002820154928101929092526003810154606083015260048101546080830152600581015460a0830152600681015460c0830152600781015460e083015260080154610100820152602883610e5284611e04565b90505f83604001516003610e66919061323c565b9050601e811115610e755750601e5b5f60058561010001518660e001518760c001518860a001518960800151610e9c9190613253565b610ea69190613253565b610eb09190613253565b610eba9190613253565b610ec4919061327a565b90506014811115610ed3575060145b5f600f610ee1601f8b61328d565b6001600160401b0316610ef491906132ba565b90505f818385610f04888a6132e0565b610f0e91906132e0565b610f1891906132e0565b610f2291906132e0565b90506005811215610f31575060055b605f811315610f3e5750605f5b9a9950505050505050505050565b610f54611e74565b600a546040516001600160a01b03909116904780156108fc02915f818181858888f19350505050158015610f8a573d5f5f3e3d5ffd5b50565b8133610f98826113ed565b6001600160a01b031614610fbe5760405162461bcd60e51b8152600401610aa6906131c4565b610fc6611ea1565b5f838152600c6020526040902060020154610ff35760405162461bcd60e51b8152600401610aa6906131fb565b66038d7ea4c6800034101561103d5760405162461bcd60e51b815260206004820152601060248201526f496e73756666696369656e742066656560801b6044820152606401610aa6565b601054604051631df3cbc560e31b81526001600160a01b039091169063ef9e5e289061106d908590600401613307565b5f604051808303815f87803b158015611084575f5ffd5b505af1158015611096573d5f5f3e3d5ffd5b5050604080514260208201524491810191909152606080820187905233901b6001600160601b03191660808201525f9250609401905060408051601f1981840301815282825280516020918201208383018352878452428483019081525f828152601590935283832094518555516001909401939093559051919250339183917f24824956716588cf18c3cb557ee25fa952255246eb51235316882371d343c35591a35f61114660016064611ecb565b90505f61115460028361336a565b15905080156111f7575f868152600c6020526040812060020180546001929061117e908490613253565b90915550505f868152600c602052604081206003018054606492906111a4908490613253565b90915550505f868152600c60205260409081902060020154905187917f893dc3a1c121cdc44e6a41bff8d799deb7e50f9ad20e93c637f082cfaacd153c916111ee91815260200190565b60405180910390a25b66038d7ea4c6800034111561124257336108fc61121b66038d7ea4c680003461337d565b6040518115909202915f818181858888f19350505050158015611240573d5f5f3e3d5ffd5b505b50505061124f6001600b55565b505050565b61124f83838360405180602001604052805f8152506115f3565b5f61127860085490565b82106112a05760405163295f44f760e21b81525f600482015260248101839052604401610aa6565b600882815481106112b3576112b3613390565b905f5260205f2001549050919050565b6011546001600160a01b0316331461131d5760405162461bcd60e51b815260206004820152601960248201527f4f6e6c792050797468456e74726f70792063616e2063616c6c000000000000006044820152606401610aa6565b5f8281526015602090815260409182902082518084019093528054808452600190910154918301919091526113865760405162461bcd60e51b815260206004820152600f60248201526e125b9d985b1a59081c995c5d595cdd608a1b6044820152606401610aa6565b80516113929083611f4b565b5f8381526015602090815260408083208381556001019290925590516001600160401b038416815284917f3aee0db1a8da737d79e238c3eb48db0b31bf4748dd5c42f52c3625f00ad06ce791015b60405180910390a2505050565b5f6109aa82611c7f565b5f6001600160a01b038216611421576040516322718ad960e21b81525f6004820152602401610aa6565b506001600160a01b03165f9081526003602052604090205490565b611444611e74565b61144d5f61202f565b565b5f808080808080878161146182611cc3565b6001600160a01b0316036114875760405162461bcd60e51b8152600401610aa6906131fb565b5050505f9586525050600c60209081526040948590208551610120810187528154815260018201546001600160a01b0316928101929092526002810154958201869052600381015460608301819052600482015460808401819052600583015460a08501819052600684015460c08601819052600785015460e087018190526008909501546101009096018690529899929891975095509350909190565b6115546040518060a001604052805f81526020015f81526020015f151581526020015f81526020015f81525090565b815f61155f82611cc3565b6001600160a01b0316036115855760405162461bcd60e51b8152600401610aa6906131fb565b50505f908152600f6020908152604091829020825160a08101845281548152600182015492810192909252600281015460ff1615159282019290925260038201546060820152600490910154608082015290565b6060600180546109be90613192565b610a71338383612080565b6115fe848484610cb4565b610d37338585858561211e565b606061161682611c7f565b505f61162c60408051602081019091525f815290565b90505f81511161164a5760405180602001604052805f815250611675565b8061165484612245565b6040516020016116659291906133bb565b6040516020818303038152906040525b9392505050565b6001600160a01b0381165f908152600d60209081526040918290208054835181840281018401909452808452606093928301828280156116d957602002820191905f5260205f20905b8154815260200190600101908083116116c5575b50505050509050919050565b80336116f0826113ed565b6001600160a01b0316146117165760405162461bcd60e51b8152600401610aa6906131c4565b815f61172182611cc3565b6001600160a01b0316036117475760405162461bcd60e51b8152600401610aa6906131fb565b5f838152600f602052604090206002015460ff166117a05760405162461bcd60e51b815260206004820152601660248201527527379030b1ba34bb329033b0b6b29039b2b9b9b4b7b760511b6044820152606401610aa6565b5f838152600f6020526040812060028101805460ff1916905560048101549091906117cc90600a61323c565b905080600c5f8781526020019081526020015f206003015f8282546117f19190613253565b909155506118009050856122d5565b5050505050565b601480545f9182611817836133cf565b9190505590506118273382612414565b604051806101200160405280828152602001336001600160a01b03168152602001600181526020015f8152602001611861600a6014611ecb565b8152602001611872600a6014611ecb565b8152602001611883600a6014611ecb565b8152602001611894600a6014611ecb565b81526020016118a56005600f611ecb565b90525f828152600c602090815260408083208451815584830151600180830180546001600160a01b0319166001600160a01b0390931692909217909155858301516002830155606086015160038301556080860151600483015560a0860151600583015560c0860151600683015560e086015160078301556101009095015160089091015533808452600d8352818420805480870182559085529383902090930185905551928352909183917f1ff83751d356c48789f84e073266f617fdfe6d8a24b572efe194288e748acce0910160405180910390a350565b6001600160a01b039182165f90815260056020908152604080832093909416825291909152205460ff1690565b6119b4611e74565b601080546001600160a01b0319166001600160a01b0392909216919091179055565b6119de611e74565b6001600160a01b038116611a0757604051631e4fbdf760e01b81525f6004820152602401610aa6565b610f8a8161202f565b5f5f825111611a615760405162461bcd60e51b815260206004820152601d60248201527f4e6f2070726963652075706461746520646174612070726f76696465640000006044820152606401610aa6565b601054604051631df3cbc560e31b81526001600160a01b039091169063ef9e5e28903490611a93908690600401613307565b5f604051808303818588803b158015611aaa575f5ffd5b505af193505050508015611abc575060015b611b7657611ac86133e7565b806308c379a003611b1e5750611adc613400565b80611ae75750611b20565b80604051602001611af8919061347a565b60408051601f198184030181529082905262461bcd60e51b8252610aa691600401612d93565b505b60405162461bcd60e51b815260206004820152602560248201527f5079746820757064617465206661696c6564207769746820756e6b6e6f776e2060448201526432b93937b960d91b6064820152608401610aa6565b60016109aa565b66038d7ea4c68000341015611be05760405162461bcd60e51b815260206004820152602360248201527f496e73756666696369656e74207061796d656e7420666f722072616e646f6d6e60448201526265737360e81b6064820152608401610aa6565b5f424433604051602001611c1493929190928352602083019190915260601b6001600160601b031916604082015260540190565b60408051601f198184030181529082905280516020909101209150339082907f24824956716588cf18c3cb557ee25fa952255246eb51235316882371d343c355905f90a350565b5f6001600160e01b0319821663780e9d6360e01b14806109aa57506109aa8261242d565b5f5f611c8a83611cc3565b90506001600160a01b0381166109aa57604051637e27328960e01b815260048101849052602401610aa6565b61124f838383600161247c565b5f908152600260205260409020546001600160a01b031690565b5f5f611ce884611cc3565b90506001600160a01b03811615611db6576001600160a01b0381165f908152600d60205260408120905b8154811015611db35785828281548110611d2e57611d2e613390565b905f5260205f20015403611dab5781548290611d4c9060019061337d565b81548110611d5c57611d5c613390565b905f5260205f200154828281548110611d7757611d77613390565b905f5260205f20018190555081805480611d9357611d936134a2565b600190038181905f5260205f20015f90559055611db3565b600101611d12565b50505b6001600160a01b03851615611df0576001600160a01b0385165f908152600d60209081526040822080546001810182559083529120018490555b611dfb858585612580565b95945050505050565b5f80826003811115611e1857611e186130ff565b03611e265750601819919050565b6001826003811115611e3a57611e3a6130ff565b03611e4657505f919050565b6002826003811115611e5a57611e5a6130ff565b03611e6757506019919050565b506028919050565b919050565b600a546001600160a01b0316331461144d5760405163118cdaa760e01b8152336004820152602401610aa6565b6002600b5403611ec457604051633ee5aeb560e01b815260040160405180910390fd5b6002600b55565b5f5f424433604051602001611f0093929190928352602083019190915260601b6001600160601b031916604082015260540190565b60408051601f1981840301815291905280516020909101209050611f24848461337d565b611f2f906001613253565b611f39908261336a565b611f439085613253565b949350505050565b5f611f568383610dcb565b905060015f82611f6760648661328d565b6001600160401b03161090508015611fd957611f858560018461264b565b847f3b43f363a2b7a22058b5ccc4932884dd959e821525241e3c50b6f580945bcfb784846003811115611fba57611fba6130ff565b6040805192835260ff90911660208301520160405180910390a2611800565b847fff378e65c32bfe98e4d53c9edcf30cbfca7da718a1c415f869f9193e55ea41488484600381111561200e5761200e6130ff565b6040805192835260ff90911660208301520160405180910390a25050505050565b600a80546001600160a01b038381166001600160a01b0319831681179093556040519116919082907f8be0079c531659141344cd1fd0a4f28419497f9722a3daafe3b4186f6b6457e0905f90a35050565b6001600160a01b0382166120b257604051630b61174360e31b81526001600160a01b0383166004820152602401610aa6565b6001600160a01b038381165f81815260056020908152604080832094871680845294825291829020805460ff191686151590811790915591519182527f17307eab39ab6107e8899845ad3d59bd9653f200f220920489ca2b5937696c31910160405180910390a3505050565b6001600160a01b0383163b1561180057604051630a85bd0160e11b81526001600160a01b0384169063150b7a02906121609088908890879087906004016134b6565b6020604051808303815f875af192505050801561219a575060408051601f3d908101601f19168201909252612197918101906134f2565b60015b612201573d8080156121c7576040519150601f19603f3d011682016040523d82523d5f602084013e6121cc565b606091505b5080515f036121f957604051633250574960e11b81526001600160a01b0385166004820152602401610aa6565b805160208201fd5b6001600160e01b03198116630a85bd0160e11b1461223d57604051633250574960e11b81526001600160a01b0385166004820152602401610aa6565b505050505050565b60605f61225183612752565b60010190505f816001600160401b0381111561226f5761226f612e74565b6040519080825280601f01601f191660200182016040528015612299576020820181803683370190505b5090508181016020015b5f19016f181899199a1a9b1b9c1cb0b131b232b360811b600a86061a8153600a85049450846122a3575b509392505050565b5f818152600c6020526040812060028101549091906122f69060649061323c565b905080826003015410158015612310575060648260020154105b1561124f57600282018054905f612326836133cf565b919050555061233760016003611ecb565b826004015f8282546123499190613253565b9091555061235b905060016003611ecb565b826005015f82825461236d9190613253565b9091555061237f905060016003611ecb565b826006015f8282546123919190613253565b909155506123a3905060016003611ecb565b826007015f8282546123b59190613253565b909155506123c690505f6002611ecb565b826008015f8282546123d89190613253565b9091555050600282015460405190815283907f893dc3a1c121cdc44e6a41bff8d799deb7e50f9ad20e93c637f082cfaacd153c906020016113e0565b610a71828260405180602001604052805f815250612829565b5f6001600160e01b031982166380ac58cd60e01b148061245d57506001600160e01b03198216635b5e139f60e01b145b806109aa57506301ffc9a760e01b6001600160e01b03198316146109aa565b808061249057506001600160a01b03821615155b15612551575f61249f84611c7f565b90506001600160a01b038316158015906124cb5750826001600160a01b0316816001600160a01b031614155b80156124de57506124dc818461197f565b155b156125075760405163a9fbf51f60e01b81526001600160a01b0384166004820152602401610aa6565b811561254f5783856001600160a01b0316826001600160a01b03167f8c5be1e5ebec7d5bd14f71427d1e84f3dd0314c0f7b2291e5b200ac8c7c3b92560405160405180910390a45b505b50505f90815260046020526040902080546001600160a01b0319166001600160a01b0392909216919091179055565b5f5f61258d858585612840565b90506001600160a01b0381166125e9576125e484600880545f838152600960205260408120829055600182018355919091527ff3f7a9fe364faab93b216da50a3214154f22a0a2b415b23a84c8169e8b636ee30155565b61260c565b846001600160a01b0316816001600160a01b03161461260c5761260c818561292d565b6001600160a01b03851661262857612623846129aa565b611f43565b846001600160a01b0316816001600160a01b031614611f4357611f438585612a51565b811561124f5760645f61265d83612a9f565b90505f606461266c838561323c565b612676919061327a565b905080600c5f8881526020019081526020015f206003015f82825461269b9190613253565b90915550505f868152600c60205260409020600301546126ba90612b0b565b5f878152600c6020526040908190206002018290555187917f893dc3a1c121cdc44e6a41bff8d799deb7e50f9ad20e93c637f082cfaacd153c9161270091815260200190565b60405180910390a2857f99e98b5ebdbbb637f7b71effb4d8524e9d51047520f1780f0eb644625cd028978261273487612b22565b60405161274292919061350d565b60405180910390a2505050505050565b5f8072184f03e93ff9f4daa797ed6e38ed64bf6a1f0160401b83106127905772184f03e93ff9f4daa797ed6e38ed64bf6a1f0160401b830492506040015b6d04ee2d6d415b85acef810000000083106127bc576d04ee2d6d415b85acef8100000000830492506020015b662386f26fc1000083106127da57662386f26fc10000830492506010015b6305f5e10083106127f2576305f5e100830492506008015b612710831061280657612710830492506004015b60648310612818576064830492506002015b600a83106109aa5760010192915050565b6128338383612c0f565b61124f335f85858561211e565b5f5f61284b84611cc3565b90506001600160a01b0383161561286757612867818486612c70565b6001600160a01b038116156128a1576128825f855f5f61247c565b6001600160a01b0381165f90815260036020526040902080545f190190555b6001600160a01b038516156128cf576001600160a01b0385165f908152600360205260409020805460010190555b5f8481526002602052604080822080546001600160a01b0319166001600160a01b0389811691821790925591518793918516917fddf252ad1be2c89b69c2b068fc378daa952ba7f163c4a11628f55a4df523b3ef91a4949350505050565b5f612937836113f7565b5f838152600760209081526040808320546001600160a01b038816845260069092529091209192509081831461298c575f83815260208281526040808320548584528184208190558352600790915290208290555b5f938452600760209081526040808620869055938552525081205550565b6008545f906129bb9060019061337d565b5f83815260096020526040812054600880549394509092849081106129e2576129e2613390565b905f5260205f20015490508060088381548110612a0157612a01613390565b5f918252602080832090910192909255828152600990915260408082208490558582528120556008805480612a3857612a386134a2565b600190038181905f5260205f20015f9055905550505050565b5f6001612a5d846113f7565b612a67919061337d565b6001600160a01b039093165f908152600660209081526040808320868452825280832085905593825260079052919091209190915550565b5f80826003811115612ab357612ab36130ff565b03612ac057506032919050565b6001826003811115612ad457612ad46130ff565b03612ae157506064919050565b6002826003811115612af557612af56130ff565b03612b02575060c8919050565b5061012c919050565b5f612b1760648361327a565b6109aa906001613253565b60605f826003811115612b3757612b376130ff565b03612b6357505060408051808201909152600b81526a1099585c8813585c9ad95d60aa1b602082015290565b6001826003811115612b7757612b776130ff565b03612ba557505060408051808201909152600d81526c139bdc9b585b0813585c9ad95d609a1b602082015290565b6002826003811115612bb957612bb96130ff565b03612be557505060408051808201909152600b81526a109d5b1b0813585c9ad95d60aa1b602082015290565b505060408051808201909152600e81526d115e1d1c995b594813585c9ad95d60921b602082015290565b6001600160a01b038216612c3857604051633250574960e11b81525f6004820152602401610aa6565b5f612c4483835f611cdd565b90506001600160a01b0381161561124f576040516339e3563760e11b81525f6004820152602401610aa6565b612c7b838383612cd4565b61124f576001600160a01b038316612ca957604051637e27328960e01b815260048101829052602401610aa6565b60405163177e802f60e01b81526001600160a01b038316600482015260248101829052604401610aa6565b5f6001600160a01b03831615801590611f435750826001600160a01b0316846001600160a01b03161480612d0d5750612d0d848461197f565b80611f435750505f908152600460205260409020546001600160a01b03908116911614919050565b6001600160e01b031981168114610f8a575f5ffd5b5f60208284031215612d5a575f5ffd5b813561167581612d35565b5f81518084528060208401602086015e5f602082860101526020601f19601f83011685010191505092915050565b602081525f6116756020830184612d65565b5f60208284031215612db5575f5ffd5b5035919050565b80356001600160a01b0381168114611e6f575f5ffd5b5f5f60408385031215612de3575f5ffd5b612dec83612dbc565b946020939093013593505050565b5f5f5f60608486031215612e0c575f5ffd5b612e1584612dbc565b9250612e2360208501612dbc565b929592945050506040919091013590565b80356001600160401b0381168114611e6f575f5ffd5b5f5f60408385031215612e5b575f5ffd5b82359150612e6b60208401612e34565b90509250929050565b634e487b7160e01b5f52604160045260245ffd5b601f8201601f191681016001600160401b0381118282101715612ead57612ead612e74565b6040525050565b5f82601f830112612ec3575f5ffd5b81356001600160401b03811115612edc57612edc612e74565b604051612ef3601f8301601f191660200182612e88565b818152846020838601011115612f07575f5ffd5b816020850160208301375f918101602001919091529392505050565b5f82601f830112612f32575f5ffd5b81356001600160401b03811115612f4b57612f4b612e74565b8060051b604051612f5f6020830182612e88565b918252602081850181019290810186841115612f79575f5ffd5b6020860192505b83831015612fbb5782356001600160401b03811115612f9d575f5ffd5b612fac886020838a0101612eb4565b82525060209283019201612f80565b5095945050505050565b5f5f60408385031215612fd6575f5ffd5b8235915060208301356001600160401b03811115612ff2575f5ffd5b612ffe85828601612f23565b9150509250929050565b5f60208284031215613018575f5ffd5b61167582612dbc565b5f5f60408385031215613032575f5ffd5b61303b83612dbc565b91506020830135801515811461304f575f5ffd5b809150509250929050565b5f5f5f5f6080858703121561306d575f5ffd5b61307685612dbc565b935061308460208601612dbc565b92506040850135915060608501356001600160401b038111156130a5575f5ffd5b6130b187828801612eb4565b91505092959194509250565b602080825282518282018190525f918401906040840190835b818110156130f45783518352602093840193909201916001016130d6565b509095945050505050565b634e487b7160e01b5f52602160045260245ffd5b602081016004831061313357634e487b7160e01b5f52602160045260245ffd5b91905290565b5f5f6040838503121561314a575f5ffd5b61315383612dbc565b9150612e6b60208401612dbc565b5f60208284031215613171575f5ffd5b81356001600160401b03811115613186575f5ffd5b611f4384828501612f23565b600181811c908216806131a657607f821691505b602082108103610cae57634e487b7160e01b5f52602260045260245ffd5b6020808252601a908201527f4e6f7420746865206f776e6572206f662074686973206865726f000000000000604082015260600190565b60208082526013908201527212195c9bc8191bd95cc81b9bdd08195e1a5cdd606a1b604082015260600190565b634e487b7160e01b5f52601160045260245ffd5b80820281158282048414176109aa576109aa613228565b808201808211156109aa576109aa613228565b634e487b7160e01b5f52601260045260245ffd5b5f8261328857613288613266565b500490565b5f6001600160401b038316806132a5576132a5613266565b806001600160401b0384160691505092915050565b8181035f8312801583831316838312821617156132d9576132d9613228565b5092915050565b8082018281125f8312801582168215821617156132ff576132ff613228565b505092915050565b5f602082016020835280845180835260408501915060408160051b8601019250602086015f5b8281101561335e57603f19878603018452613349858351612d65565b9450602093840193919091019060010161332d565b50929695505050505050565b5f8261337857613378613266565b500690565b818103818111156109aa576109aa613228565b634e487b7160e01b5f52603260045260245ffd5b5f81518060208401855e5f93019283525090919050565b5f611f436133c983866133a4565b846133a4565b5f600182016133e0576133e0613228565b5060010190565b5f60033d11156133fd5760045f5f3e505f5160e01c5b90565b5f60443d101561340d5790565b6040513d600319016004823e80513d60248201116001600160401b038211171561343657505090565b80820180516001600160401b03811115613451575050505090565b3d840160031901828201602001111561346b575050505090565b6122cd60208285010185612e88565b730283cba34103ab83230ba32903330b4b632b21d160651b81525f61167560148301846133a4565b634e487b7160e01b5f52603160045260245ffd5b6001600160a01b03858116825284166020820152604081018390526080606082018190525f906134e890830184612d65565b9695505050505050565b5f60208284031215613502575f5ffd5b815161167581612d35565b828152604060208201525f611f436040830184612d6556fea2646970667358221220923e2ef261efa6f5185c46489eb457b08f2ee9ed8411310910f87586100cb5c764736f6c634300081c0033",
  "linkReferences": {},
  "deployedLinkReferences": {},
  "immutableReferences": {},
  "inputSourceName": "project/contracts/RogueChain.sol",
  "buildInfoId": "solc-0_8_28-4636d3b6741d5497dbb791a4f4b8b1d5b4ed3b64"
}