{
  "_format": "hh3-artifact-1",
  "contractName": "RogueChain",
  "sourceName": "contracts/RogueChain.sol",
  "abi": [
    {
      "inputs": [
        {
          "internalType": "address",
          "name": "_pyth",
          "type": "address"
        },
        {
          "internalType": "address",
          "name": "_pythEntropy",
          "type": "address"
        },
        {
          "internalType": "bytes32",
          "name": "_ethPriceId",
          "type": "bytes32"
        },
        {
          "internalType": "bytes32",
          "name": "_btcPriceId",
          "type": "bytes32"
        }
      ],
      "stateMutability": "nonpayable",
      "type": "constructor"
    },
    {
      "inputs": [],
      "name": "ERC721EnumerableForbiddenBatchMint",
      "type": "error"
    },
    {
      "inputs": [
        {
          "internalType": "address",
          "name": "sender",
          "type": "address"
        },
        {
          "internalType": "uint256",
          "name": "tokenId",
          "type": "uint256"
        },
        {
          "internalType": "address",
          "name": "owner",
          "type": "address"
        }
      ],
      "name": "ERC721IncorrectOwner",
      "type": "error"
    },
    {
      "inputs": [
        {
          "internalType": "address",
          "name": "operator",
          "type": "address"
        },
        {
          "internalType": "uint256",
          "name": "tokenId",
          "type": "uint256"
        }
      ],
      "name": "ERC721InsufficientApproval",
      "type": "error"
    },
    {
      "inputs": [
        {
          "internalType": "address",
          "name": "approver",
          "type": "address"
        }
      ],
      "name": "ERC721InvalidApprover",
      "type": "error"
    },
    {
      "inputs": [
        {
          "internalType": "address",
          "name": "operator",
          "type": "address"
        }
      ],
      "name": "ERC721InvalidOperator",
      "type": "error"
    },
    {
      "inputs": [
        {
          "internalType": "address",
          "name": "owner",
          "type": "address"
        }
      ],
      "name": "ERC721InvalidOwner",
      "type": "error"
    },
    {
      "inputs": [
        {
          "internalType": "address",
          "name": "receiver",
          "type": "address"
        }
      ],
      "name": "ERC721InvalidReceiver",
      "type": "error"
    },
    {
      "inputs": [
        {
          "internalType": "address",
          "name": "sender",
          "type": "address"
        }
      ],
      "name": "ERC721InvalidSender",
      "type": "error"
    },
    {
      "inputs": [
        {
          "internalType": "uint256",
          "name": "tokenId",
          "type": "uint256"
        }
      ],
      "name": "ERC721NonexistentToken",
      "type": "error"
    },
    {
      "inputs": [
        {
          "internalType": "address",
          "name": "owner",
          "type": "address"
        },
        {
          "internalType": "uint256",
          "name": "index",
          "type": "uint256"
        }
      ],
      "name": "ERC721OutOfBoundsIndex",
      "type": "error"
    },
    {
      "inputs": [
        {
          "internalType": "address",
          "name": "owner",
          "type": "address"
        }
      ],
      "name": "OwnableInvalidOwner",
      "type": "error"
    },
    {
      "inputs": [
        {
          "internalType": "address",
          "name": "account",
          "type": "address"
        }
      ],
      "name": "OwnableUnauthorizedAccount",
      "type": "error"
    },
    {
      "inputs": [],
      "name": "ReentrancyGuardReentrantCall",
      "type": "error"
    },
    {
      "anonymous": false,
      "inputs": [
        {
          "indexed": true,
          "internalType": "address",
          "name": "owner",
          "type": "address"
        },
        {
          "indexed": true,
          "internalType": "address",
          "name": "approved",
          "type": "address"
        },
        {
          "indexed": true,
          "internalType": "uint256",
          "name": "tokenId",
          "type": "uint256"
        }
      ],
      "name": "Approval",
      "type": "event"
    },
    {
      "anonymous": false,
      "inputs": [
        {
          "indexed": true,
          "internalType": "address",
          "name": "owner",
          "type": "address"
        },
        {
          "indexed": true,
          "internalType": "address",
          "name": "operator",
          "type": "address"
        },
        {
          "indexed": false,
          "internalType": "bool",
          "name": "approved",
          "type": "bool"
        }
      ],
      "name": "ApprovalForAll",
      "type": "event"
    },
    {
      "anonymous": false,
      "inputs": [
        {
          "indexed": true,
          "internalType": "uint256",
          "name": "heroId",
          "type": "uint256"
        },
        {
          "indexed": false,
          "internalType": "uint256",
          "name": "victoryChance",
          "type": "uint256"
        },
        {
          "indexed": false,
          "internalType": "uint8",
          "name": "marketState",
          "type": "uint8"
        }
      ],
      "name": "DungeonDefeat",
      "type": "event"
    },
    {
      "anonymous": false,
      "inputs": [
        {
          "indexed": true,
          "internalType": "uint256",
          "name": "heroId",
          "type": "uint256"
        },
        {
          "indexed": false,
          "internalType": "uint256",
          "name": "victoryChance",
          "type": "uint256"
        },
        {
          "indexed": false,
          "internalType": "uint8",
          "name": "marketState",
          "type": "uint8"
        }
      ],
      "name": "DungeonVictory",
      "type": "event"
    },
    {
      "anonymous": false,
      "inputs": [
        {
          "indexed": true,
          "internalType": "uint256",
          "name": "heroId",
          "type": "uint256"
        },
        {
          "indexed": false,
          "internalType": "uint256",
          "name": "newLevel",
          "type": "uint256"
        }
      ],
      "name": "HeroLeveledUp",
      "type": "event"
    },
    {
      "anonymous": false,
      "inputs": [
        {
          "indexed": true,
          "internalType": "uint256",
          "name": "heroId",
          "type": "uint256"
        },
        {
          "indexed": true,
          "internalType": "address",
          "name": "owner",
          "type": "address"
        },
        {
          "indexed": false,
          "internalType": "uint256",
          "name": "level",
          "type": "uint256"
        }
      ],
      "name": "HeroMinted",
      "type": "event"
    },
    {
      "anonymous": false,
      "inputs": [
        {
          "indexed": false,
          "internalType": "string",
          "name": "eventName",
          "type": "string"
        },
        {
          "indexed": false,
          "internalType": "string",
          "name": "description",
          "type": "string"
        }
      ],
      "name": "MarketEventTriggered",
      "type": "event"
    },
    {
      "anonymous": false,
      "inputs": [
        {
          "indexed": true,
          "internalType": "address",
          "name": "previousOwner",
          "type": "address"
        },
        {
          "indexed": true,
          "internalType": "address",
          "name": "newOwner",
          "type": "address"
        }
      ],
      "name": "OwnershipTransferred",
      "type": "event"
    },
    {
      "anonymous": false,
      "inputs": [
        {
          "indexed": true,
          "internalType": "bytes32",
          "name": "requestId",
          "type": "bytes32"
        },
        {
          "indexed": false,
          "internalType": "uint64",
          "name": "randomNumber",
          "type": "uint64"
        }
      ],
      "name": "RandomnessFulfilled",
      "type": "event"
    },
    {
      "anonymous": false,
      "inputs": [
        {
          "indexed": true,
          "internalType": "bytes32",
          "name": "requestId",
          "type": "bytes32"
        },
        {
          "indexed": true,
          "internalType": "address",
          "name": "requester",
          "type": "address"
        }
      ],
      "name": "RandomnessRequested",
      "type": "event"
    },
    {
      "anonymous": false,
      "inputs": [
        {
          "indexed": true,
          "internalType": "uint256",
          "name": "heroId",
          "type": "uint256"
        },
        {
          "indexed": false,
          "internalType": "uint256",
          "name": "amount",
          "type": "uint256"
        },
        {
          "indexed": false,
          "internalType": "string",
          "name": "marketName",
          "type": "string"
        }
      ],
      "name": "RewardEarned",
      "type": "event"
    },
    {
      "anonymous": false,
      "inputs": [
        {
          "indexed": true,
          "internalType": "address",
          "name": "from",
          "type": "address"
        },
        {
          "indexed": true,
          "internalType": "address",
          "name": "to",
          "type": "address"
        },
        {
          "indexed": true,
          "internalType": "uint256",
          "name": "tokenId",
          "type": "uint256"
        }
      ],
      "name": "Transfer",
      "type": "event"
    },
    {
      "inputs": [],
      "name": "BASE_EXPERIENCE",
      "outputs": [
        {
          "internalType": "uint256",
          "name": "",
          "type": "uint256"
        }
      ],
      "stateMutability": "view",
      "type": "function"
    },
    {
      "inputs": [],
      "name": "MAX_LEVEL",
      "outputs": [
        {
          "internalType": "uint256",
          "name": "",
          "type": "uint256"
        }
      ],
      "stateMutability": "view",
      "type": "function"
    },
    {
      "inputs": [
        {
          "internalType": "address",
          "name": "to",
          "type": "address"
        },
        {
          "internalType": "uint256",
          "name": "tokenId",
          "type": "uint256"
        }
      ],
      "name": "approve",
      "outputs": [],
      "stateMutability": "nonpayable",
      "type": "function"
    },
    {
      "inputs": [
        {
          "internalType": "address",
          "name": "owner",
          "type": "address"
        }
      ],
      "name": "balanceOf",
      "outputs": [
        {
          "internalType": "uint256",
          "name": "",
          "type": "uint256"
        }
      ],
      "stateMutability": "view",
      "type": "function"
    },
    {
      "inputs": [],
      "name": "btcPriceId",
      "outputs": [
        {
          "internalType": "bytes32",
          "name": "",
          "type": "bytes32"
        }
      ],
      "stateMutability": "view",
      "type": "function"
    },
    {
      "inputs": [
        {
          "internalType": "uint256",
          "name": "heroId",
          "type": "uint256"
        },
        {
          "internalType": "uint64",
          "name": "randomNumber",
          "type": "uint64"
        }
      ],
      "name": "calculateVictoryChance",
      "outputs": [
        {
          "internalType": "uint256",
          "name": "",
          "type": "uint256"
        }
      ],
      "stateMutability": "view",
      "type": "function"
    },
    {
      "inputs": [
        {
          "internalType": "uint256",
          "name": "heroId",
          "type": "uint256"
        }
      ],
      "name": "endGameSession",
      "outputs": [],
      "stateMutability": "nonpayable",
      "type": "function"
    },
    {
      "inputs": [
        {
          "internalType": "uint256",
          "name": "heroId",
          "type": "uint256"
        },
        {
          "internalType": "bytes[]",
          "name": "priceUpdateData",
          "type": "bytes[]"
        }
      ],
      "name": "enterDungeon",
      "outputs": [],
      "stateMutability": "payable",
      "type": "function"
    },
    {
      "inputs": [],
      "name": "ethPriceId",
      "outputs": [
        {
          "internalType": "bytes32",
          "name": "",
          "type": "bytes32"
        }
      ],
      "stateMutability": "view",
      "type": "function"
    },
    {
      "inputs": [
        {
          "internalType": "bytes32",
          "name": "requestId",
          "type": "bytes32"
        },
        {
          "internalType": "uint64",
          "name": "randomNumber",
          "type": "uint64"
        }
      ],
      "name": "fulfillRandomness",
      "outputs": [],
      "stateMutability": "nonpayable",
      "type": "function"
    },
    {
      "inputs": [
        {
          "internalType": "uint256",
          "name": "",
          "type": "uint256"
        }
      ],
      "name": "gameSessions",
      "outputs": [
        {
          "internalType": "uint256",
          "name": "heroId",
          "type": "uint256"
        },
        {
          "internalType": "uint256",
          "name": "startTime",
          "type": "uint256"
        },
        {
          "internalType": "bool",
          "name": "isActive",
          "type": "bool"
        },
        {
          "internalType": "uint256",
          "name": "currentFloor",
          "type": "uint256"
        },
        {
          "internalType": "uint256",
          "name": "monstersDefeated",
          "type": "uint256"
        }
      ],
      "stateMutability": "view",
      "type": "function"
    },
    {
      "inputs": [
        {
          "internalType": "uint256",
          "name": "tokenId",
          "type": "uint256"
        }
      ],
      "name": "getApproved",
      "outputs": [
        {
          "internalType": "address",
          "name": "",
          "type": "address"
        }
      ],
      "stateMutability": "view",
      "type": "function"
    },
    {
      "inputs": [
        {
          "internalType": "uint256",
          "name": "heroId",
          "type": "uint256"
        }
      ],
      "name": "getGameSession",
      "outputs": [
        {
          "components": [
            {
              "internalType": "uint256",
              "name": "heroId",
              "type": "uint256"
            },
            {
              "internalType": "uint256",
              "name": "startTime",
              "type": "uint256"
            },
            {
              "internalType": "bool",
              "name": "isActive",
              "type": "bool"
            },
            {
              "internalType": "uint256",
              "name": "currentFloor",
              "type": "uint256"
            },
            {
              "internalType": "uint256",
              "name": "monstersDefeated",
              "type": "uint256"
            }
          ],
          "internalType": "struct RogueChain.GameSession",
          "name": "",
          "type": "tuple"
        }
      ],
      "stateMutability": "view",
      "type": "function"
    },
    {
      "inputs": [
        {
          "internalType": "uint256",
          "name": "heroId",
          "type": "uint256"
        }
      ],
      "name": "getHero",
      "outputs": [
        {
          "components": [
            {
              "internalType": "uint256",
              "name": "id",
              "type": "uint256"
            },
            {
              "internalType": "address",
              "name": "owner",
              "type": "address"
            },
            {
              "internalType": "uint256",
              "name": "level",
              "type": "uint256"
            },
            {
              "internalType": "uint256",
              "name": "experience",
              "type": "uint256"
            },
            {
              "internalType": "uint256",
              "name": "strength",
              "type": "uint256"
            },
            {
              "internalType": "uint256",
              "name": "agility",
              "type": "uint256"
            },
            {
              "internalType": "uint256",
              "name": "intelligence",
              "type": "uint256"
            },
            {
              "internalType": "uint256",
              "name": "vitality",
              "type": "uint256"
            },
            {
              "internalType": "uint256",
              "name": "luck",
              "type": "uint256"
            }
          ],
          "internalType": "struct RogueChain.Hero",
          "name": "",
          "type": "tuple"
        }
      ],
      "stateMutability": "view",
      "type": "function"
    },
    {
      "inputs": [
        {
          "internalType": "uint256",
          "name": "heroId",
          "type": "uint256"
        }
      ],
      "name": "getHeroStats",
      "outputs": [
        {
          "internalType": "uint256",
          "name": "level",
          "type": "uint256"
        },
        {
          "internalType": "uint256",
          "name": "experience",
          "type": "uint256"
        },
        {
          "internalType": "uint256",
          "name": "strength",
          "type": "uint256"
        },
        {
          "internalType": "uint256",
          "name": "agility",
          "type": "uint256"
        },
        {
          "internalType": "uint256",
          "name": "intelligence",
          "type": "uint256"
        },
        {
          "internalType": "uint256",
          "name": "vitality",
          "type": "uint256"
        },
        {
          "internalType": "uint256",
          "name": "luck",
          "type": "uint256"
        }
      ],
      "stateMutability": "view",
      "type": "function"
    },
    {
      "inputs": [],
      "name": "getMarketState",
      "outputs": [
        {
          "internalType": "enum RogueChain.MarketState",
          "name": "",
          "type": "uint8"
        }
      ],
      "stateMutability": "view",
      "type": "function"
    },
    {
      "inputs": [
        {
          "internalType": "address",
          "name": "user",
          "type": "address"
        }
      ],
      "name": "getUserHeroes",
      "outputs": [
        {
          "internalType": "uint256[]",
          "name": "",
          "type": "uint256[]"
        }
      ],
      "stateMutability": "view",
      "type": "function"
    },
    {
      "inputs": [
        {
          "internalType": "uint256",
          "name": "",
          "type": "uint256"
        }
      ],
      "name": "heroes",
      "outputs": [
        {
          "internalType": "uint256",
          "name": "id",
          "type": "uint256"
        },
        {
          "internalType": "address",
          "name": "owner",
          "type": "address"
        },
        {
          "internalType": "uint256",
          "name": "level",
          "type": "uint256"
        },
        {
          "internalType": "uint256",
          "name": "experience",
          "type": "uint256"
        },
        {
          "internalType": "uint256",
          "name": "strength",
          "type": "uint256"
        },
        {
          "internalType": "uint256",
          "name": "agility",
          "type": "uint256"
        },
        {
          "internalType": "uint256",
          "name": "intelligence",
          "type": "uint256"
        },
        {
          "internalType": "uint256",
          "name": "vitality",
          "type": "uint256"
        },
        {
          "internalType": "uint256",
          "name": "luck",
          "type": "uint256"
        }
      ],
      "stateMutability": "view",
      "type": "function"
    },
    {
      "inputs": [
        {
          "internalType": "address",
          "name": "owner",
          "type": "address"
        },
        {
          "internalType": "address",
          "name": "operator",
          "type": "address"
        }
      ],
      "name": "isApprovedForAll",
      "outputs": [
        {
          "internalType": "bool",
          "name": "",
          "type": "bool"
        }
      ],
      "stateMutability": "view",
      "type": "function"
    },
    {
      "inputs": [],
      "name": "mintHero",
      "outputs": [],
      "stateMutability": "nonpayable",
      "type": "function"
    },
    {
      "inputs": [],
      "name": "name",
      "outputs": [
        {
          "internalType": "string",
          "name": "",
          "type": "string"
        }
      ],
      "stateMutability": "view",
      "type": "function"
    },
    {
      "inputs": [],
      "name": "owner",
      "outputs": [
        {
          "internalType": "address",
          "name": "",
          "type": "address"
        }
      ],
      "stateMutability": "view",
      "type": "function"
    },
    {
      "inputs": [
        {
          "internalType": "uint256",
          "name": "tokenId",
          "type": "uint256"
        }
      ],
      "name": "ownerOf",
      "outputs": [
        {
          "internalType": "address",
          "name": "",
          "type": "address"
        }
      ],
      "stateMutability": "view",
      "type": "function"
    },
    {
      "inputs": [
        {
          "internalType": "bytes32",
          "name": "",
          "type": "bytes32"
        }
      ],
      "name": "pendingRequests",
      "outputs": [
        {
          "internalType": "uint256",
          "name": "heroId",
          "type": "uint256"
        },
        {
          "internalType": "uint256",
          "name": "timestamp",
          "type": "uint256"
        }
      ],
      "stateMutability": "view",
      "type": "function"
    },
    {
      "inputs": [],
      "name": "pyth",
      "outputs": [
        {
          "internalType": "contract IPyth",
          "name": "",
          "type": "address"
        }
      ],
      "stateMutability": "view",
      "type": "function"
    },
    {
      "inputs": [],
      "name": "pythEntropy",
      "outputs": [
        {
          "internalType": "address",
          "name": "",
          "type": "address"
        }
      ],
      "stateMutability": "view",
      "type": "function"
    },
    {
      "inputs": [
        {
          "internalType": "bytes32",
          "name": "",
          "type": "bytes32"
        }
      ],
      "name": "randomnessRequests",
      "outputs": [
        {
          "internalType": "address",
          "name": "",
          "type": "address"
        }
      ],
      "stateMutability": "view",
      "type": "function"
    },
    {
      "inputs": [],
      "name": "renounceOwnership",
      "outputs": [],
      "stateMutability": "nonpayable",
      "type": "function"
    },
    {
      "inputs": [],
      "name": "requestRandomness",
      "outputs": [],
      "stateMutability": "payable",
      "type": "function"
    },
    {
      "inputs": [
        {
          "internalType": "address",
          "name": "from",
          "type": "address"
        },
        {
          "internalType": "address",
          "name": "to",
          "type": "address"
        },
        {
          "internalType": "uint256",
          "name": "tokenId",
          "type": "uint256"
        }
      ],
      "name": "safeTransferFrom",
      "outputs": [],
      "stateMutability": "nonpayable",
      "type": "function"
    },
    {
      "inputs": [
        {
          "internalType": "address",
          "name": "from",
          "type": "address"
        },
        {
          "internalType": "address",
          "name": "to",
          "type": "address"
        },
        {
          "internalType": "uint256",
          "name": "tokenId",
          "type": "uint256"
        },
        {
          "internalType": "bytes",
          "name": "data",
          "type": "bytes"
        }
      ],
      "name": "safeTransferFrom",
      "outputs": [],
      "stateMutability": "nonpayable",
      "type": "function"
    },
    {
      "inputs": [
        {
          "internalType": "address",
          "name": "operator",
          "type": "address"
        },
        {
          "internalType": "bool",
          "name": "approved",
          "type": "bool"
        }
      ],
      "name": "setApprovalForAll",
      "outputs": [],
      "stateMutability": "nonpayable",
      "type": "function"
    },
    {
      "inputs": [
        {
          "internalType": "address",
          "name": "_pyth",
          "type": "address"
        }
      ],
      "name": "setPyth",
      "outputs": [],
      "stateMutability": "nonpayable",
      "type": "function"
    },
    {
      "inputs": [
        {
          "internalType": "uint256",
          "name": "heroId",
          "type": "uint256"
        }
      ],
      "name": "startGameSession",
      "outputs": [],
      "stateMutability": "nonpayable",
      "type": "function"
    },
    {
      "inputs": [
        {
          "internalType": "bytes4",
          "name": "interfaceId",
          "type": "bytes4"
        }
      ],
      "name": "supportsInterface",
      "outputs": [
        {
          "internalType": "bool",
          "name": "",
          "type": "bool"
        }
      ],
      "stateMutability": "view",
      "type": "function"
    },
    {
      "inputs": [],
      "name": "symbol",
      "outputs": [
        {
          "internalType": "string",
          "name": "",
          "type": "string"
        }
      ],
      "stateMutability": "view",
      "type": "function"
    },
    {
      "inputs": [
        {
          "internalType": "uint256",
          "name": "index",
          "type": "uint256"
        }
      ],
      "name": "tokenByIndex",
      "outputs": [
        {
          "internalType": "uint256",
          "name": "",
          "type": "uint256"
        }
      ],
      "stateMutability": "view",
      "type": "function"
    },
    {
      "inputs": [
        {
          "internalType": "address",
          "name": "owner",
          "type": "address"
        },
        {
          "internalType": "uint256",
          "name": "index",
          "type": "uint256"
        }
      ],
      "name": "tokenOfOwnerByIndex",
      "outputs": [
        {
          "internalType": "uint256",
          "name": "",
          "type": "uint256"
        }
      ],
      "stateMutability": "view",
      "type": "function"
    },
    {
      "inputs": [
        {
          "internalType": "uint256",
          "name": "tokenId",
          "type": "uint256"
        }
      ],
      "name": "tokenURI",
      "outputs": [
        {
          "internalType": "string",
          "name": "",
          "type": "string"
        }
      ],
      "stateMutability": "view",
      "type": "function"
    },
    {
      "inputs": [],
      "name": "totalSupply",
      "outputs": [
        {
          "internalType": "uint256",
          "name": "",
          "type": "uint256"
        }
      ],
      "stateMutability": "view",
      "type": "function"
    },
    {
      "inputs": [
        {
          "internalType": "address",
          "name": "from",
          "type": "address"
        },
        {
          "internalType": "address",
          "name": "to",
          "type": "address"
        },
        {
          "internalType": "uint256",
          "name": "tokenId",
          "type": "uint256"
        }
      ],
      "name": "transferFrom",
      "outputs": [],
      "stateMutability": "nonpayable",
      "type": "function"
    },
    {
      "inputs": [
        {
          "internalType": "address",
          "name": "newOwner",
          "type": "address"
        }
      ],
      "name": "transferOwnership",
      "outputs": [],
      "stateMutability": "nonpayable",
      "type": "function"
    },
    {
      "inputs": [
        {
          "internalType": "bytes[]",
          "name": "priceUpdateData",
          "type": "bytes[]"
        }
      ],
      "name": "updatePriceFeedsAndGetMarketState",
      "outputs": [
        {
          "internalType": "enum RogueChain.MarketState",
          "name": "",
          "type": "uint8"
        }
      ],
      "stateMutability": "payable",
      "type": "function"
    },
    {
      "inputs": [
        {
          "internalType": "address",
          "name": "",
          "type": "address"
        },
        {
          "internalType": "uint256",
          "name": "",
          "type": "uint256"
        }
      ],
      "name": "userHeroes",
      "outputs": [
        {
          "internalType": "uint256",
          "name": "",
          "type": "uint256"
        }
      ],
      "stateMutability": "view",
      "type": "function"
    },
    {
      "inputs": [],
      "name": "withdraw",
      "outputs": [],
      "stateMutability": "nonpayable",
      "type": "function"
    }
  ],
  "bytecode": "0x608060405234801561000f575f5ffd5b506040516139ed3803806139ed83398101604081905261002e91610179565b3360405180604001604052806011815260200170526f677565436861696e204865726f657360781b815250604051806040016040528060038152602001620a486960eb1b815250815f90816100839190610251565b5060016100908282610251565b5050506001600160a01b0381166100c057604051631e4fbdf760e01b81525f600482015260240160405180910390fd5b6100c98161010d565b506001600b55601080546001600160a01b039586166001600160a01b031991821617909155601180549490951693169290921790925560129190915560135561030b565b600a80546001600160a01b038381166001600160a01b0319831681179093556040519116919082907f8be0079c531659141344cd1fd0a4f28419497f9722a3daafe3b4186f6b6457e0905f90a35050565b80516001600160a01b0381168114610174575f5ffd5b919050565b5f5f5f5f6080858703121561018c575f5ffd5b6101958561015e565b93506101a36020860161015e565b6040860151606090960151949790965092505050565b634e487b7160e01b5f52604160045260245ffd5b600181811c908216806101e157607f821691505b6020821081036101ff57634e487b7160e01b5f52602260045260245ffd5b50919050565b601f82111561024c57805f5260205f20601f840160051c8101602085101561022a5750805b601f840160051c820191505b81811015610249575f8155600101610236565b50505b505050565b81516001600160401b0381111561026a5761026a6101b9565b61027e8161027884546101cd565b84610205565b6020601f8211600181146102b0575f83156102995750848201515b5f19600385901b1c1916600184901b178455610249565b5f84815260208120601f198516915b828110156102df57878501518255602094850194600190920191016102bf565b50848210156102fc57868401515f19600387901b60f8161c191681555b50505050600190811b01905550565b6136d5806103185f395ff3fe60806040526004361061026a575f3560e01c8063835a43981161014a578063cfe68a4e116100be578063ee22fd6f11610078578063ee22fd6f14610918578063f2fde38b14610937578063f351325514610956578063f8413b0714610969578063f98d06f014610971578063fbb0ab0014610990575f5ffd5b8063cfe68a4e14610890578063d2e65a7c146108a5578063d7129b4314610758578063d8165743146108c4578063e9200337146108e5578063e985e9c5146108f9575f5ffd5b8063a22cb4651161010f578063a22cb46514610739578063a49062d414610758578063a8d4a03b1461076c578063b88d4fde14610826578063c87b56dd14610845578063cdf7d85614610864575f5ffd5b8063835a43981461063357806389cea22a146106875780638ab06fea146106a65780638da5cb5b1461070857806395d89b4114610725575f5ffd5b806334a8014b116101e15780634f6ccce7116101a65780634f6ccce71461056f5780635e619b781461058e5780636107ac13146105c25780636352211e146105e157806370a0823114610600578063715018a61461061f575f5ffd5b806334a8014b1461048f57806335b367711461050a5780633ccfd60b146105295780634105f8d71461053d57806342842e0e14610550575f5ffd5b80631c00d3bf116102325780631c00d3bf1461033957806321d801111461035857806323b872dd146103eb5780632795ad201461040a5780632d55f737146104515780632f745c5914610470575f5ffd5b806301ffc9a71461026e57806306fdde03146102a2578063081812fc146102c3578063095ea7b3146102fa57806318160ddd1461031b575b5f5ffd5b348015610279575f5ffd5b5061028d610288366004612e3c565b6109a5565b60405190151581526020015b60405180910390f35b3480156102ad575f5ffd5b506102b66109b5565b6040516102999190612e85565b3480156102ce575f5ffd5b506102e26102dd366004612e97565b610a44565b6040516001600160a01b039091168152602001610299565b348015610305575f5ffd5b50610319610314366004612ec4565b610a6b565b005b348015610326575f5ffd5b506008545b604051908152602001610299565b348015610344575f5ffd5b50610319610353366004612e97565b610a7a565b348015610363575f5ffd5b50610377610372366004612e97565b610bb3565b60405161029991905f610120820190508251825260018060a01b03602084015116602083015260408301516040830152606083015160608301526080830151608083015260a083015160a083015260c083015160c083015260e083015160e083015261010083015161010083015292915050565b3480156103f6575f5ffd5b50610319610405366004612eec565b610cb9565b348015610415575f5ffd5b5061043c610424366004612e97565b60156020525f90815260409020805460019091015482565b60408051928352602083019190915201610299565b34801561045c575f5ffd5b5061032b61046b366004612ec4565b610d42565b34801561047b575f5ffd5b5061032b61048a366004612ec4565b610d6d565b34801561049a575f5ffd5b506104db6104a9366004612e97565b600f6020525f9081526040902080546001820154600283015460038401546004909401549293919260ff909116919085565b604051610299959493929190948552602085019390935290151560408401526060830152608082015260a00190565b348015610515575f5ffd5b5061032b610524366004612f3a565b610dd0565b348015610534575f5ffd5b50610319610f5d565b61031961054b3660046130b9565b610f9e565b34801561055b575f5ffd5b5061031961056a366004612eec565b611265565b34801561057a575f5ffd5b5061032b610589366004612e97565b61127f565b348015610599575f5ffd5b506102e26105a8366004612e97565b600e6020525f90815260409020546001600160a01b031681565b3480156105cd575f5ffd5b506103196105dc366004612f3a565b6112d4565b3480156105ec575f5ffd5b506102e26105fb366004612e97565b6113fe565b34801561060b575f5ffd5b5061032b61061a3660046130fc565b611408565b34801561062a575f5ffd5b5061031961144d565b34801561063e575f5ffd5b5061065261064d366004612e97565b611460565b604080519788526020880196909652948601939093526060850191909152608084015260a083015260c082015260e001610299565b348015610692575f5ffd5b506011546102e2906001600160a01b031681565b3480156106b1575f5ffd5b506106c56106c0366004612e97565b611536565b60405161029991905f60a0820190508251825260208301516020830152604083015115156040830152606083015160608301526080830151608083015292915050565b348015610713575f5ffd5b50600a546001600160a01b03166102e2565b348015610730575f5ffd5b506102b66115ea565b348015610744575f5ffd5b50610319610753366004613115565b6115f9565b348015610763575f5ffd5b5061032b606481565b348015610777575f5ffd5b506107da610786366004612e97565b600c6020525f908152604090208054600182015460028301546003840154600485015460058601546006870154600788015460089098015496976001600160a01b0390961696949593949293919290919089565b60408051998a526001600160a01b0390981660208a0152968801959095526060870193909352608086019190915260a085015260c084015260e083015261010082015261012001610299565b348015610831575f5ffd5b50610319610840366004613143565b611604565b348015610850575f5ffd5b506102b661085f366004612e97565b61161c565b34801561086f575f5ffd5b5061088361087e3660046130fc565b61168d565b60405161029991906131a6565b34801561089b575f5ffd5b5061032b60125481565b3480156108b0575f5ffd5b506103196108bf366004612e97565b6116f6565b3480156108cf575f5ffd5b506108d8611818565b60405161029991906131fc565b3480156108f0575f5ffd5b506103196118ef565b348015610904575f5ffd5b5061028d610913366004613222565b611a67565b348015610923575f5ffd5b506103196109323660046130fc565b611a94565b348015610942575f5ffd5b506103196109513660046130fc565b611abe565b6108d8610964366004613253565b611af8565b610319611c66565b34801561097c575f5ffd5b506010546102e2906001600160a01b031681565b34801561099b575f5ffd5b5061032b60135481565b5f6109af82611d44565b92915050565b60605f80546109c390613284565b80601f01602080910402602001604051908101604052809291908181526020018280546109ef90613284565b8015610a3a5780601f10610a1157610100808354040283529160200191610a3a565b820191905f5260205f20905b815481529060010190602001808311610a1d57829003601f168201915b5050505050905090565b5f610a4e82611d68565b505f828152600460205260409020546001600160a01b03166109af565b610a76828233611d9f565b5050565b8033610a85826113fe565b6001600160a01b031614610ab45760405162461bcd60e51b8152600401610aab906132b6565b60405180910390fd5b815f610abf82611dac565b6001600160a01b031603610ae55760405162461bcd60e51b8152600401610aab906132ed565b5f838152600f602052604090206002015460ff1615610b465760405162461bcd60e51b815260206004820152601b60248201527f47616d652073657373696f6e20616c72656164792061637469766500000000006044820152606401610aab565b50506040805160a0810182528281524260208083019182526001838501818152606085018281525f60808701818152988152600f90945295909220935184559151918301919091555160028201805460ff1916911515919091179055905160038201559051600490910155565b610c026040518061012001604052805f81526020015f6001600160a01b031681526020015f81526020015f81526020015f81526020015f81526020015f81526020015f81526020015f81525090565b815f610c0d82611dac565b6001600160a01b031603610c335760405162461bcd60e51b8152600401610aab906132ed565b5f838152600c60209081526040918290208251610120810184528154815260018201546001600160a01b0316928101929092526002810154928201929092526003820154606082015260048201546080820152600582015460a0820152600682015460c0820152600782015460e082015260089091015461010082015291505b50919050565b6001600160a01b038216610ce257604051633250574960e11b81525f6004820152602401610aab565b5f610cee838333611dc6565b9050836001600160a01b0316816001600160a01b031614610d3c576040516364283d7b60e01b81526001600160a01b0380861660048301526024820184905282166044820152606401610aab565b50505050565b600d602052815f5260405f208181548110610d5b575f80fd5b905f5260205f20015f91509150505481565b5f610d7783611408565b8210610da85760405163295f44f760e21b81526001600160a01b038416600482015260248101839052604401610aab565b506001600160a01b03919091165f908152600660209081526040808320938352929052205490565b5f5f610dda611818565b5f858152600c602090815260408083208151610120810183528154815260018201546001600160a01b0316938101939093526002810154918301919091526003810154606083015260048101546080830152600581015460a0830152600681015460c0830152600781015460e083015260080154610100820152919250602890610e6384611eed565b90505f83604001516003610e77919061332e565b9050601e811115610e865750601e5b5f60058561010001518660e001518760c001518860a001518960800151610ead9190613345565b610eb79190613345565b610ec19190613345565b610ecb9190613345565b610ed5919061336c565b90506014811115610ee4575060145b5f600f610ef2601f8b61337f565b6001600160401b0316610f0591906133ac565b90505f818385610f15888a6133d2565b610f1f91906133d2565b610f2991906133d2565b610f3391906133d2565b90506005811215610f42575060055b605f811315610f4f5750605f5b9a9950505050505050505050565b610f65611f5d565b600a546040516001600160a01b03909116904780156108fc02915f818181858888f19350505050158015610f9b573d5f5f3e3d5ffd5b50565b8133610fa9826113fe565b6001600160a01b031614610fcf5760405162461bcd60e51b8152600401610aab906132b6565b610fd7611f8a565b5f838152600c60205260409020600201546110045760405162461bcd60e51b8152600401610aab906132ed565b66038d7ea4c6800034101561104e5760405162461bcd60e51b815260206004820152601060248201526f496e73756666696369656e742066656560801b6044820152606401610aab565b601054604051631df3cbc560e31b81526001600160a01b039091169063ef9e5e289061107e9085906004016133f9565b5f604051808303815f87803b158015611095575f5ffd5b505af11580156110a7573d5f5f3e3d5ffd5b5050604080514260208201524491810191909152606080820187905233901b6001600160601b03191660808201525f9250609401905060408051601f1981840301815282825280516020918201208383018352878452428483019081525f828152601590935283832094518555516001909401939093559051919250339183917f24824956716588cf18c3cb557ee25fa952255246eb51235316882371d343c35591a35f61115760016064611fb4565b90505f61116560028361345c565b1590508015611208575f868152600c6020526040812060020180546001929061118f908490613345565b90915550505f868152600c602052604081206003018054606492906111b5908490613345565b90915550505f868152600c60205260409081902060020154905187917f893dc3a1c121cdc44e6a41bff8d799deb7e50f9ad20e93c637f082cfaacd153c916111ff91815260200190565b60405180910390a25b66038d7ea4c6800034111561125357336108fc61122c66038d7ea4c680003461346f565b6040518115909202915f818181858888f19350505050158015611251573d5f5f3e3d5ffd5b505b5050506112606001600b55565b505050565b61126083838360405180602001604052805f815250611604565b5f61128960085490565b82106112b15760405163295f44f760e21b81525f600482015260248101839052604401610aab565b600882815481106112c4576112c4613482565b905f5260205f2001549050919050565b6011546001600160a01b0316331461132e5760405162461bcd60e51b815260206004820152601960248201527f4f6e6c792050797468456e74726f70792063616e2063616c6c000000000000006044820152606401610aab565b5f8281526015602090815260409182902082518084019093528054808452600190910154918301919091526113975760405162461bcd60e51b815260206004820152600f60248201526e125b9d985b1a59081c995c5d595cdd608a1b6044820152606401610aab565b80516113a39083612034565b5f8381526015602090815260408083208381556001019290925590516001600160401b038416815284917f3aee0db1a8da737d79e238c3eb48db0b31bf4748dd5c42f52c3625f00ad06ce791015b60405180910390a2505050565b5f6109af82611d68565b5f6001600160a01b038216611432576040516322718ad960e21b81525f6004820152602401610aab565b506001600160a01b03165f9081526003602052604090205490565b611455611f5d565b61145e5f612121565b565b5f808080808080878161147282611dac565b6001600160a01b0316036114985760405162461bcd60e51b8152600401610aab906132ed565b5050505f9586525050600c60209081526040948590208551610120810187528154815260018201546001600160a01b0316928101929092526002810154958201869052600381015460608301819052600482015460808401819052600583015460a08501819052600684015460c08601819052600785015460e087018190526008909501546101009096018690529899929891975095509350909190565b6115656040518060a001604052805f81526020015f81526020015f151581526020015f81526020015f81525090565b815f61157082611dac565b6001600160a01b0316036115965760405162461bcd60e51b8152600401610aab906132ed565b50505f908152600f6020908152604091829020825160a08101845281548152600182015492810192909252600281015460ff1615159282019290925260038201546060820152600490910154608082015290565b6060600180546109c390613284565b610a76338383612172565b61160f848484610cb9565b610d3c3385858585612210565b606061162782611d68565b505f61163d60408051602081019091525f815290565b90505f81511161165b5760405180602001604052805f815250611686565b8061166584612337565b6040516020016116769291906134ad565b6040516020818303038152906040525b9392505050565b6001600160a01b0381165f908152600d60209081526040918290208054835181840281018401909452808452606093928301828280156116ea57602002820191905f5260205f20905b8154815260200190600101908083116116d6575b50505050509050919050565b8033611701826113fe565b6001600160a01b0316146117275760405162461bcd60e51b8152600401610aab906132b6565b815f61173282611dac565b6001600160a01b0316036117585760405162461bcd60e51b8152600401610aab906132ed565b5f838152600f602052604090206002015460ff166117b15760405162461bcd60e51b815260206004820152601660248201527527379030b1ba34bb329033b0b6b29039b2b9b9b4b7b760511b6044820152606401610aab565b5f838152600f6020526040812060028101805460ff1916905560048101549091906117dd90600a61332e565b905080600c5f8781526020019081526020015f206003015f8282546118029190613345565b909155506118119050856123c7565b5050505050565b60105460125460405163052571af60e51b815260048101919091526201518060248201525f916001600160a01b03169063a4ae35e090604401608060405180830381865afa92505050801561188a575060408051601f3d908101601f19168201909252611887918101906134c1565b60015b6118945750600190565b642e90edd000815f015160070b12156118ae575f91505090565b6445d964b800815f015160070b12156118c957600191505090565b645d21dba000815f015160070b12156118e457600291505090565b600391505090565b90565b601480545f91826118ff8361354a565b91905055905061190f3382612506565b604051806101200160405280828152602001336001600160a01b03168152602001600181526020015f8152602001611949600a6014611fb4565b815260200161195a600a6014611fb4565b815260200161196b600a6014611fb4565b815260200161197c600a6014611fb4565b815260200161198d6005600f611fb4565b90525f828152600c602090815260408083208451815584830151600180830180546001600160a01b0319166001600160a01b0390931692909217909155858301516002830155606086015160038301556080860151600483015560a0860151600583015560c0860151600683015560e086015160078301556101009095015160089091015533808452600d8352818420805480870182559085529383902090930185905551928352909183917f1ff83751d356c48789f84e073266f617fdfe6d8a24b572efe194288e748acce0910160405180910390a350565b6001600160a01b039182165f90815260056020908152604080832093909416825291909152205460ff1690565b611a9c611f5d565b601080546001600160a01b0319166001600160a01b0392909216919091179055565b611ac6611f5d565b6001600160a01b038116611aef57604051631e4fbdf760e01b81525f6004820152602401610aab565b610f9b81612121565b5f5f825111611b495760405162461bcd60e51b815260206004820152601d60248201527f4e6f2070726963652075706461746520646174612070726f76696465640000006044820152606401610aab565b601054604051631df3cbc560e31b81526001600160a01b039091169063ef9e5e28903490611b7b9086906004016133f9565b5f604051808303818588803b158015611b92575f5ffd5b505af193505050508015611ba4575060015b611c5e57611bb0613562565b806308c379a003611c065750611bc461357a565b80611bcf5750611c08565b80604051602001611be091906135f4565b60408051601f198184030181529082905262461bcd60e51b8252610aab91600401612e85565b505b60405162461bcd60e51b815260206004820152602560248201527f5079746820757064617465206661696c6564207769746820756e6b6e6f776e2060448201526432b93937b960d91b6064820152608401610aab565b6109af611818565b66038d7ea4c68000341015611cc95760405162461bcd60e51b815260206004820152602360248201527f496e73756666696369656e74207061796d656e7420666f722072616e646f6d6e60448201526265737360e81b6064820152608401610aab565b5f424433604051602001611cfd93929190928352602083019190915260601b6001600160601b031916604082015260540190565b60408051601f198184030181529082905280516020909101209150339082907f24824956716588cf18c3cb557ee25fa952255246eb51235316882371d343c355905f90a350565b5f6001600160e01b0319821663780e9d6360e01b14806109af57506109af8261251f565b5f5f611d7383611dac565b90506001600160a01b0381166109af57604051637e27328960e01b815260048101849052602401610aab565b611260838383600161256e565b5f908152600260205260409020546001600160a01b031690565b5f5f611dd184611dac565b90506001600160a01b03811615611e9f576001600160a01b0381165f908152600d60205260408120905b8154811015611e9c5785828281548110611e1757611e17613482565b905f5260205f20015403611e945781548290611e359060019061346f565b81548110611e4557611e45613482565b905f5260205f200154828281548110611e6057611e60613482565b905f5260205f20018190555081805480611e7c57611e7c61361c565b600190038181905f5260205f20015f90559055611e9c565b600101611dfb565b50505b6001600160a01b03851615611ed9576001600160a01b0385165f908152600d60209081526040822080546001810182559083529120018490555b611ee4858585612672565b95945050505050565b5f80826003811115611f0157611f016131e8565b03611f0f5750601819919050565b6001826003811115611f2357611f236131e8565b03611f2f57505f919050565b6002826003811115611f4357611f436131e8565b03611f5057506019919050565b506028919050565b919050565b600a546001600160a01b0316331461145e5760405163118cdaa760e01b8152336004820152602401610aab565b6002600b5403611fad57604051633ee5aeb560e01b815260040160405180910390fd5b6002600b55565b5f5f424433604051602001611fe993929190928352602083019190915260601b6001600160601b031916604082015260540190565b60408051601f198184030181529190528051602090910120905061200d848461346f565b612018906001613345565b612022908261345c565b61202c9085613345565b949350505050565b5f61203f8383610dd0565b90505f61204a611818565b90505f8261205960648661337f565b6001600160401b031610905080156120cb576120778560018461273d565b847f3b43f363a2b7a22058b5ccc4932884dd959e821525241e3c50b6f580945bcfb7848460038111156120ac576120ac6131e8565b6040805192835260ff90911660208301520160405180910390a2611811565b847fff378e65c32bfe98e4d53c9edcf30cbfca7da718a1c415f869f9193e55ea414884846003811115612100576121006131e8565b6040805192835260ff90911660208301520160405180910390a25050505050565b600a80546001600160a01b038381166001600160a01b0319831681179093556040519116919082907f8be0079c531659141344cd1fd0a4f28419497f9722a3daafe3b4186f6b6457e0905f90a35050565b6001600160a01b0382166121a457604051630b61174360e31b81526001600160a01b0383166004820152602401610aab565b6001600160a01b038381165f81815260056020908152604080832094871680845294825291829020805460ff191686151590811790915591519182527f17307eab39ab6107e8899845ad3d59bd9653f200f220920489ca2b5937696c31910160405180910390a3505050565b6001600160a01b0383163b1561181157604051630a85bd0160e11b81526001600160a01b0384169063150b7a0290612252908890889087908790600401613630565b6020604051808303815f875af192505050801561228c575060408051601f3d908101601f191682019092526122899181019061366c565b60015b6122f3573d8080156122b9576040519150601f19603f3d011682016040523d82523d5f602084013e6122be565b606091505b5080515f036122eb57604051633250574960e11b81526001600160a01b0385166004820152602401610aab565b805160208201fd5b6001600160e01b03198116630a85bd0160e11b1461232f57604051633250574960e11b81526001600160a01b0385166004820152602401610aab565b505050505050565b60605f61234383612844565b60010190505f816001600160401b0381111561236157612361612f68565b6040519080825280601f01601f19166020018201604052801561238b576020820181803683370190505b5090508181016020015b5f19016f181899199a1a9b1b9c1cb0b131b232b360811b600a86061a8153600a8504945084612395575b509392505050565b5f818152600c6020526040812060028101549091906123e89060649061332e565b905080826003015410158015612402575060648260020154105b1561126057600282018054905f6124188361354a565b919050555061242960016003611fb4565b826004015f82825461243b9190613345565b9091555061244d905060016003611fb4565b826005015f82825461245f9190613345565b90915550612471905060016003611fb4565b826006015f8282546124839190613345565b90915550612495905060016003611fb4565b826007015f8282546124a79190613345565b909155506124b890505f6002611fb4565b826008015f8282546124ca9190613345565b9091555050600282015460405190815283907f893dc3a1c121cdc44e6a41bff8d799deb7e50f9ad20e93c637f082cfaacd153c906020016113f1565b610a76828260405180602001604052805f81525061291b565b5f6001600160e01b031982166380ac58cd60e01b148061254f57506001600160e01b03198216635b5e139f60e01b145b806109af57506301ffc9a760e01b6001600160e01b03198316146109af565b808061258257506001600160a01b03821615155b15612643575f61259184611d68565b90506001600160a01b038316158015906125bd5750826001600160a01b0316816001600160a01b031614155b80156125d057506125ce8184611a67565b155b156125f95760405163a9fbf51f60e01b81526001600160a01b0384166004820152602401610aab565b81156126415783856001600160a01b0316826001600160a01b03167f8c5be1e5ebec7d5bd14f71427d1e84f3dd0314c0f7b2291e5b200ac8c7c3b92560405160405180910390a45b505b50505f90815260046020526040902080546001600160a01b0319166001600160a01b0392909216919091179055565b5f5f61267f858585612932565b90506001600160a01b0381166126db576126d684600880545f838152600960205260408120829055600182018355919091527ff3f7a9fe364faab93b216da50a3214154f22a0a2b415b23a84c8169e8b636ee30155565b6126fe565b846001600160a01b0316816001600160a01b0316146126fe576126fe8185612a1f565b6001600160a01b03851661271a5761271584612a9c565b61202c565b846001600160a01b0316816001600160a01b03161461202c5761202c8585612b43565b81156112605760645f61274f83612b91565b90505f606461275e838561332e565b612768919061336c565b905080600c5f8881526020019081526020015f206003015f82825461278d9190613345565b90915550505f868152600c60205260409020600301546127ac90612bfd565b5f878152600c6020526040908190206002018290555187917f893dc3a1c121cdc44e6a41bff8d799deb7e50f9ad20e93c637f082cfaacd153c916127f291815260200190565b60405180910390a2857f99e98b5ebdbbb637f7b71effb4d8524e9d51047520f1780f0eb644625cd028978261282687612c14565b604051612834929190613687565b60405180910390a2505050505050565b5f8072184f03e93ff9f4daa797ed6e38ed64bf6a1f0160401b83106128825772184f03e93ff9f4daa797ed6e38ed64bf6a1f0160401b830492506040015b6d04ee2d6d415b85acef810000000083106128ae576d04ee2d6d415b85acef8100000000830492506020015b662386f26fc1000083106128cc57662386f26fc10000830492506010015b6305f5e10083106128e4576305f5e100830492506008015b61271083106128f857612710830492506004015b6064831061290a576064830492506002015b600a83106109af5760010192915050565b6129258383612d01565b611260335f858585612210565b5f5f61293d84611dac565b90506001600160a01b0383161561295957612959818486612d62565b6001600160a01b03811615612993576129745f855f5f61256e565b6001600160a01b0381165f90815260036020526040902080545f190190555b6001600160a01b038516156129c1576001600160a01b0385165f908152600360205260409020805460010190555b5f8481526002602052604080822080546001600160a01b0319166001600160a01b0389811691821790925591518793918516917fddf252ad1be2c89b69c2b068fc378daa952ba7f163c4a11628f55a4df523b3ef91a4949350505050565b5f612a2983611408565b5f838152600760209081526040808320546001600160a01b0388168452600690925290912091925090818314612a7e575f83815260208281526040808320548584528184208190558352600790915290208290555b5f938452600760209081526040808620869055938552525081205550565b6008545f90612aad9060019061346f565b5f8381526009602052604081205460088054939450909284908110612ad457612ad4613482565b905f5260205f20015490508060088381548110612af357612af3613482565b5f918252602080832090910192909255828152600990915260408082208490558582528120556008805480612b2a57612b2a61361c565b600190038181905f5260205f20015f9055905550505050565b5f6001612b4f84611408565b612b59919061346f565b6001600160a01b039093165f908152600660209081526040808320868452825280832085905593825260079052919091209190915550565b5f80826003811115612ba557612ba56131e8565b03612bb257506032919050565b6001826003811115612bc657612bc66131e8565b03612bd357506064919050565b6002826003811115612be757612be76131e8565b03612bf4575060c8919050565b5061012c919050565b5f612c0960648361336c565b6109af906001613345565b60605f826003811115612c2957612c296131e8565b03612c5557505060408051808201909152600b81526a1099585c8813585c9ad95d60aa1b602082015290565b6001826003811115612c6957612c696131e8565b03612c9757505060408051808201909152600d81526c139bdc9b585b0813585c9ad95d609a1b602082015290565b6002826003811115612cab57612cab6131e8565b03612cd757505060408051808201909152600b81526a109d5b1b0813585c9ad95d60aa1b602082015290565b505060408051808201909152600e81526d115e1d1c995b594813585c9ad95d60921b602082015290565b6001600160a01b038216612d2a57604051633250574960e11b81525f6004820152602401610aab565b5f612d3683835f611dc6565b90506001600160a01b03811615611260576040516339e3563760e11b81525f6004820152602401610aab565b612d6d838383612dc6565b611260576001600160a01b038316612d9b57604051637e27328960e01b815260048101829052602401610aab565b60405163177e802f60e01b81526001600160a01b038316600482015260248101829052604401610aab565b5f6001600160a01b0383161580159061202c5750826001600160a01b0316846001600160a01b03161480612dff5750612dff8484611a67565b8061202c5750505f908152600460205260409020546001600160a01b03908116911614919050565b6001600160e01b031981168114610f9b575f5ffd5b5f60208284031215612e4c575f5ffd5b813561168681612e27565b5f81518084528060208401602086015e5f602082860101526020601f19601f83011685010191505092915050565b602081525f6116866020830184612e57565b5f60208284031215612ea7575f5ffd5b5035919050565b80356001600160a01b0381168114611f58575f5ffd5b5f5f60408385031215612ed5575f5ffd5b612ede83612eae565b946020939093013593505050565b5f5f5f60608486031215612efe575f5ffd5b612f0784612eae565b9250612f1560208501612eae565b929592945050506040919091013590565b6001600160401b0381168114610f9b575f5ffd5b5f5f60408385031215612f4b575f5ffd5b823591506020830135612f5d81612f26565b809150509250929050565b634e487b7160e01b5f52604160045260245ffd5b601f8201601f191681016001600160401b0381118282101715612fa157612fa1612f68565b6040525050565b5f82601f830112612fb7575f5ffd5b81356001600160401b03811115612fd057612fd0612f68565b604051612fe7601f8301601f191660200182612f7c565b818152846020838601011115612ffb575f5ffd5b816020850160208301375f918101602001919091529392505050565b5f82601f830112613026575f5ffd5b81356001600160401b0381111561303f5761303f612f68565b8060051b6040516130536020830182612f7c565b91825260208185018101929081018684111561306d575f5ffd5b6020860192505b838310156130af5782356001600160401b03811115613091575f5ffd5b6130a0886020838a0101612fa8565b82525060209283019201613074565b5095945050505050565b5f5f604083850312156130ca575f5ffd5b8235915060208301356001600160401b038111156130e6575f5ffd5b6130f285828601613017565b9150509250929050565b5f6020828403121561310c575f5ffd5b61168682612eae565b5f5f60408385031215613126575f5ffd5b61312f83612eae565b915060208301358015158114612f5d575f5ffd5b5f5f5f5f60808587031215613156575f5ffd5b61315f85612eae565b935061316d60208601612eae565b92506040850135915060608501356001600160401b0381111561318e575f5ffd5b61319a87828801612fa8565b91505092959194509250565b602080825282518282018190525f918401906040840190835b818110156131dd5783518352602093840193909201916001016131bf565b509095945050505050565b634e487b7160e01b5f52602160045260245ffd5b602081016004831061321c57634e487b7160e01b5f52602160045260245ffd5b91905290565b5f5f60408385031215613233575f5ffd5b61323c83612eae565b915061324a60208401612eae565b90509250929050565b5f60208284031215613263575f5ffd5b81356001600160401b03811115613278575f5ffd5b61202c84828501613017565b600181811c9082168061329857607f821691505b602082108103610cb357634e487b7160e01b5f52602260045260245ffd5b6020808252601a908201527f4e6f7420746865206f776e6572206f662074686973206865726f000000000000604082015260600190565b60208082526013908201527212195c9bc8191bd95cc81b9bdd08195e1a5cdd606a1b604082015260600190565b634e487b7160e01b5f52601160045260245ffd5b80820281158282048414176109af576109af61331a565b808201808211156109af576109af61331a565b634e487b7160e01b5f52601260045260245ffd5b5f8261337a5761337a613358565b500490565b5f6001600160401b0383168061339757613397613358565b806001600160401b0384160691505092915050565b8181035f8312801583831316838312821617156133cb576133cb61331a565b5092915050565b8082018281125f8312801582168215821617156133f1576133f161331a565b505092915050565b5f602082016020835280845180835260408501915060408160051b8601019250602086015f5b8281101561345057603f1987860301845261343b858351612e57565b9450602093840193919091019060010161341f565b50929695505050505050565b5f8261346a5761346a613358565b500690565b818103818111156109af576109af61331a565b634e487b7160e01b5f52603260045260245ffd5b5f81518060208401855e5f93019283525090919050565b5f61202c6134bb8386613496565b84613496565b5f60808284031280156134d2575f5ffd5b50604051608081016001600160401b03811182821017156134f5576134f5612f68565b6040528251600781900b8114613509575f5ffd5b8152602083015161351981612f26565b60208201526040830151600381900b8114613532575f5ffd5b60408201526060928301519281019290925250919050565b5f6001820161355b5761355b61331a565b5060010190565b5f60033d11156118ec5760045f5f3e505f5160e01c90565b5f60443d10156135875790565b6040513d600319016004823e80513d60248201116001600160401b03821117156135b057505090565b80820180516001600160401b038111156135cb575050505090565b3d84016003190182820160200111156135e5575050505090565b6123bf60208285010185612f7c565b730283cba34103ab83230ba32903330b4b632b21d160651b81525f6116866014830184613496565b634e487b7160e01b5f52603160045260245ffd5b6001600160a01b03858116825284166020820152604081018390526080606082018190525f9061366290830184612e57565b9695505050505050565b5f6020828403121561367c575f5ffd5b815161168681612e27565b828152604060208201525f61202c6040830184612e5756fea2646970667358221220268a5e2c0fd3667e4b5c50f3632483941fc72f65fc08f405b35e5ddb3b0578bf64736f6c634300081c0033",
  "linkReferences": {},
  "deployedLinkReferences": {},
  "immutableReferences": {},
  "inputSourceName": "project/contracts/RogueChain.sol",
  "buildInfoId": "solc-0_8_28-0b0b4060e533188f0fb111c1d741703221d9020c"
}