{
  "_format": "hh3-artifact-1",
  "contractName": "RogueChain",
  "sourceName": "contracts/RogueChain.sol",
  "abi": [
    {
      "inputs": [
        {
          "internalType": "address",
          "name": "_pyth",
          "type": "address"
        },
        {
          "internalType": "address",
          "name": "_pythEntropy",
          "type": "address"
        },
        {
          "internalType": "bytes32",
          "name": "_ethPriceId",
          "type": "bytes32"
        },
        {
          "internalType": "bytes32",
          "name": "_btcPriceId",
          "type": "bytes32"
        }
      ],
      "stateMutability": "nonpayable",
      "type": "constructor"
    },
    {
      "inputs": [],
      "name": "ERC721EnumerableForbiddenBatchMint",
      "type": "error"
    },
    {
      "inputs": [
        {
          "internalType": "address",
          "name": "sender",
          "type": "address"
        },
        {
          "internalType": "uint256",
          "name": "tokenId",
          "type": "uint256"
        },
        {
          "internalType": "address",
          "name": "owner",
          "type": "address"
        }
      ],
      "name": "ERC721IncorrectOwner",
      "type": "error"
    },
    {
      "inputs": [
        {
          "internalType": "address",
          "name": "operator",
          "type": "address"
        },
        {
          "internalType": "uint256",
          "name": "tokenId",
          "type": "uint256"
        }
      ],
      "name": "ERC721InsufficientApproval",
      "type": "error"
    },
    {
      "inputs": [
        {
          "internalType": "address",
          "name": "approver",
          "type": "address"
        }
      ],
      "name": "ERC721InvalidApprover",
      "type": "error"
    },
    {
      "inputs": [
        {
          "internalType": "address",
          "name": "operator",
          "type": "address"
        }
      ],
      "name": "ERC721InvalidOperator",
      "type": "error"
    },
    {
      "inputs": [
        {
          "internalType": "address",
          "name": "owner",
          "type": "address"
        }
      ],
      "name": "ERC721InvalidOwner",
      "type": "error"
    },
    {
      "inputs": [
        {
          "internalType": "address",
          "name": "receiver",
          "type": "address"
        }
      ],
      "name": "ERC721InvalidReceiver",
      "type": "error"
    },
    {
      "inputs": [
        {
          "internalType": "address",
          "name": "sender",
          "type": "address"
        }
      ],
      "name": "ERC721InvalidSender",
      "type": "error"
    },
    {
      "inputs": [
        {
          "internalType": "uint256",
          "name": "tokenId",
          "type": "uint256"
        }
      ],
      "name": "ERC721NonexistentToken",
      "type": "error"
    },
    {
      "inputs": [
        {
          "internalType": "address",
          "name": "owner",
          "type": "address"
        },
        {
          "internalType": "uint256",
          "name": "index",
          "type": "uint256"
        }
      ],
      "name": "ERC721OutOfBoundsIndex",
      "type": "error"
    },
    {
      "inputs": [
        {
          "internalType": "address",
          "name": "owner",
          "type": "address"
        }
      ],
      "name": "OwnableInvalidOwner",
      "type": "error"
    },
    {
      "inputs": [
        {
          "internalType": "address",
          "name": "account",
          "type": "address"
        }
      ],
      "name": "OwnableUnauthorizedAccount",
      "type": "error"
    },
    {
      "inputs": [],
      "name": "ReentrancyGuardReentrantCall",
      "type": "error"
    },
    {
      "anonymous": false,
      "inputs": [
        {
          "indexed": true,
          "internalType": "address",
          "name": "owner",
          "type": "address"
        },
        {
          "indexed": true,
          "internalType": "address",
          "name": "approved",
          "type": "address"
        },
        {
          "indexed": true,
          "internalType": "uint256",
          "name": "tokenId",
          "type": "uint256"
        }
      ],
      "name": "Approval",
      "type": "event"
    },
    {
      "anonymous": false,
      "inputs": [
        {
          "indexed": true,
          "internalType": "address",
          "name": "owner",
          "type": "address"
        },
        {
          "indexed": true,
          "internalType": "address",
          "name": "operator",
          "type": "address"
        },
        {
          "indexed": false,
          "internalType": "bool",
          "name": "approved",
          "type": "bool"
        }
      ],
      "name": "ApprovalForAll",
      "type": "event"
    },
    {
      "anonymous": false,
      "inputs": [
        {
          "indexed": true,
          "internalType": "uint256",
          "name": "heroId",
          "type": "uint256"
        },
        {
          "indexed": false,
          "internalType": "uint256",
          "name": "newLevel",
          "type": "uint256"
        }
      ],
      "name": "HeroLeveledUp",
      "type": "event"
    },
    {
      "anonymous": false,
      "inputs": [
        {
          "indexed": true,
          "internalType": "uint256",
          "name": "heroId",
          "type": "uint256"
        },
        {
          "indexed": true,
          "internalType": "address",
          "name": "owner",
          "type": "address"
        },
        {
          "indexed": false,
          "internalType": "uint256",
          "name": "level",
          "type": "uint256"
        }
      ],
      "name": "HeroMinted",
      "type": "event"
    },
    {
      "anonymous": false,
      "inputs": [
        {
          "indexed": true,
          "internalType": "address",
          "name": "previousOwner",
          "type": "address"
        },
        {
          "indexed": true,
          "internalType": "address",
          "name": "newOwner",
          "type": "address"
        }
      ],
      "name": "OwnershipTransferred",
      "type": "event"
    },
    {
      "anonymous": false,
      "inputs": [
        {
          "indexed": true,
          "internalType": "bytes32",
          "name": "requestId",
          "type": "bytes32"
        },
        {
          "indexed": false,
          "internalType": "uint64",
          "name": "randomNumber",
          "type": "uint64"
        }
      ],
      "name": "RandomnessFulfilled",
      "type": "event"
    },
    {
      "anonymous": false,
      "inputs": [
        {
          "indexed": true,
          "internalType": "bytes32",
          "name": "requestId",
          "type": "bytes32"
        },
        {
          "indexed": true,
          "internalType": "address",
          "name": "requester",
          "type": "address"
        }
      ],
      "name": "RandomnessRequested",
      "type": "event"
    },
    {
      "anonymous": false,
      "inputs": [
        {
          "indexed": true,
          "internalType": "address",
          "name": "from",
          "type": "address"
        },
        {
          "indexed": true,
          "internalType": "address",
          "name": "to",
          "type": "address"
        },
        {
          "indexed": true,
          "internalType": "uint256",
          "name": "tokenId",
          "type": "uint256"
        }
      ],
      "name": "Transfer",
      "type": "event"
    },
    {
      "inputs": [],
      "name": "BASE_EXPERIENCE",
      "outputs": [
        {
          "internalType": "uint256",
          "name": "",
          "type": "uint256"
        }
      ],
      "stateMutability": "view",
      "type": "function"
    },
    {
      "inputs": [],
      "name": "MAX_LEVEL",
      "outputs": [
        {
          "internalType": "uint256",
          "name": "",
          "type": "uint256"
        }
      ],
      "stateMutability": "view",
      "type": "function"
    },
    {
      "inputs": [
        {
          "internalType": "address",
          "name": "to",
          "type": "address"
        },
        {
          "internalType": "uint256",
          "name": "tokenId",
          "type": "uint256"
        }
      ],
      "name": "approve",
      "outputs": [],
      "stateMutability": "nonpayable",
      "type": "function"
    },
    {
      "inputs": [
        {
          "internalType": "address",
          "name": "owner",
          "type": "address"
        }
      ],
      "name": "balanceOf",
      "outputs": [
        {
          "internalType": "uint256",
          "name": "",
          "type": "uint256"
        }
      ],
      "stateMutability": "view",
      "type": "function"
    },
    {
      "inputs": [
        {
          "internalType": "uint256",
          "name": "heroId",
          "type": "uint256"
        }
      ],
      "name": "endGameSession",
      "outputs": [],
      "stateMutability": "nonpayable",
      "type": "function"
    },
    {
      "inputs": [
        {
          "internalType": "uint256",
          "name": "heroId",
          "type": "uint256"
        },
        {
          "internalType": "bytes[]",
          "name": "priceUpdateData",
          "type": "bytes[]"
        }
      ],
      "name": "enterDungeon",
      "outputs": [],
      "stateMutability": "payable",
      "type": "function"
    },
    {
      "inputs": [
        {
          "internalType": "uint256",
          "name": "",
          "type": "uint256"
        }
      ],
      "name": "gameSessions",
      "outputs": [
        {
          "internalType": "uint256",
          "name": "heroId",
          "type": "uint256"
        },
        {
          "internalType": "uint256",
          "name": "startTime",
          "type": "uint256"
        },
        {
          "internalType": "bool",
          "name": "isActive",
          "type": "bool"
        },
        {
          "internalType": "uint256",
          "name": "currentFloor",
          "type": "uint256"
        },
        {
          "internalType": "uint256",
          "name": "monstersDefeated",
          "type": "uint256"
        }
      ],
      "stateMutability": "view",
      "type": "function"
    },
    {
      "inputs": [
        {
          "internalType": "uint256",
          "name": "tokenId",
          "type": "uint256"
        }
      ],
      "name": "getApproved",
      "outputs": [
        {
          "internalType": "address",
          "name": "",
          "type": "address"
        }
      ],
      "stateMutability": "view",
      "type": "function"
    },
    {
      "inputs": [
        {
          "internalType": "uint256",
          "name": "heroId",
          "type": "uint256"
        }
      ],
      "name": "getGameSession",
      "outputs": [
        {
          "components": [
            {
              "internalType": "uint256",
              "name": "heroId",
              "type": "uint256"
            },
            {
              "internalType": "uint256",
              "name": "startTime",
              "type": "uint256"
            },
            {
              "internalType": "bool",
              "name": "isActive",
              "type": "bool"
            },
            {
              "internalType": "uint256",
              "name": "currentFloor",
              "type": "uint256"
            },
            {
              "internalType": "uint256",
              "name": "monstersDefeated",
              "type": "uint256"
            }
          ],
          "internalType": "struct RogueChain.GameSession",
          "name": "",
          "type": "tuple"
        }
      ],
      "stateMutability": "view",
      "type": "function"
    },
    {
      "inputs": [
        {
          "internalType": "uint256",
          "name": "heroId",
          "type": "uint256"
        }
      ],
      "name": "getHero",
      "outputs": [
        {
          "components": [
            {
              "internalType": "uint256",
              "name": "id",
              "type": "uint256"
            },
            {
              "internalType": "address",
              "name": "owner",
              "type": "address"
            },
            {
              "internalType": "uint256",
              "name": "level",
              "type": "uint256"
            },
            {
              "internalType": "uint256",
              "name": "experience",
              "type": "uint256"
            },
            {
              "internalType": "uint256",
              "name": "strength",
              "type": "uint256"
            },
            {
              "internalType": "uint256",
              "name": "agility",
              "type": "uint256"
            },
            {
              "internalType": "uint256",
              "name": "intelligence",
              "type": "uint256"
            },
            {
              "internalType": "uint256",
              "name": "vitality",
              "type": "uint256"
            },
            {
              "internalType": "uint256",
              "name": "luck",
              "type": "uint256"
            }
          ],
          "internalType": "struct RogueChain.Hero",
          "name": "",
          "type": "tuple"
        }
      ],
      "stateMutability": "view",
      "type": "function"
    },
    {
      "inputs": [
        {
          "internalType": "uint256",
          "name": "heroId",
          "type": "uint256"
        }
      ],
      "name": "getHeroStats",
      "outputs": [
        {
          "internalType": "uint256",
          "name": "level",
          "type": "uint256"
        },
        {
          "internalType": "uint256",
          "name": "experience",
          "type": "uint256"
        },
        {
          "internalType": "uint256",
          "name": "strength",
          "type": "uint256"
        },
        {
          "internalType": "uint256",
          "name": "agility",
          "type": "uint256"
        },
        {
          "internalType": "uint256",
          "name": "intelligence",
          "type": "uint256"
        },
        {
          "internalType": "uint256",
          "name": "vitality",
          "type": "uint256"
        },
        {
          "internalType": "uint256",
          "name": "luck",
          "type": "uint256"
        }
      ],
      "stateMutability": "view",
      "type": "function"
    },
    {
      "inputs": [
        {
          "internalType": "address",
          "name": "user",
          "type": "address"
        }
      ],
      "name": "getUserHeroes",
      "outputs": [
        {
          "internalType": "uint256[]",
          "name": "",
          "type": "uint256[]"
        }
      ],
      "stateMutability": "view",
      "type": "function"
    },
    {
      "inputs": [
        {
          "internalType": "uint256",
          "name": "",
          "type": "uint256"
        }
      ],
      "name": "heroes",
      "outputs": [
        {
          "internalType": "uint256",
          "name": "id",
          "type": "uint256"
        },
        {
          "internalType": "address",
          "name": "owner",
          "type": "address"
        },
        {
          "internalType": "uint256",
          "name": "level",
          "type": "uint256"
        },
        {
          "internalType": "uint256",
          "name": "experience",
          "type": "uint256"
        },
        {
          "internalType": "uint256",
          "name": "strength",
          "type": "uint256"
        },
        {
          "internalType": "uint256",
          "name": "agility",
          "type": "uint256"
        },
        {
          "internalType": "uint256",
          "name": "intelligence",
          "type": "uint256"
        },
        {
          "internalType": "uint256",
          "name": "vitality",
          "type": "uint256"
        },
        {
          "internalType": "uint256",
          "name": "luck",
          "type": "uint256"
        }
      ],
      "stateMutability": "view",
      "type": "function"
    },
    {
      "inputs": [
        {
          "internalType": "address",
          "name": "owner",
          "type": "address"
        },
        {
          "internalType": "address",
          "name": "operator",
          "type": "address"
        }
      ],
      "name": "isApprovedForAll",
      "outputs": [
        {
          "internalType": "bool",
          "name": "",
          "type": "bool"
        }
      ],
      "stateMutability": "view",
      "type": "function"
    },
    {
      "inputs": [],
      "name": "mintHero",
      "outputs": [],
      "stateMutability": "nonpayable",
      "type": "function"
    },
    {
      "inputs": [],
      "name": "name",
      "outputs": [
        {
          "internalType": "string",
          "name": "",
          "type": "string"
        }
      ],
      "stateMutability": "view",
      "type": "function"
    },
    {
      "inputs": [],
      "name": "owner",
      "outputs": [
        {
          "internalType": "address",
          "name": "",
          "type": "address"
        }
      ],
      "stateMutability": "view",
      "type": "function"
    },
    {
      "inputs": [
        {
          "internalType": "uint256",
          "name": "tokenId",
          "type": "uint256"
        }
      ],
      "name": "ownerOf",
      "outputs": [
        {
          "internalType": "address",
          "name": "",
          "type": "address"
        }
      ],
      "stateMutability": "view",
      "type": "function"
    },
    {
      "inputs": [],
      "name": "pyth",
      "outputs": [
        {
          "internalType": "contract IPyth",
          "name": "",
          "type": "address"
        }
      ],
      "stateMutability": "view",
      "type": "function"
    },
    {
      "inputs": [
        {
          "internalType": "bytes32",
          "name": "",
          "type": "bytes32"
        }
      ],
      "name": "randomnessRequests",
      "outputs": [
        {
          "internalType": "address",
          "name": "",
          "type": "address"
        }
      ],
      "stateMutability": "view",
      "type": "function"
    },
    {
      "inputs": [],
      "name": "renounceOwnership",
      "outputs": [],
      "stateMutability": "nonpayable",
      "type": "function"
    },
    {
      "inputs": [],
      "name": "requestRandomness",
      "outputs": [],
      "stateMutability": "payable",
      "type": "function"
    },
    {
      "inputs": [
        {
          "internalType": "address",
          "name": "from",
          "type": "address"
        },
        {
          "internalType": "address",
          "name": "to",
          "type": "address"
        },
        {
          "internalType": "uint256",
          "name": "tokenId",
          "type": "uint256"
        }
      ],
      "name": "safeTransferFrom",
      "outputs": [],
      "stateMutability": "nonpayable",
      "type": "function"
    },
    {
      "inputs": [
        {
          "internalType": "address",
          "name": "from",
          "type": "address"
        },
        {
          "internalType": "address",
          "name": "to",
          "type": "address"
        },
        {
          "internalType": "uint256",
          "name": "tokenId",
          "type": "uint256"
        },
        {
          "internalType": "bytes",
          "name": "data",
          "type": "bytes"
        }
      ],
      "name": "safeTransferFrom",
      "outputs": [],
      "stateMutability": "nonpayable",
      "type": "function"
    },
    {
      "inputs": [
        {
          "internalType": "address",
          "name": "operator",
          "type": "address"
        },
        {
          "internalType": "bool",
          "name": "approved",
          "type": "bool"
        }
      ],
      "name": "setApprovalForAll",
      "outputs": [],
      "stateMutability": "nonpayable",
      "type": "function"
    },
    {
      "inputs": [
        {
          "internalType": "address",
          "name": "_pyth",
          "type": "address"
        }
      ],
      "name": "setPyth",
      "outputs": [],
      "stateMutability": "nonpayable",
      "type": "function"
    },
    {
      "inputs": [
        {
          "internalType": "uint256",
          "name": "heroId",
          "type": "uint256"
        }
      ],
      "name": "startGameSession",
      "outputs": [],
      "stateMutability": "nonpayable",
      "type": "function"
    },
    {
      "inputs": [
        {
          "internalType": "bytes4",
          "name": "interfaceId",
          "type": "bytes4"
        }
      ],
      "name": "supportsInterface",
      "outputs": [
        {
          "internalType": "bool",
          "name": "",
          "type": "bool"
        }
      ],
      "stateMutability": "view",
      "type": "function"
    },
    {
      "inputs": [],
      "name": "symbol",
      "outputs": [
        {
          "internalType": "string",
          "name": "",
          "type": "string"
        }
      ],
      "stateMutability": "view",
      "type": "function"
    },
    {
      "inputs": [
        {
          "internalType": "uint256",
          "name": "index",
          "type": "uint256"
        }
      ],
      "name": "tokenByIndex",
      "outputs": [
        {
          "internalType": "uint256",
          "name": "",
          "type": "uint256"
        }
      ],
      "stateMutability": "view",
      "type": "function"
    },
    {
      "inputs": [
        {
          "internalType": "address",
          "name": "owner",
          "type": "address"
        },
        {
          "internalType": "uint256",
          "name": "index",
          "type": "uint256"
        }
      ],
      "name": "tokenOfOwnerByIndex",
      "outputs": [
        {
          "internalType": "uint256",
          "name": "",
          "type": "uint256"
        }
      ],
      "stateMutability": "view",
      "type": "function"
    },
    {
      "inputs": [
        {
          "internalType": "uint256",
          "name": "tokenId",
          "type": "uint256"
        }
      ],
      "name": "tokenURI",
      "outputs": [
        {
          "internalType": "string",
          "name": "",
          "type": "string"
        }
      ],
      "stateMutability": "view",
      "type": "function"
    },
    {
      "inputs": [],
      "name": "totalSupply",
      "outputs": [
        {
          "internalType": "uint256",
          "name": "",
          "type": "uint256"
        }
      ],
      "stateMutability": "view",
      "type": "function"
    },
    {
      "inputs": [
        {
          "internalType": "address",
          "name": "from",
          "type": "address"
        },
        {
          "internalType": "address",
          "name": "to",
          "type": "address"
        },
        {
          "internalType": "uint256",
          "name": "tokenId",
          "type": "uint256"
        }
      ],
      "name": "transferFrom",
      "outputs": [],
      "stateMutability": "nonpayable",
      "type": "function"
    },
    {
      "inputs": [
        {
          "internalType": "address",
          "name": "newOwner",
          "type": "address"
        }
      ],
      "name": "transferOwnership",
      "outputs": [],
      "stateMutability": "nonpayable",
      "type": "function"
    },
    {
      "inputs": [
        {
          "internalType": "address",
          "name": "",
          "type": "address"
        },
        {
          "internalType": "uint256",
          "name": "",
          "type": "uint256"
        }
      ],
      "name": "userHeroes",
      "outputs": [
        {
          "internalType": "uint256",
          "name": "",
          "type": "uint256"
        }
      ],
      "stateMutability": "view",
      "type": "function"
    },
    {
      "inputs": [],
      "name": "withdraw",
      "outputs": [],
      "stateMutability": "nonpayable",
      "type": "function"
    }
  ],
  "bytecode": "0x608060405234801561000f575f5ffd5b50604051612d0c380380612d0c83398101604081905261002e91610163565b3360405180604001604052806011815260200170526f677565436861696e204865726f657360781b815250604051806040016040528060038152602001620a486960eb1b815250815f9081610083919061023b565b506001610090828261023b565b5050506001600160a01b0381166100c057604051631e4fbdf760e01b81525f600482015260240160405180910390fd5b6100c9816100f7565b50506001600b555050601080546001600160a01b0319166001600160a01b03929092169190911790556102f5565b600a80546001600160a01b038381166001600160a01b0319831681179093556040519116919082907f8be0079c531659141344cd1fd0a4f28419497f9722a3daafe3b4186f6b6457e0905f90a35050565b80516001600160a01b038116811461015e575f5ffd5b919050565b5f5f5f5f60808587031215610176575f5ffd5b61017f85610148565b935061018d60208601610148565b6040860151606090960151949790965092505050565b634e487b7160e01b5f52604160045260245ffd5b600181811c908216806101cb57607f821691505b6020821081036101e957634e487b7160e01b5f52602260045260245ffd5b50919050565b601f82111561023657805f5260205f20601f840160051c810160208510156102145750805b601f840160051c820191505b81811015610233575f8155600101610220565b50505b505050565b81516001600160401b03811115610254576102546101a3565b6102688161026284546101b7565b846101ef565b6020601f82116001811461029a575f83156102835750848201515b5f19600385901b1c1916600184901b178455610233565b5f84815260208120601f198516915b828110156102c957878501518255602094850194600190920191016102a9565b50848210156102e657868401515f19600387901b60f8161c191681555b50505050600190811b01905550565b612a0a806103025f395ff3fe608060405260043610610212575f3560e01c8063715018a61161011e578063c87b56dd116100a8578063e985e9c51161006d578063e985e9c5146107c7578063ee22fd6f146107e6578063f2fde38b14610805578063f8413b0714610824578063f98d06f01461082c575f5ffd5b8063c87b56dd14610749578063cdf7d85614610768578063d2e65a7c14610794578063d7129b431461065c578063e9200337146107b3575f5ffd5b806395d89b41116100ee57806395d89b4114610629578063a22cb4651461063d578063a49062d41461065c578063a8d4a03b14610670578063b88d4fde1461072a575f5ffd5b8063715018a614610542578063835a4398146105565780638ab06fea146105aa5780638da5cb5b1461060c575f5ffd5b80632f745c591161019f57806342842e0e1161016f57806342842e0e146104925780634f6ccce7146104b15780635e619b78146104d05780636352211e1461050457806370a0823114610523575f5ffd5b80632f745c59146103d157806334a8014b146103f05780633ccfd60b1461046b5780634105f8d71461047f575f5ffd5b806318160ddd116101e557806318160ddd146102c35780631c00d3bf146102e157806321d801111461030057806323b872dd146103935780632d55f737146103b2575f5ffd5b806301ffc9a71461021657806306fdde031461024a578063081812fc1461026b578063095ea7b3146102a2575b5f5ffd5b348015610221575f5ffd5b506102356102303660046123f1565b61084b565b60405190151581526020015b60405180910390f35b348015610255575f5ffd5b5061025e61085b565b604051610241919061243a565b348015610276575f5ffd5b5061028a61028536600461244c565b6108ea565b6040516001600160a01b039091168152602001610241565b3480156102ad575f5ffd5b506102c16102bc36600461247e565b610911565b005b3480156102ce575f5ffd5b506008545b604051908152602001610241565b3480156102ec575f5ffd5b506102c16102fb36600461244c565b610920565b34801561030b575f5ffd5b5061031f61031a36600461244c565b610a59565b60405161024191905f610120820190508251825260018060a01b03602084015116602083015260408301516040830152606083015160608301526080830151608083015260a083015160a083015260c083015160c083015260e083015160e083015261010083015161010083015292915050565b34801561039e575f5ffd5b506102c16103ad3660046124a6565b610b5f565b3480156103bd575f5ffd5b506102d36103cc36600461247e565b610be8565b3480156103dc575f5ffd5b506102d36103eb36600461247e565b610c13565b3480156103fb575f5ffd5b5061043c61040a36600461244c565b600f6020525f9081526040902080546001820154600283015460038401546004909401549293919260ff909116919085565b604051610241959493929190948552602085019390935290151560408401526060830152608082015260a00190565b348015610476575f5ffd5b506102c1610c76565b6102c161048d366004612591565b610cb7565b34801561049d575f5ffd5b506102c16104ac3660046124a6565b610f4b565b3480156104bc575f5ffd5b506102d36104cb36600461244c565b610f65565b3480156104db575f5ffd5b5061028a6104ea36600461244c565b600e6020525f90815260409020546001600160a01b031681565b34801561050f575f5ffd5b5061028a61051e36600461244c565b610fba565b34801561052e575f5ffd5b506102d361053d366004612669565b610fc4565b34801561054d575f5ffd5b506102c1611009565b348015610561575f5ffd5b5061057561057036600461244c565b61101c565b604080519788526020880196909652948601939093526060850191909152608084015260a083015260c082015260e001610241565b3480156105b5575f5ffd5b506105c96105c436600461244c565b6110f2565b60405161024191905f60a0820190508251825260208301516020830152604083015115156040830152606083015160608301526080830151608083015292915050565b348015610617575f5ffd5b50600a546001600160a01b031661028a565b348015610634575f5ffd5b5061025e6111a6565b348015610648575f5ffd5b506102c1610657366004612682565b6111b5565b348015610667575f5ffd5b506102d3606481565b34801561067b575f5ffd5b506106de61068a36600461244c565b600c6020525f908152604090208054600182015460028301546003840154600485015460058601546006870154600788015460089098015496976001600160a01b0390961696949593949293919290919089565b60408051998a526001600160a01b0390981660208a0152968801959095526060870193909352608086019190915260a085015260c084015260e083015261010082015261012001610241565b348015610735575f5ffd5b506102c16107443660046126bb565b6111c0565b348015610754575f5ffd5b5061025e61076336600461244c565b6111d8565b348015610773575f5ffd5b50610787610782366004612669565b611249565b604051610241919061271f565b34801561079f575f5ffd5b506102c16107ae36600461244c565b6112b2565b3480156107be575f5ffd5b506102c16113d4565b3480156107d2575f5ffd5b506102356107e1366004612761565b61154c565b3480156107f1575f5ffd5b506102c1610800366004612669565b611579565b348015610810575f5ffd5b506102c161081f366004612669565b6115a3565b6102c16115dd565b348015610837575f5ffd5b5060105461028a906001600160a01b031681565b5f610855826116c0565b92915050565b60605f805461086990612792565b80601f016020809104026020016040519081016040528092919081815260200182805461089590612792565b80156108e05780601f106108b7576101008083540402835291602001916108e0565b820191905f5260205f20905b8154815290600101906020018083116108c357829003601f168201915b5050505050905090565b5f6108f4826116e4565b505f828152600460205260409020546001600160a01b0316610855565b61091c82823361171b565b5050565b803361092b82610fba565b6001600160a01b03161461095a5760405162461bcd60e51b8152600401610951906127c4565b60405180910390fd5b815f61096582611728565b6001600160a01b03160361098b5760405162461bcd60e51b8152600401610951906127fb565b5f838152600f602052604090206002015460ff16156109ec5760405162461bcd60e51b815260206004820152601b60248201527f47616d652073657373696f6e20616c72656164792061637469766500000000006044820152606401610951565b50506040805160a0810182528281524260208083019182526001838501818152606085018281525f60808701818152988152600f90945295909220935184559151918301919091555160028201805460ff1916911515919091179055905160038201559051600490910155565b610aa86040518061012001604052805f81526020015f6001600160a01b031681526020015f81526020015f81526020015f81526020015f81526020015f81526020015f81526020015f81525090565b815f610ab382611728565b6001600160a01b031603610ad95760405162461bcd60e51b8152600401610951906127fb565b5f838152600c60209081526040918290208251610120810184528154815260018201546001600160a01b0316928101929092526002810154928201929092526003820154606082015260048201546080820152600582015460a0820152600682015460c0820152600782015460e082015260089091015461010082015291505b50919050565b6001600160a01b038216610b8857604051633250574960e11b81525f6004820152602401610951565b5f610b94838333611742565b9050836001600160a01b0316816001600160a01b031614610be2576040516364283d7b60e01b81526001600160a01b0380861660048301526024820184905282166044820152606401610951565b50505050565b600d602052815f5260405f208181548110610c01575f80fd5b905f5260205f20015f91509150505481565b5f610c1d83610fc4565b8210610c4e5760405163295f44f760e21b81526001600160a01b038416600482015260248101839052604401610951565b506001600160a01b03919091165f908152600660209081526040808320938352929052205490565b610c7e611869565b600a546040516001600160a01b03909116904780156108fc02915f818181858888f19350505050158015610cb4573d5f5f3e3d5ffd5b50565b8133610cc282610fba565b6001600160a01b031614610ce85760405162461bcd60e51b8152600401610951906127c4565b610cf0611896565b5f838152600c6020526040902060020154610d1d5760405162461bcd60e51b8152600401610951906127fb565b60105460405163d47eed4560e01b81525f916001600160a01b03169063d47eed4590610d4d908690600401612828565b602060405180830381865afa158015610d68573d5f5f3e3d5ffd5b505050506040513d601f19601f82011682018060405250810190610d8c919061288b565b905080341015610dde5760405162461bcd60e51b815260206004820181905260248201527f496e73756666696369656e742066656520666f722050797468207570646174656044820152606401610951565b601054604051631df3cbc560e31b81526001600160a01b039091169063ef9e5e28908390610e10908790600401612828565b5f604051808303818588803b158015610e27575f5ffd5b505af1158015610e39573d5f5f3e3d5ffd5b50505050505f610e4b600160646118c0565b90505f610e596002836128a2565b1590508015610efc575f868152600c60205260408120600201805460019290610e839084906128d5565b90915550505f868152600c60205260408120600301805460649290610ea99084906128d5565b90915550505f868152600c60205260409081902060020154905187917f893dc3a1c121cdc44e6a41bff8d799deb7e50f9ad20e93c637f082cfaacd153c91610ef391815260200190565b60405180910390a25b82341115610f3957336108fc610f1285346128e8565b6040518115909202915f818181858888f19350505050158015610f37573d5f5f3e3d5ffd5b505b505050610f466001600b55565b505050565b610f4683838360405180602001604052805f8152506111c0565b5f610f6f60085490565b8210610f975760405163295f44f760e21b81525f600482015260248101839052604401610951565b60088281548110610faa57610faa6128fb565b905f5260205f2001549050919050565b5f610855826116e4565b5f6001600160a01b038216610fee576040516322718ad960e21b81525f6004820152602401610951565b506001600160a01b03165f9081526003602052604090205490565b611011611869565b61101a5f611945565b565b5f808080808080878161102e82611728565b6001600160a01b0316036110545760405162461bcd60e51b8152600401610951906127fb565b5050505f9586525050600c60209081526040948590208551610120810187528154815260018201546001600160a01b0316928101929092526002810154958201869052600381015460608301819052600482015460808401819052600583015460a08501819052600684015460c08601819052600785015460e087018190526008909501546101009096018690529899929891975095509350909190565b6111216040518060a001604052805f81526020015f81526020015f151581526020015f81526020015f81525090565b815f61112c82611728565b6001600160a01b0316036111525760405162461bcd60e51b8152600401610951906127fb565b50505f908152600f6020908152604091829020825160a08101845281548152600182015492810192909252600281015460ff1615159282019290925260038201546060820152600490910154608082015290565b60606001805461086990612792565b61091c338383611996565b6111cb848484610b5f565b610be23385858585611a34565b60606111e3826116e4565b505f6111f960408051602081019091525f815290565b90505f8151116112175760405180602001604052805f815250611242565b8061122184611b5b565b604051602001611232929190612926565b6040516020818303038152906040525b9392505050565b6001600160a01b0381165f908152600d60209081526040918290208054835181840281018401909452808452606093928301828280156112a657602002820191905f5260205f20905b815481526020019060010190808311611292575b50505050509050919050565b80336112bd82610fba565b6001600160a01b0316146112e35760405162461bcd60e51b8152600401610951906127c4565b815f6112ee82611728565b6001600160a01b0316036113145760405162461bcd60e51b8152600401610951906127fb565b5f838152600f602052604090206002015460ff1661136d5760405162461bcd60e51b815260206004820152601660248201527527379030b1ba34bb329033b0b6b29039b2b9b9b4b7b760511b6044820152606401610951565b5f838152600f6020526040812060028101805460ff19169055600481015490919061139990600a61293a565b905080600c5f8781526020019081526020015f206003015f8282546113be91906128d5565b909155506113cd905085611beb565b5050505050565b601180545f91826113e483612951565b9190505590506113f43382611d32565b604051806101200160405280828152602001336001600160a01b03168152602001600181526020015f815260200161142e600a60146118c0565b815260200161143f600a60146118c0565b8152602001611450600a60146118c0565b8152602001611461600a60146118c0565b81526020016114726005600f6118c0565b90525f828152600c602090815260408083208451815584830151600180830180546001600160a01b0319166001600160a01b0390931692909217909155858301516002830155606086015160038301556080860151600483015560a0860151600583015560c0860151600683015560e086015160078301556101009095015160089091015533808452600d8352818420805480870182559085529383902090930185905551928352909183917f1ff83751d356c48789f84e073266f617fdfe6d8a24b572efe194288e748acce0910160405180910390a350565b6001600160a01b039182165f90815260056020908152604080832093909416825291909152205460ff1690565b611581611869565b601080546001600160a01b0319166001600160a01b0392909216919091179055565b6115ab611869565b6001600160a01b0381166115d457604051631e4fbdf760e01b81525f6004820152602401610951565b610cb481611945565b66038d7ea4c680003410156116405760405162461bcd60e51b815260206004820152602360248201527f496e73756666696369656e74207061796d656e7420666f722072616e646f6d6e60448201526265737360e81b6064820152608401610951565b5f42443360405160200161167993929190928352602083019190915260601b6bffffffffffffffffffffffff1916604082015260540190565b60408051601f198184030181529082905280516020909101209150339082907f24824956716588cf18c3cb557ee25fa952255246eb51235316882371d343c355905f90a350565b5f6001600160e01b0319821663780e9d6360e01b1480610855575061085582611d4b565b5f5f6116ef83611728565b90506001600160a01b03811661085557604051637e27328960e01b815260048101849052602401610951565b610f468383836001611d9a565b5f908152600260205260409020546001600160a01b031690565b5f5f61174d84611728565b90506001600160a01b0381161561181b576001600160a01b0381165f908152600d60205260408120905b81548110156118185785828281548110611793576117936128fb565b905f5260205f2001540361181057815482906117b1906001906128e8565b815481106117c1576117c16128fb565b905f5260205f2001548282815481106117dc576117dc6128fb565b905f5260205f200181905550818054806117f8576117f8612969565b600190038181905f5260205f20015f90559055611818565b600101611777565b50505b6001600160a01b03851615611855576001600160a01b0385165f908152600d60209081526040822080546001810182559083529120018490555b611860858585611e9e565b95945050505050565b600a546001600160a01b0316331461101a5760405163118cdaa760e01b8152336004820152602401610951565b6002600b54036118b957604051633ee5aeb560e01b815260040160405180910390fd5b6002600b55565b5f5f4244336040516020016118fa93929190928352602083019190915260601b6bffffffffffffffffffffffff1916604082015260540190565b60408051601f198184030181529190528051602090910120905061191e84846128e8565b6119299060016128d5565b61193390826128a2565b61193d90856128d5565b949350505050565b600a80546001600160a01b038381166001600160a01b0319831681179093556040519116919082907f8be0079c531659141344cd1fd0a4f28419497f9722a3daafe3b4186f6b6457e0905f90a35050565b6001600160a01b0382166119c857604051630b61174360e31b81526001600160a01b0383166004820152602401610951565b6001600160a01b038381165f81815260056020908152604080832094871680845294825291829020805460ff191686151590811790915591519182527f17307eab39ab6107e8899845ad3d59bd9653f200f220920489ca2b5937696c31910160405180910390a3505050565b6001600160a01b0383163b156113cd57604051630a85bd0160e11b81526001600160a01b0384169063150b7a0290611a7690889088908790879060040161297d565b6020604051808303815f875af1925050508015611ab0575060408051601f3d908101601f19168201909252611aad918101906129b9565b60015b611b17573d808015611add576040519150601f19603f3d011682016040523d82523d5f602084013e611ae2565b606091505b5080515f03611b0f57604051633250574960e11b81526001600160a01b0385166004820152602401610951565b805160208201fd5b6001600160e01b03198116630a85bd0160e11b14611b5357604051633250574960e11b81526001600160a01b0385166004820152602401610951565b505050505050565b60605f611b6783611f69565b60010190505f8167ffffffffffffffff811115611b8657611b866124e0565b6040519080825280601f01601f191660200182016040528015611bb0576020820181803683370190505b5090508181016020015b5f19016f181899199a1a9b1b9c1cb0b131b232b360811b600a86061a8153600a8504945084611bba57509392505050565b5f818152600c602052604081206002810154909190611c0c9060649061293a565b905080826003015410158015611c26575060648260020154105b15610f4657600282018054905f611c3c83612951565b9190505550611c4d600160036118c0565b826004015f828254611c5f91906128d5565b90915550611c719050600160036118c0565b826005015f828254611c8391906128d5565b90915550611c959050600160036118c0565b826006015f828254611ca791906128d5565b90915550611cb99050600160036118c0565b826007015f828254611ccb91906128d5565b90915550611cdc90505f60026118c0565b826008015f828254611cee91906128d5565b9091555050600282015460405190815283907f893dc3a1c121cdc44e6a41bff8d799deb7e50f9ad20e93c637f082cfaacd153c9060200160405180910390a2505050565b61091c828260405180602001604052805f815250612040565b5f6001600160e01b031982166380ac58cd60e01b1480611d7b57506001600160e01b03198216635b5e139f60e01b145b8061085557506301ffc9a760e01b6001600160e01b0319831614610855565b8080611dae57506001600160a01b03821615155b15611e6f575f611dbd846116e4565b90506001600160a01b03831615801590611de95750826001600160a01b0316816001600160a01b031614155b8015611dfc5750611dfa818461154c565b155b15611e255760405163a9fbf51f60e01b81526001600160a01b0384166004820152602401610951565b8115611e6d5783856001600160a01b0316826001600160a01b03167f8c5be1e5ebec7d5bd14f71427d1e84f3dd0314c0f7b2291e5b200ac8c7c3b92560405160405180910390a45b505b50505f90815260046020526040902080546001600160a01b0319166001600160a01b0392909216919091179055565b5f5f611eab858585612057565b90506001600160a01b038116611f0757611f0284600880545f838152600960205260408120829055600182018355919091527ff3f7a9fe364faab93b216da50a3214154f22a0a2b415b23a84c8169e8b636ee30155565b611f2a565b846001600160a01b0316816001600160a01b031614611f2a57611f2a8185612144565b6001600160a01b038516611f4657611f41846121c1565b61193d565b846001600160a01b0316816001600160a01b03161461193d5761193d8585612268565b5f8072184f03e93ff9f4daa797ed6e38ed64bf6a1f0160401b8310611fa75772184f03e93ff9f4daa797ed6e38ed64bf6a1f0160401b830492506040015b6d04ee2d6d415b85acef81000000008310611fd3576d04ee2d6d415b85acef8100000000830492506020015b662386f26fc100008310611ff157662386f26fc10000830492506010015b6305f5e1008310612009576305f5e100830492506008015b612710831061201d57612710830492506004015b6064831061202f576064830492506002015b600a83106108555760010192915050565b61204a83836122b6565b610f46335f858585611a34565b5f5f61206284611728565b90506001600160a01b0383161561207e5761207e818486612317565b6001600160a01b038116156120b8576120995f855f5f611d9a565b6001600160a01b0381165f90815260036020526040902080545f190190555b6001600160a01b038516156120e6576001600160a01b0385165f908152600360205260409020805460010190555b5f8481526002602052604080822080546001600160a01b0319166001600160a01b0389811691821790925591518793918516917fddf252ad1be2c89b69c2b068fc378daa952ba7f163c4a11628f55a4df523b3ef91a4949350505050565b5f61214e83610fc4565b5f838152600760209081526040808320546001600160a01b03881684526006909252909120919250908183146121a3575f83815260208281526040808320548584528184208190558352600790915290208290555b5f938452600760209081526040808620869055938552525081205550565b6008545f906121d2906001906128e8565b5f83815260096020526040812054600880549394509092849081106121f9576121f96128fb565b905f5260205f20015490508060088381548110612218576122186128fb565b5f91825260208083209091019290925582815260099091526040808220849055858252812055600880548061224f5761224f612969565b600190038181905f5260205f20015f9055905550505050565b5f600161227484610fc4565b61227e91906128e8565b6001600160a01b039093165f908152600660209081526040808320868452825280832085905593825260079052919091209190915550565b6001600160a01b0382166122df57604051633250574960e11b81525f6004820152602401610951565b5f6122eb83835f611742565b90506001600160a01b03811615610f46576040516339e3563760e11b81525f6004820152602401610951565b61232283838361237b565b610f46576001600160a01b03831661235057604051637e27328960e01b815260048101829052602401610951565b60405163177e802f60e01b81526001600160a01b038316600482015260248101829052604401610951565b5f6001600160a01b0383161580159061193d5750826001600160a01b0316846001600160a01b031614806123b457506123b4848461154c565b8061193d5750505f908152600460205260409020546001600160a01b03908116911614919050565b6001600160e01b031981168114610cb4575f5ffd5b5f60208284031215612401575f5ffd5b8135611242816123dc565b5f81518084528060208401602086015e5f602082860101526020601f19601f83011685010191505092915050565b602081525f611242602083018461240c565b5f6020828403121561245c575f5ffd5b5035919050565b80356001600160a01b0381168114612479575f5ffd5b919050565b5f5f6040838503121561248f575f5ffd5b61249883612463565b946020939093013593505050565b5f5f5f606084860312156124b8575f5ffd5b6124c184612463565b92506124cf60208501612463565b929592945050506040919091013590565b634e487b7160e01b5f52604160045260245ffd5b604051601f8201601f1916810167ffffffffffffffff8111828210171561251d5761251d6124e0565b604052919050565b5f82601f830112612534575f5ffd5b813567ffffffffffffffff81111561254e5761254e6124e0565b612561601f8201601f19166020016124f4565b818152846020838601011115612575575f5ffd5b816020850160208301375f918101602001919091529392505050565b5f5f604083850312156125a2575f5ffd5b82359150602083013567ffffffffffffffff8111156125bf575f5ffd5b8301601f810185136125cf575f5ffd5b803567ffffffffffffffff8111156125e9576125e96124e0565b8060051b6125f9602082016124f4565b91825260208184018101929081019088841115612614575f5ffd5b6020850192505b8383101561265a57823567ffffffffffffffff811115612639575f5ffd5b6126488a602083890101612525565b8352506020928301929091019061261b565b80955050505050509250929050565b5f60208284031215612679575f5ffd5b61124282612463565b5f5f60408385031215612693575f5ffd5b61269c83612463565b9150602083013580151581146126b0575f5ffd5b809150509250929050565b5f5f5f5f608085870312156126ce575f5ffd5b6126d785612463565b93506126e560208601612463565b925060408501359150606085013567ffffffffffffffff811115612707575f5ffd5b61271387828801612525565b91505092959194509250565b602080825282518282018190525f918401906040840190835b81811015612756578351835260209384019390920191600101612738565b509095945050505050565b5f5f60408385031215612772575f5ffd5b61277b83612463565b915061278960208401612463565b90509250929050565b600181811c908216806127a657607f821691505b602082108103610b5957634e487b7160e01b5f52602260045260245ffd5b6020808252601a908201527f4e6f7420746865206f776e6572206f662074686973206865726f000000000000604082015260600190565b60208082526013908201527212195c9bc8191bd95cc81b9bdd08195e1a5cdd606a1b604082015260600190565b5f602082016020835280845180835260408501915060408160051b8601019250602086015f5b8281101561287f57603f1987860301845261286a85835161240c565b9450602093840193919091019060010161284e565b50929695505050505050565b5f6020828403121561289b575f5ffd5b5051919050565b5f826128bc57634e487b7160e01b5f52601260045260245ffd5b500690565b634e487b7160e01b5f52601160045260245ffd5b80820180821115610855576108556128c1565b81810381811115610855576108556128c1565b634e487b7160e01b5f52603260045260245ffd5b5f81518060208401855e5f93019283525090919050565b5f61193d612934838661290f565b8461290f565b8082028115828204841417610855576108556128c1565b5f60018201612962576129626128c1565b5060010190565b634e487b7160e01b5f52603160045260245ffd5b6001600160a01b03858116825284166020820152604081018390526080606082018190525f906129af9083018461240c565b9695505050505050565b5f602082840312156129c9575f5ffd5b8151611242816123dc56fea264697066735822122074fce6a9b8195e917476865db0eea4c9c446c5b7858df54eab860ced2773f1c464736f6c634300081c0033",
  "linkReferences": {},
  "deployedLinkReferences": {},
  "immutableReferences": {},
  "inputSourceName": "project/contracts/RogueChain.sol",
  "buildInfoId": "solc-0_8_28-8a4c5ebf9436f1e759479ad843f62d6e89928263"
}