{
  "_format": "hh3-artifact-1",
  "contractName": "RogueChain",
  "sourceName": "contracts/RogueChain.sol",
  "abi": [
    {
      "inputs": [
        {
          "internalType": "address",
          "name": "_pyth",
          "type": "address"
        },
        {
          "internalType": "address",
          "name": "_pythEntropy",
          "type": "address"
        },
        {
          "internalType": "bytes32",
          "name": "_ethPriceId",
          "type": "bytes32"
        },
        {
          "internalType": "bytes32",
          "name": "_btcPriceId",
          "type": "bytes32"
        }
      ],
      "stateMutability": "nonpayable",
      "type": "constructor"
    },
    {
      "inputs": [
        {
          "internalType": "address",
          "name": "sender",
          "type": "address"
        },
        {
          "internalType": "uint256",
          "name": "tokenId",
          "type": "uint256"
        },
        {
          "internalType": "address",
          "name": "owner",
          "type": "address"
        }
      ],
      "name": "ERC721IncorrectOwner",
      "type": "error"
    },
    {
      "inputs": [
        {
          "internalType": "address",
          "name": "operator",
          "type": "address"
        },
        {
          "internalType": "uint256",
          "name": "tokenId",
          "type": "uint256"
        }
      ],
      "name": "ERC721InsufficientApproval",
      "type": "error"
    },
    {
      "inputs": [
        {
          "internalType": "address",
          "name": "approver",
          "type": "address"
        }
      ],
      "name": "ERC721InvalidApprover",
      "type": "error"
    },
    {
      "inputs": [
        {
          "internalType": "address",
          "name": "operator",
          "type": "address"
        }
      ],
      "name": "ERC721InvalidOperator",
      "type": "error"
    },
    {
      "inputs": [
        {
          "internalType": "address",
          "name": "owner",
          "type": "address"
        }
      ],
      "name": "ERC721InvalidOwner",
      "type": "error"
    },
    {
      "inputs": [
        {
          "internalType": "address",
          "name": "receiver",
          "type": "address"
        }
      ],
      "name": "ERC721InvalidReceiver",
      "type": "error"
    },
    {
      "inputs": [
        {
          "internalType": "address",
          "name": "sender",
          "type": "address"
        }
      ],
      "name": "ERC721InvalidSender",
      "type": "error"
    },
    {
      "inputs": [
        {
          "internalType": "uint256",
          "name": "tokenId",
          "type": "uint256"
        }
      ],
      "name": "ERC721NonexistentToken",
      "type": "error"
    },
    {
      "inputs": [
        {
          "internalType": "address",
          "name": "owner",
          "type": "address"
        }
      ],
      "name": "OwnableInvalidOwner",
      "type": "error"
    },
    {
      "inputs": [
        {
          "internalType": "address",
          "name": "account",
          "type": "address"
        }
      ],
      "name": "OwnableUnauthorizedAccount",
      "type": "error"
    },
    {
      "inputs": [],
      "name": "ReentrancyGuardReentrantCall",
      "type": "error"
    },
    {
      "anonymous": false,
      "inputs": [
        {
          "indexed": true,
          "internalType": "address",
          "name": "owner",
          "type": "address"
        },
        {
          "indexed": true,
          "internalType": "address",
          "name": "approved",
          "type": "address"
        },
        {
          "indexed": true,
          "internalType": "uint256",
          "name": "tokenId",
          "type": "uint256"
        }
      ],
      "name": "Approval",
      "type": "event"
    },
    {
      "anonymous": false,
      "inputs": [
        {
          "indexed": true,
          "internalType": "address",
          "name": "owner",
          "type": "address"
        },
        {
          "indexed": true,
          "internalType": "address",
          "name": "operator",
          "type": "address"
        },
        {
          "indexed": false,
          "internalType": "bool",
          "name": "approved",
          "type": "bool"
        }
      ],
      "name": "ApprovalForAll",
      "type": "event"
    },
    {
      "anonymous": false,
      "inputs": [
        {
          "indexed": true,
          "internalType": "uint256",
          "name": "heroId",
          "type": "uint256"
        },
        {
          "indexed": false,
          "internalType": "uint256",
          "name": "newLevel",
          "type": "uint256"
        }
      ],
      "name": "HeroLeveledUp",
      "type": "event"
    },
    {
      "anonymous": false,
      "inputs": [
        {
          "indexed": true,
          "internalType": "uint256",
          "name": "heroId",
          "type": "uint256"
        },
        {
          "indexed": true,
          "internalType": "address",
          "name": "owner",
          "type": "address"
        },
        {
          "indexed": false,
          "internalType": "uint256",
          "name": "level",
          "type": "uint256"
        }
      ],
      "name": "HeroMinted",
      "type": "event"
    },
    {
      "anonymous": false,
      "inputs": [
        {
          "indexed": true,
          "internalType": "address",
          "name": "previousOwner",
          "type": "address"
        },
        {
          "indexed": true,
          "internalType": "address",
          "name": "newOwner",
          "type": "address"
        }
      ],
      "name": "OwnershipTransferred",
      "type": "event"
    },
    {
      "anonymous": false,
      "inputs": [
        {
          "indexed": true,
          "internalType": "bytes32",
          "name": "requestId",
          "type": "bytes32"
        },
        {
          "indexed": false,
          "internalType": "uint64",
          "name": "randomNumber",
          "type": "uint64"
        }
      ],
      "name": "RandomnessFulfilled",
      "type": "event"
    },
    {
      "anonymous": false,
      "inputs": [
        {
          "indexed": true,
          "internalType": "bytes32",
          "name": "requestId",
          "type": "bytes32"
        },
        {
          "indexed": true,
          "internalType": "address",
          "name": "requester",
          "type": "address"
        }
      ],
      "name": "RandomnessRequested",
      "type": "event"
    },
    {
      "anonymous": false,
      "inputs": [
        {
          "indexed": true,
          "internalType": "address",
          "name": "from",
          "type": "address"
        },
        {
          "indexed": true,
          "internalType": "address",
          "name": "to",
          "type": "address"
        },
        {
          "indexed": true,
          "internalType": "uint256",
          "name": "tokenId",
          "type": "uint256"
        }
      ],
      "name": "Transfer",
      "type": "event"
    },
    {
      "inputs": [],
      "name": "BASE_EXPERIENCE",
      "outputs": [
        {
          "internalType": "uint256",
          "name": "",
          "type": "uint256"
        }
      ],
      "stateMutability": "view",
      "type": "function"
    },
    {
      "inputs": [],
      "name": "MAX_LEVEL",
      "outputs": [
        {
          "internalType": "uint256",
          "name": "",
          "type": "uint256"
        }
      ],
      "stateMutability": "view",
      "type": "function"
    },
    {
      "inputs": [
        {
          "internalType": "address",
          "name": "to",
          "type": "address"
        },
        {
          "internalType": "uint256",
          "name": "tokenId",
          "type": "uint256"
        }
      ],
      "name": "approve",
      "outputs": [],
      "stateMutability": "nonpayable",
      "type": "function"
    },
    {
      "inputs": [
        {
          "internalType": "address",
          "name": "owner",
          "type": "address"
        }
      ],
      "name": "balanceOf",
      "outputs": [
        {
          "internalType": "uint256",
          "name": "",
          "type": "uint256"
        }
      ],
      "stateMutability": "view",
      "type": "function"
    },
    {
      "inputs": [
        {
          "internalType": "uint256",
          "name": "heroId",
          "type": "uint256"
        }
      ],
      "name": "endGameSession",
      "outputs": [],
      "stateMutability": "nonpayable",
      "type": "function"
    },
    {
      "inputs": [
        {
          "internalType": "uint256",
          "name": "",
          "type": "uint256"
        }
      ],
      "name": "gameSessions",
      "outputs": [
        {
          "internalType": "uint256",
          "name": "heroId",
          "type": "uint256"
        },
        {
          "internalType": "uint256",
          "name": "startTime",
          "type": "uint256"
        },
        {
          "internalType": "bool",
          "name": "isActive",
          "type": "bool"
        },
        {
          "internalType": "uint256",
          "name": "currentFloor",
          "type": "uint256"
        },
        {
          "internalType": "uint256",
          "name": "monstersDefeated",
          "type": "uint256"
        }
      ],
      "stateMutability": "view",
      "type": "function"
    },
    {
      "inputs": [
        {
          "internalType": "uint256",
          "name": "tokenId",
          "type": "uint256"
        }
      ],
      "name": "getApproved",
      "outputs": [
        {
          "internalType": "address",
          "name": "",
          "type": "address"
        }
      ],
      "stateMutability": "view",
      "type": "function"
    },
    {
      "inputs": [
        {
          "internalType": "uint256",
          "name": "heroId",
          "type": "uint256"
        }
      ],
      "name": "getGameSession",
      "outputs": [
        {
          "components": [
            {
              "internalType": "uint256",
              "name": "heroId",
              "type": "uint256"
            },
            {
              "internalType": "uint256",
              "name": "startTime",
              "type": "uint256"
            },
            {
              "internalType": "bool",
              "name": "isActive",
              "type": "bool"
            },
            {
              "internalType": "uint256",
              "name": "currentFloor",
              "type": "uint256"
            },
            {
              "internalType": "uint256",
              "name": "monstersDefeated",
              "type": "uint256"
            }
          ],
          "internalType": "struct RogueChain.GameSession",
          "name": "",
          "type": "tuple"
        }
      ],
      "stateMutability": "view",
      "type": "function"
    },
    {
      "inputs": [
        {
          "internalType": "uint256",
          "name": "heroId",
          "type": "uint256"
        }
      ],
      "name": "getHero",
      "outputs": [
        {
          "components": [
            {
              "internalType": "uint256",
              "name": "id",
              "type": "uint256"
            },
            {
              "internalType": "address",
              "name": "owner",
              "type": "address"
            },
            {
              "internalType": "uint256",
              "name": "level",
              "type": "uint256"
            },
            {
              "internalType": "uint256",
              "name": "experience",
              "type": "uint256"
            },
            {
              "internalType": "uint256",
              "name": "strength",
              "type": "uint256"
            },
            {
              "internalType": "uint256",
              "name": "agility",
              "type": "uint256"
            },
            {
              "internalType": "uint256",
              "name": "intelligence",
              "type": "uint256"
            },
            {
              "internalType": "uint256",
              "name": "vitality",
              "type": "uint256"
            },
            {
              "internalType": "uint256",
              "name": "luck",
              "type": "uint256"
            }
          ],
          "internalType": "struct RogueChain.Hero",
          "name": "",
          "type": "tuple"
        }
      ],
      "stateMutability": "view",
      "type": "function"
    },
    {
      "inputs": [
        {
          "internalType": "uint256",
          "name": "heroId",
          "type": "uint256"
        }
      ],
      "name": "getHeroStats",
      "outputs": [
        {
          "internalType": "uint256",
          "name": "level",
          "type": "uint256"
        },
        {
          "internalType": "uint256",
          "name": "experience",
          "type": "uint256"
        },
        {
          "internalType": "uint256",
          "name": "strength",
          "type": "uint256"
        },
        {
          "internalType": "uint256",
          "name": "agility",
          "type": "uint256"
        },
        {
          "internalType": "uint256",
          "name": "intelligence",
          "type": "uint256"
        },
        {
          "internalType": "uint256",
          "name": "vitality",
          "type": "uint256"
        },
        {
          "internalType": "uint256",
          "name": "luck",
          "type": "uint256"
        }
      ],
      "stateMutability": "view",
      "type": "function"
    },
    {
      "inputs": [
        {
          "internalType": "address",
          "name": "user",
          "type": "address"
        }
      ],
      "name": "getUserHeroes",
      "outputs": [
        {
          "internalType": "uint256[]",
          "name": "",
          "type": "uint256[]"
        }
      ],
      "stateMutability": "view",
      "type": "function"
    },
    {
      "inputs": [
        {
          "internalType": "uint256",
          "name": "",
          "type": "uint256"
        }
      ],
      "name": "heroes",
      "outputs": [
        {
          "internalType": "uint256",
          "name": "id",
          "type": "uint256"
        },
        {
          "internalType": "address",
          "name": "owner",
          "type": "address"
        },
        {
          "internalType": "uint256",
          "name": "level",
          "type": "uint256"
        },
        {
          "internalType": "uint256",
          "name": "experience",
          "type": "uint256"
        },
        {
          "internalType": "uint256",
          "name": "strength",
          "type": "uint256"
        },
        {
          "internalType": "uint256",
          "name": "agility",
          "type": "uint256"
        },
        {
          "internalType": "uint256",
          "name": "intelligence",
          "type": "uint256"
        },
        {
          "internalType": "uint256",
          "name": "vitality",
          "type": "uint256"
        },
        {
          "internalType": "uint256",
          "name": "luck",
          "type": "uint256"
        }
      ],
      "stateMutability": "view",
      "type": "function"
    },
    {
      "inputs": [
        {
          "internalType": "address",
          "name": "owner",
          "type": "address"
        },
        {
          "internalType": "address",
          "name": "operator",
          "type": "address"
        }
      ],
      "name": "isApprovedForAll",
      "outputs": [
        {
          "internalType": "bool",
          "name": "",
          "type": "bool"
        }
      ],
      "stateMutability": "view",
      "type": "function"
    },
    {
      "inputs": [],
      "name": "mintHero",
      "outputs": [],
      "stateMutability": "nonpayable",
      "type": "function"
    },
    {
      "inputs": [],
      "name": "name",
      "outputs": [
        {
          "internalType": "string",
          "name": "",
          "type": "string"
        }
      ],
      "stateMutability": "view",
      "type": "function"
    },
    {
      "inputs": [],
      "name": "owner",
      "outputs": [
        {
          "internalType": "address",
          "name": "",
          "type": "address"
        }
      ],
      "stateMutability": "view",
      "type": "function"
    },
    {
      "inputs": [
        {
          "internalType": "uint256",
          "name": "tokenId",
          "type": "uint256"
        }
      ],
      "name": "ownerOf",
      "outputs": [
        {
          "internalType": "address",
          "name": "",
          "type": "address"
        }
      ],
      "stateMutability": "view",
      "type": "function"
    },
    {
      "inputs": [],
      "name": "pyth",
      "outputs": [
        {
          "internalType": "contract IPyth",
          "name": "",
          "type": "address"
        }
      ],
      "stateMutability": "view",
      "type": "function"
    },
    {
      "inputs": [
        {
          "internalType": "bytes32",
          "name": "",
          "type": "bytes32"
        }
      ],
      "name": "randomnessRequests",
      "outputs": [
        {
          "internalType": "address",
          "name": "",
          "type": "address"
        }
      ],
      "stateMutability": "view",
      "type": "function"
    },
    {
      "inputs": [],
      "name": "renounceOwnership",
      "outputs": [],
      "stateMutability": "nonpayable",
      "type": "function"
    },
    {
      "inputs": [],
      "name": "requestRandomness",
      "outputs": [],
      "stateMutability": "payable",
      "type": "function"
    },
    {
      "inputs": [
        {
          "internalType": "address",
          "name": "from",
          "type": "address"
        },
        {
          "internalType": "address",
          "name": "to",
          "type": "address"
        },
        {
          "internalType": "uint256",
          "name": "tokenId",
          "type": "uint256"
        }
      ],
      "name": "safeTransferFrom",
      "outputs": [],
      "stateMutability": "nonpayable",
      "type": "function"
    },
    {
      "inputs": [
        {
          "internalType": "address",
          "name": "from",
          "type": "address"
        },
        {
          "internalType": "address",
          "name": "to",
          "type": "address"
        },
        {
          "internalType": "uint256",
          "name": "tokenId",
          "type": "uint256"
        },
        {
          "internalType": "bytes",
          "name": "data",
          "type": "bytes"
        }
      ],
      "name": "safeTransferFrom",
      "outputs": [],
      "stateMutability": "nonpayable",
      "type": "function"
    },
    {
      "inputs": [
        {
          "internalType": "address",
          "name": "operator",
          "type": "address"
        },
        {
          "internalType": "bool",
          "name": "approved",
          "type": "bool"
        }
      ],
      "name": "setApprovalForAll",
      "outputs": [],
      "stateMutability": "nonpayable",
      "type": "function"
    },
    {
      "inputs": [
        {
          "internalType": "address",
          "name": "_pyth",
          "type": "address"
        }
      ],
      "name": "setPyth",
      "outputs": [],
      "stateMutability": "nonpayable",
      "type": "function"
    },
    {
      "inputs": [
        {
          "internalType": "uint256",
          "name": "heroId",
          "type": "uint256"
        }
      ],
      "name": "startGameSession",
      "outputs": [],
      "stateMutability": "nonpayable",
      "type": "function"
    },
    {
      "inputs": [
        {
          "internalType": "bytes4",
          "name": "interfaceId",
          "type": "bytes4"
        }
      ],
      "name": "supportsInterface",
      "outputs": [
        {
          "internalType": "bool",
          "name": "",
          "type": "bool"
        }
      ],
      "stateMutability": "view",
      "type": "function"
    },
    {
      "inputs": [],
      "name": "symbol",
      "outputs": [
        {
          "internalType": "string",
          "name": "",
          "type": "string"
        }
      ],
      "stateMutability": "view",
      "type": "function"
    },
    {
      "inputs": [
        {
          "internalType": "uint256",
          "name": "tokenId",
          "type": "uint256"
        }
      ],
      "name": "tokenURI",
      "outputs": [
        {
          "internalType": "string",
          "name": "",
          "type": "string"
        }
      ],
      "stateMutability": "view",
      "type": "function"
    },
    {
      "inputs": [
        {
          "internalType": "address",
          "name": "from",
          "type": "address"
        },
        {
          "internalType": "address",
          "name": "to",
          "type": "address"
        },
        {
          "internalType": "uint256",
          "name": "tokenId",
          "type": "uint256"
        }
      ],
      "name": "transferFrom",
      "outputs": [],
      "stateMutability": "nonpayable",
      "type": "function"
    },
    {
      "inputs": [
        {
          "internalType": "address",
          "name": "newOwner",
          "type": "address"
        }
      ],
      "name": "transferOwnership",
      "outputs": [],
      "stateMutability": "nonpayable",
      "type": "function"
    },
    {
      "inputs": [
        {
          "internalType": "address",
          "name": "",
          "type": "address"
        },
        {
          "internalType": "uint256",
          "name": "",
          "type": "uint256"
        }
      ],
      "name": "userHeroes",
      "outputs": [
        {
          "internalType": "uint256",
          "name": "",
          "type": "uint256"
        }
      ],
      "stateMutability": "view",
      "type": "function"
    },
    {
      "inputs": [],
      "name": "withdraw",
      "outputs": [],
      "stateMutability": "nonpayable",
      "type": "function"
    }
  ],
  "bytecode": "0x608060405234801561000f575f5ffd5b5060405161254938038061254983398101604081905261002e91610163565b3360405180604001604052806011815260200170526f677565436861696e204865726f657360781b815250604051806040016040528060038152602001620a486960eb1b815250815f9081610083919061023b565b506001610090828261023b565b5050506001600160a01b0381166100c057604051631e4fbdf760e01b81525f600482015260240160405180910390fd5b6100c9816100f7565b505060016007555050600c80546001600160a01b0319166001600160a01b03929092169190911790556102f5565b600680546001600160a01b038381166001600160a01b0319831681179093556040519116919082907f8be0079c531659141344cd1fd0a4f28419497f9722a3daafe3b4186f6b6457e0905f90a35050565b80516001600160a01b038116811461015e575f5ffd5b919050565b5f5f5f5f60808587031215610176575f5ffd5b61017f85610148565b935061018d60208601610148565b6040860151606090960151949790965092505050565b634e487b7160e01b5f52604160045260245ffd5b600181811c908216806101cb57607f821691505b6020821081036101e957634e487b7160e01b5f52602260045260245ffd5b50919050565b601f82111561023657805f5260205f20601f840160051c810160208510156102145750805b601f840160051c820191505b81811015610233575f8155600101610220565b50505b505050565b81516001600160401b03811115610254576102546101a3565b6102688161026284546101b7565b846101ef565b6020601f82116001811461029a575f83156102835750848201515b5f19600385901b1c1916600184901b178455610233565b5f84815260208120601f198516915b828110156102c957878501518255602094850194600190920191016102a9565b50848210156102e657868401515f19600387901b60f8161c191681555b50505050600190811b01905550565b612247806103025f395ff3fe6080604052600436106101e6575f3560e01c80638ab06fea11610108578063cdf7d8561161009d578063e985e9c51161006d578063e985e9c514610739578063ee22fd6f14610758578063f2fde38b14610777578063f8413b0714610796578063f98d06f01461079e575f5ffd5b8063cdf7d856146106da578063d2e65a7c14610706578063d7129b43146105cf578063e920033714610725575f5ffd5b8063a49062d4116100d8578063a49062d4146105cf578063a8d4a03b146105e3578063b88d4fde1461069c578063c87b56dd146106bb575f5ffd5b80638ab06fea1461051d5780638da5cb5b1461057f57806395d89b411461059c578063a22cb465146105b0575f5ffd5b806334a8014b1161017e5780636352211e1161014e5780636352211e1461047757806370a0823114610496578063715018a6146104b5578063835a4398146104c9575f5ffd5b806334a8014b146103955780633ccfd60b1461041057806342842e0e146104245780635e619b7814610443575f5ffd5b80631c00d3bf116101b95780631c00d3bf1461029757806321d80111146102b657806323b872dd146103495780632d55f73714610368575f5ffd5b806301ffc9a7146101ea57806306fdde031461021e578063081812fc1461023f578063095ea7b314610276575b5f5ffd5b3480156101f5575f5ffd5b50610209610204366004611ddb565b6107bd565b60405190151581526020015b60405180910390f35b348015610229575f5ffd5b5061023261080e565b6040516102159190611e24565b34801561024a575f5ffd5b5061025e610259366004611e36565b61089d565b6040516001600160a01b039091168152602001610215565b348015610281575f5ffd5b50610295610290366004611e68565b6108c4565b005b3480156102a2575f5ffd5b506102956102b1366004611e36565b6108d3565b3480156102c1575f5ffd5b506102d56102d0366004611e36565b610a38565b60405161021591905f610120820190508251825260018060a01b03602084015116602083015260408301516040830152606083015160608301526080830151608083015260a083015160a083015260c083015160c083015260e083015160e083015261010083015161010083015292915050565b348015610354575f5ffd5b50610295610363366004611e90565b610b3b565b348015610373575f5ffd5b50610387610382366004611e68565b610bc4565b604051908152602001610215565b3480156103a0575f5ffd5b506103e16103af366004611e36565b600b6020525f9081526040902080546001820154600283015460038401546004909401549293919260ff909116919085565b604051610215959493929190948552602085019390935290151560408401526060830152608082015260a00190565b34801561041b575f5ffd5b50610295610bef565b34801561042f575f5ffd5b5061029561043e366004611e90565b610c30565b34801561044e575f5ffd5b5061025e61045d366004611e36565b600a6020525f90815260409020546001600160a01b031681565b348015610482575f5ffd5b5061025e610491366004611e36565b610c4f565b3480156104a1575f5ffd5b506103876104b0366004611eca565b610c59565b3480156104c0575f5ffd5b50610295610c9e565b3480156104d4575f5ffd5b506104e86104e3366004611e36565b610cb1565b604080519788526020880196909652948601939093526060850191909152608084015260a083015260c082015260e001610215565b348015610528575f5ffd5b5061053c610537366004611e36565b610d85565b60405161021591905f60a0820190508251825260208301516020830152604083015115156040830152606083015160608301526080830151608083015292915050565b34801561058a575f5ffd5b506006546001600160a01b031661025e565b3480156105a7575f5ffd5b50610232610e39565b3480156105bb575f5ffd5b506102956105ca366004611ee3565b610e48565b3480156105da575f5ffd5b50610387606481565b3480156105ee575f5ffd5b506106506105fd366004611e36565b600860208190525f918252604090912080546001820154600283015460038401546004850154600586015460068701546007880154979098015495976001600160a01b0390951696939592949193909289565b60408051998a526001600160a01b0390981660208a0152968801959095526060870193909352608086019190915260a085015260c084015260e083015261010082015261012001610215565b3480156106a7575f5ffd5b506102956106b6366004611f30565b610e53565b3480156106c6575f5ffd5b506102326106d5366004611e36565b610e6b565b3480156106e5575f5ffd5b506106f96106f4366004611eca565b610edc565b604051610215919061200d565b348015610711575f5ffd5b50610295610720366004611e36565b610f45565b348015610730575f5ffd5b50610295611097565b348015610744575f5ffd5b5061020961075336600461204f565b611210565b348015610763575f5ffd5b50610295610772366004611eca565b61123d565b348015610782575f5ffd5b50610295610791366004611eca565b611267565b6102956112a1565b3480156107a9575f5ffd5b50600c5461025e906001600160a01b031681565b5f6001600160e01b031982166380ac58cd60e01b14806107ed57506001600160e01b03198216635b5e139f60e01b145b8061080857506301ffc9a760e01b6001600160e01b03198316145b92915050565b60605f805461081c90612080565b80601f016020809104026020016040519081016040528092919081815260200182805461084890612080565b80156108935780601f1061086a57610100808354040283529160200191610893565b820191905f5260205f20905b81548152906001019060200180831161087657829003601f168201915b5050505050905090565b5f6108a782611384565b505f828152600460205260409020546001600160a01b0316610808565b6108cf8282336113bb565b5050565b80336108de82610c4f565b6001600160a01b0316146109395760405162461bcd60e51b815260206004820152601a60248201527f4e6f7420746865206f776e6572206f662074686973206865726f00000000000060448201526064015b60405180910390fd5b815f610944826113c8565b6001600160a01b03160361096a5760405162461bcd60e51b8152600401610930906120b2565b5f838152600b602052604090206002015460ff16156109cb5760405162461bcd60e51b815260206004820152601b60248201527f47616d652073657373696f6e20616c72656164792061637469766500000000006044820152606401610930565b50506040805160a0810182528281524260208083019182526001838501818152606085018281525f60808701818152988152600b90945295909220935184559151918301919091555160028201805460ff1916911515919091179055905160038201559051600490910155565b610a876040518061012001604052805f81526020015f6001600160a01b031681526020015f81526020015f81526020015f81526020015f81526020015f81526020015f81526020015f81525090565b815f610a92826113c8565b6001600160a01b031603610ab85760405162461bcd60e51b8152600401610930906120b2565b5f838152600860208181526040928390208351610120810185528154815260018201546001600160a01b0316928101929092526002810154938201939093526003830154606082015260048301546080820152600583015460a0820152600683015460c0820152600783015460e082015291015461010082015291505b50919050565b6001600160a01b038216610b6457604051633250574960e11b81525f6004820152602401610930565b5f610b708383336113e2565b9050836001600160a01b0316816001600160a01b031614610bbe576040516364283d7b60e01b81526001600160a01b0380861660048301526024820184905282166044820152606401610930565b50505050565b6009602052815f5260405f208181548110610bdd575f80fd5b905f5260205f20015f91509150505481565b610bf7611509565b6006546040516001600160a01b03909116904780156108fc02915f818181858888f19350505050158015610c2d573d5f5f3e3d5ffd5b50565b610c4a83838360405180602001604052805f815250610e53565b505050565b5f61080882611384565b5f6001600160a01b038216610c83576040516322718ad960e21b81525f6004820152602401610930565b506001600160a01b03165f9081526003602052604090205490565b610ca6611509565b610caf5f611536565b565b5f8080808080808781610cc3826113c8565b6001600160a01b031603610ce95760405162461bcd60e51b8152600401610930906120b2565b5050505f9586525050600860208181526040958690208651610120810188528154815260018201546001600160a01b0316928101929092526002810154968201879052600381015460608301819052600482015460808401819052600583015460a08501819052600684015460c08601819052600785015460e08701819052949096015461010090950185905298999198909750955092935091565b610db46040518060a001604052805f81526020015f81526020015f151581526020015f81526020015f81525090565b815f610dbf826113c8565b6001600160a01b031603610de55760405162461bcd60e51b8152600401610930906120b2565b50505f908152600b6020908152604091829020825160a08101845281548152600182015492810192909252600281015460ff1615159282019290925260038201546060820152600490910154608082015290565b60606001805461081c90612080565b6108cf338383611587565b610e5e848484610b3b565b610bbe3385858585611625565b6060610e7682611384565b505f610e8c60408051602081019091525f815290565b90505f815111610eaa5760405180602001604052805f815250610ed5565b80610eb48461174c565b604051602001610ec59291906120f6565b6040516020818303038152906040525b9392505050565b6001600160a01b0381165f90815260096020908152604091829020805483518184028101840190945280845260609392830182828015610f3957602002820191905f5260205f20905b815481526020019060010190808311610f25575b50505050509050919050565b8033610f5082610c4f565b6001600160a01b031614610fa65760405162461bcd60e51b815260206004820152601a60248201527f4e6f7420746865206f776e6572206f662074686973206865726f0000000000006044820152606401610930565b815f610fb1826113c8565b6001600160a01b031603610fd75760405162461bcd60e51b8152600401610930906120b2565b5f838152600b602052604090206002015460ff166110305760405162461bcd60e51b815260206004820152601660248201527527379030b1ba34bb329033b0b6b29039b2b9b9b4b7b760511b6044820152606401610930565b5f838152600b6020526040812060028101805460ff19169055600481015490919061105c90600a61211e565b90508060085f8781526020019081526020015f206003015f8282546110819190612135565b909155506110909050856117dc565b5050505050565b600d80545f91826110a783612148565b9190505590506110b73382611923565b604051806101200160405280828152602001336001600160a01b03168152602001600181526020015f81526020016110f1600a601461193c565b8152602001611102600a601461193c565b8152602001611113600a601461193c565b8152602001611124600a601461193c565b81526020016111356005600f61193c565b90525f8281526008602081815260408084208551815585830151600180830180546001600160a01b0319166001600160a01b0390931692909217909155868301516002830155606087015160038301556080870151600483015560a0870151600583015560c0870151600683015560e0870151600783015561010090960151930192909255338084526009825282842080548087018255908552938290209093018590559051928352909183917f1ff83751d356c48789f84e073266f617fdfe6d8a24b572efe194288e748acce0910160405180910390a350565b6001600160a01b039182165f90815260056020908152604080832093909416825291909152205460ff1690565b611245611509565b600c80546001600160a01b0319166001600160a01b0392909216919091179055565b61126f611509565b6001600160a01b03811661129857604051631e4fbdf760e01b81525f6004820152602401610930565b610c2d81611536565b66038d7ea4c680003410156113045760405162461bcd60e51b815260206004820152602360248201527f496e73756666696369656e74207061796d656e7420666f722072616e646f6d6e60448201526265737360e81b6064820152608401610930565b5f42443360405160200161133d93929190928352602083019190915260601b6bffffffffffffffffffffffff1916604082015260540190565b60408051601f198184030181529082905280516020909101209150339082907f24824956716588cf18c3cb557ee25fa952255246eb51235316882371d343c355905f90a350565b5f5f61138f836113c8565b90506001600160a01b03811661080857604051637e27328960e01b815260048101849052602401610930565b610c4a83838360016119c1565b5f908152600260205260409020546001600160a01b031690565b5f5f6113ed846113c8565b90506001600160a01b038116156114bb576001600160a01b0381165f908152600960205260408120905b81548110156114b8578582828154811061143357611433612160565b905f5260205f200154036114b0578154829061145190600190612174565b8154811061146157611461612160565b905f5260205f20015482828154811061147c5761147c612160565b905f5260205f2001819055508180548061149857611498612187565b600190038181905f5260205f20015f905590556114b8565b600101611417565b50505b6001600160a01b038516156114f5576001600160a01b0385165f908152600960209081526040822080546001810182559083529120018490555b611500858585611ac5565b95945050505050565b6006546001600160a01b03163314610caf5760405163118cdaa760e01b8152336004820152602401610930565b600680546001600160a01b038381166001600160a01b0319831681179093556040519116919082907f8be0079c531659141344cd1fd0a4f28419497f9722a3daafe3b4186f6b6457e0905f90a35050565b6001600160a01b0382166115b957604051630b61174360e31b81526001600160a01b0383166004820152602401610930565b6001600160a01b038381165f81815260056020908152604080832094871680845294825291829020805460ff191686151590811790915591519182527f17307eab39ab6107e8899845ad3d59bd9653f200f220920489ca2b5937696c31910160405180910390a3505050565b6001600160a01b0383163b1561109057604051630a85bd0160e11b81526001600160a01b0384169063150b7a029061166790889088908790879060040161219b565b6020604051808303815f875af19250505080156116a1575060408051601f3d908101601f1916820190925261169e918101906121d7565b60015b611708573d8080156116ce576040519150601f19603f3d011682016040523d82523d5f602084013e6116d3565b606091505b5080515f0361170057604051633250574960e11b81526001600160a01b0385166004820152602401610930565b805160208201fd5b6001600160e01b03198116630a85bd0160e11b1461174457604051633250574960e11b81526001600160a01b0385166004820152602401610930565b505050505050565b60605f61175883611bb2565b60010190505f8167ffffffffffffffff81111561177757611777611f1c565b6040519080825280601f01601f1916602001820160405280156117a1576020820181803683370190505b5090508181016020015b5f19016f181899199a1a9b1b9c1cb0b131b232b360811b600a86061a8153600a85049450846117ab57509392505050565b5f81815260086020526040812060028101549091906117fd9060649061211e565b905080826003015410158015611817575060648260020154105b15610c4a57600282018054905f61182d83612148565b919050555061183e6001600361193c565b826004015f8282546118509190612135565b9091555061186290506001600361193c565b826005015f8282546118749190612135565b9091555061188690506001600361193c565b826006015f8282546118989190612135565b909155506118aa90506001600361193c565b826007015f8282546118bc9190612135565b909155506118cd90505f600261193c565b826008015f8282546118df9190612135565b9091555050600282015460405190815283907f893dc3a1c121cdc44e6a41bff8d799deb7e50f9ad20e93c637f082cfaacd153c9060200160405180910390a2505050565b6108cf828260405180602001604052805f815250611c89565b5f5f42443360405160200161197693929190928352602083019190915260601b6bffffffffffffffffffffffff1916604082015260540190565b60408051601f198184030181529190528051602090910120905061199a8484612174565b6119a5906001612135565b6119af90826121f2565b6119b99085612135565b949350505050565b80806119d557506001600160a01b03821615155b15611a96575f6119e484611384565b90506001600160a01b03831615801590611a105750826001600160a01b0316816001600160a01b031614155b8015611a235750611a218184611210565b155b15611a4c5760405163a9fbf51f60e01b81526001600160a01b0384166004820152602401610930565b8115611a945783856001600160a01b0316826001600160a01b03167f8c5be1e5ebec7d5bd14f71427d1e84f3dd0314c0f7b2291e5b200ac8c7c3b92560405160405180910390a45b505b50505f90815260046020526040902080546001600160a01b0319166001600160a01b0392909216919091179055565b5f5f611ad0846113c8565b90506001600160a01b03831615611aec57611aec818486611ca0565b6001600160a01b03811615611b2657611b075f855f5f6119c1565b6001600160a01b0381165f90815260036020526040902080545f190190555b6001600160a01b03851615611b54576001600160a01b0385165f908152600360205260409020805460010190555b5f8481526002602052604080822080546001600160a01b0319166001600160a01b0389811691821790925591518793918516917fddf252ad1be2c89b69c2b068fc378daa952ba7f163c4a11628f55a4df523b3ef91a4949350505050565b5f8072184f03e93ff9f4daa797ed6e38ed64bf6a1f0160401b8310611bf05772184f03e93ff9f4daa797ed6e38ed64bf6a1f0160401b830492506040015b6d04ee2d6d415b85acef81000000008310611c1c576d04ee2d6d415b85acef8100000000830492506020015b662386f26fc100008310611c3a57662386f26fc10000830492506010015b6305f5e1008310611c52576305f5e100830492506008015b6127108310611c6657612710830492506004015b60648310611c78576064830492506002015b600a83106108085760010192915050565b611c938383611d04565b610c4a335f858585611625565b611cab838383611d65565b610c4a576001600160a01b038316611cd957604051637e27328960e01b815260048101829052602401610930565b60405163177e802f60e01b81526001600160a01b038316600482015260248101829052604401610930565b6001600160a01b038216611d2d57604051633250574960e11b81525f6004820152602401610930565b5f611d3983835f6113e2565b90506001600160a01b03811615610c4a576040516339e3563760e11b81525f6004820152602401610930565b5f6001600160a01b038316158015906119b95750826001600160a01b0316846001600160a01b03161480611d9e5750611d9e8484611210565b806119b95750505f908152600460205260409020546001600160a01b03908116911614919050565b6001600160e01b031981168114610c2d575f5ffd5b5f60208284031215611deb575f5ffd5b8135610ed581611dc6565b5f81518084528060208401602086015e5f602082860101526020601f19601f83011685010191505092915050565b602081525f610ed56020830184611df6565b5f60208284031215611e46575f5ffd5b5035919050565b80356001600160a01b0381168114611e63575f5ffd5b919050565b5f5f60408385031215611e79575f5ffd5b611e8283611e4d565b946020939093013593505050565b5f5f5f60608486031215611ea2575f5ffd5b611eab84611e4d565b9250611eb960208501611e4d565b929592945050506040919091013590565b5f60208284031215611eda575f5ffd5b610ed582611e4d565b5f5f60408385031215611ef4575f5ffd5b611efd83611e4d565b915060208301358015158114611f11575f5ffd5b809150509250929050565b634e487b7160e01b5f52604160045260245ffd5b5f5f5f5f60808587031215611f43575f5ffd5b611f4c85611e4d565b9350611f5a60208601611e4d565b925060408501359150606085013567ffffffffffffffff811115611f7c575f5ffd5b8501601f81018713611f8c575f5ffd5b803567ffffffffffffffff811115611fa657611fa6611f1c565b604051601f8201601f19908116603f0116810167ffffffffffffffff81118282101715611fd557611fd5611f1c565b604052818152828201602001891015611fec575f5ffd5b816020840160208301375f6020838301015280935050505092959194509250565b602080825282518282018190525f918401906040840190835b81811015612044578351835260209384019390920191600101612026565b509095945050505050565b5f5f60408385031215612060575f5ffd5b61206983611e4d565b915061207760208401611e4d565b90509250929050565b600181811c9082168061209457607f821691505b602082108103610b3557634e487b7160e01b5f52602260045260245ffd5b60208082526013908201527212195c9bc8191bd95cc81b9bdd08195e1a5cdd606a1b604082015260600190565b5f81518060208401855e5f93019283525090919050565b5f6119b961210483866120df565b846120df565b634e487b7160e01b5f52601160045260245ffd5b80820281158282048414176108085761080861210a565b808201808211156108085761080861210a565b5f600182016121595761215961210a565b5060010190565b634e487b7160e01b5f52603260045260245ffd5b818103818111156108085761080861210a565b634e487b7160e01b5f52603160045260245ffd5b6001600160a01b03858116825284166020820152604081018390526080606082018190525f906121cd90830184611df6565b9695505050505050565b5f602082840312156121e7575f5ffd5b8151610ed581611dc6565b5f8261220c57634e487b7160e01b5f52601260045260245ffd5b50069056fea2646970667358221220a6a55b61451e8d1789cbcf2485f9d89eca6cbe4be0f2f9ee7d46a9cd1d3c0af464736f6c634300081c0033",
  "linkReferences": {},
  "deployedLinkReferences": {},
  "immutableReferences": {},
  "inputSourceName": "project/contracts/RogueChain.sol",
  "buildInfoId": "solc-0_8_28-69c33d5fb8efae400aabda013b0fc419a9c7442b"
}